{"abi":[{"type":"constructor","inputs":[{"name":"anEntryPoint","type":"address","internalType":"address"},{"name":"defaultValidator","type":"address","internalType":"address"},{"name":"initData","type":"bytes","internalType":"bytes"}],"stateMutability":"nonpayable"},{"type":"fallback","stateMutability":"payable"},{"type":"receive","stateMutability":"payable"},{"type":"function","name":"accountId","inputs":[],"outputs":[{"name":"","type":"string","internalType":"string"}],"stateMutability":"pure"},{"type":"function","name":"addDeposit","inputs":[],"outputs":[],"stateMutability":"payable"},{"type":"function","name":"checkERC7739Support","inputs":[{"name":"hash","type":"bytes32","internalType":"bytes32"},{"name":"signature","type":"bytes","internalType":"bytes"}],"outputs":[{"name":"","type":"bytes4","internalType":"bytes4"}],"stateMutability":"view"},{"type":"function","name":"eip712Domain","inputs":[],"outputs":[{"name":"fields","type":"bytes1","internalType":"bytes1"},{"name":"name","type":"string","internalType":"string"},{"name":"version","type":"string","internalType":"string"},{"name":"chainId","type":"uint256","internalType":"uint256"},{"name":"verifyingContract","type":"address","internalType":"address"},{"name":"salt","type":"bytes32","internalType":"bytes32"},{"name":"extensions","type":"uint256[]","internalType":"uint256[]"}],"stateMutability":"view"},{"type":"function","name":"emergencyUninstallHook","inputs":[{"name":"data","type":"tuple","internalType":"struct EmergencyUninstall","components":[{"name":"hook","type":"address","internalType":"address"},{"name":"hookType","type":"uint256","internalType":"uint256"},{"name":"deInitData","type":"bytes","internalType":"bytes"},{"name":"nonce","type":"uint256","internalType":"uint256"}]},{"name":"signature","type":"bytes","internalType":"bytes"}],"outputs":[],"stateMutability":"payable"},{"type":"function","name":"entryPoint","inputs":[],"outputs":[{"name":"","type":"address","internalType":"address"}],"stateMutability":"view"},{"type":"function","name":"execute","inputs":[{"name":"mode","type":"bytes32","internalType":"ExecutionMode"},{"name":"executionCalldata","type":"bytes","internalType":"bytes"}],"outputs":[],"stateMutability":"payable"},{"type":"function","name":"executeComposable","inputs":[{"name":"executions","type":"tuple[]","internalType":"struct ComposableExecution[]","components":[{"name":"to","type":"address","internalType":"address"},{"name":"value","type":"uint256","internalType":"uint256"},{"name":"functionSig","type":"bytes4","internalType":"bytes4"},{"name":"inputParams","type":"tuple[]","internalType":"struct InputParam[]","components":[{"name":"fetcherType","type":"uint8","internalType":"enum InputParamFetcherType"},{"name":"paramData","type":"bytes","internalType":"bytes"},{"name":"constraints","type":"tuple[]","internalType":"struct Constraint[]","components":[{"name":"constraintType","type":"uint8","internalType":"enum ConstraintType"},{"name":"referenceData","type":"bytes","internalType":"bytes"}]}]},{"name":"outputParams","type":"tuple[]","internalType":"struct OutputParam[]","components":[{"name":"fetcherType","type":"uint8","internalType":"enum OutputParamFetcherType"},{"name":"paramData","type":"bytes","internalType":"bytes"}]}]}],"outputs":[],"stateMutability":"payable"},{"type":"function","name":"executeFromExecutor","inputs":[{"name":"mode","type":"bytes32","internalType":"ExecutionMode"},{"name":"executionCalldata","type":"bytes","internalType":"bytes"}],"outputs":[{"name":"returnData","type":"bytes[]","internalType":"bytes[]"}],"stateMutability":"payable"},{"type":"function","name":"executeUserOp","inputs":[{"name":"userOp","type":"tuple","internalType":"struct PackedUserOperation","components":[{"name":"sender","type":"address","internalType":"address"},{"name":"nonce","type":"uint256","internalType":"uint256"},{"name":"initCode","type":"bytes","internalType":"bytes"},{"name":"callData","type":"bytes","internalType":"bytes"},{"name":"accountGasLimits","type":"bytes32","internalType":"bytes32"},{"name":"preVerificationGas","type":"uint256","internalType":"uint256"},{"name":"gasFees","type":"bytes32","internalType":"bytes32"},{"name":"paymasterAndData","type":"bytes","internalType":"bytes"},{"name":"signature","type":"bytes","internalType":"bytes"}]},{"name":"","type":"bytes32","internalType":"bytes32"}],"outputs":[],"stateMutability":"payable"},{"type":"function","name":"getActiveHook","inputs":[],"outputs":[{"name":"hook","type":"address","internalType":"address"}],"stateMutability":"view"},{"type":"function","name":"getDeposit","inputs":[],"outputs":[{"name":"result","type":"uint256","internalType":"uint256"}],"stateMutability":"view"},{"type":"function","name":"getExecutorsPaginated","inputs":[{"name":"cursor","type":"address","internalType":"address"},{"name":"size","type":"uint256","internalType":"uint256"}],"outputs":[{"name":"array","type":"address[]","internalType":"address[]"},{"name":"next","type":"address","internalType":"address"}],"stateMutability":"view"},{"type":"function","name":"getFallbackHandlerBySelector","inputs":[{"name":"selector","type":"bytes4","internalType":"bytes4"}],"outputs":[{"name":"","type":"bytes1","internalType":"CallType"},{"name":"","type":"address","internalType":"address"}],"stateMutability":"view"},{"type":"function","name":"getImplementation","inputs":[],"outputs":[{"name":"implementation","type":"address","internalType":"address"}],"stateMutability":"view"},{"type":"function","name":"getRegistry","inputs":[],"outputs":[{"name":"","type":"address","internalType":"contract IERC7484"}],"stateMutability":"view"},{"type":"function","name":"getValidatorsPaginated","inputs":[{"name":"cursor","type":"address","internalType":"address"},{"name":"size","type":"uint256","internalType":"uint256"}],"outputs":[{"name":"array","type":"address[]","internalType":"address[]"},{"name":"next","type":"address","internalType":"address"}],"stateMutability":"view"},{"type":"function","name":"initializeAccount","inputs":[{"name":"initData","type":"bytes","internalType":"bytes"}],"outputs":[],"stateMutability":"payable"},{"type":"function","name":"installModule","inputs":[{"name":"moduleTypeId","type":"uint256","internalType":"uint256"},{"name":"module","type":"address","internalType":"address"},{"name":"initData","type":"bytes","internalType":"bytes"}],"outputs":[],"stateMutability":"payable"},{"type":"function","name":"isInitialized","inputs":[],"outputs":[{"name":"","type":"bool","internalType":"bool"}],"stateMutability":"view"},{"type":"function","name":"isModuleInstalled","inputs":[{"name":"moduleTypeId","type":"uint256","internalType":"uint256"},{"name":"module","type":"address","internalType":"address"},{"name":"additionalContext","type":"bytes","internalType":"bytes"}],"outputs":[{"name":"","type":"bool","internalType":"bool"}],"stateMutability":"view"},{"type":"function","name":"isValidSignature","inputs":[{"name":"hash","type":"bytes32","internalType":"bytes32"},{"name":"signature","type":"bytes","internalType":"bytes"}],"outputs":[{"name":"","type":"bytes4","internalType":"bytes4"}],"stateMutability":"view"},{"type":"function","name":"nonce","inputs":[{"name":"key","type":"uint192","internalType":"uint192"}],"outputs":[{"name":"","type":"uint256","internalType":"uint256"}],"stateMutability":"view"},{"type":"function","name":"proxiableUUID","inputs":[],"outputs":[{"name":"","type":"bytes32","internalType":"bytes32"}],"stateMutability":"view"},{"type":"function","name":"setRegistry","inputs":[{"name":"newRegistry","type":"address","internalType":"contract IERC7484"},{"name":"attesters","type":"address[]","internalType":"address[]"},{"name":"threshold","type":"uint8","internalType":"uint8"}],"outputs":[],"stateMutability":"payable"},{"type":"function","name":"supportsExecutionMode","inputs":[{"name":"mode","type":"bytes32","internalType":"ExecutionMode"}],"outputs":[{"name":"isSupported","type":"bool","internalType":"bool"}],"stateMutability":"view"},{"type":"function","name":"supportsModule","inputs":[{"name":"moduleTypeId","type":"uint256","internalType":"uint256"}],"outputs":[{"name":"","type":"bool","internalType":"bool"}],"stateMutability":"view"},{"type":"function","name":"uninstallModule","inputs":[{"name":"moduleTypeId","type":"uint256","internalType":"uint256"},{"name":"module","type":"address","internalType":"address"},{"name":"deInitData","type":"bytes","internalType":"bytes"}],"outputs":[],"stateMutability":"payable"},{"type":"function","name":"upgradeToAndCall","inputs":[{"name":"newImplementation","type":"address","internalType":"address"},{"name":"data","type":"bytes","internalType":"bytes"}],"outputs":[],"stateMutability":"payable"},{"type":"function","name":"validateUserOp","inputs":[{"name":"op","type":"tuple","internalType":"struct PackedUserOperation","components":[{"name":"sender","type":"address","internalType":"address"},{"name":"nonce","type":"uint256","internalType":"uint256"},{"name":"initCode","type":"bytes","internalType":"bytes"},{"name":"callData","type":"bytes","internalType":"bytes"},{"name":"accountGasLimits","type":"bytes32","internalType":"bytes32"},{"name":"preVerificationGas","type":"uint256","internalType":"uint256"},{"name":"gasFees","type":"bytes32","internalType":"bytes32"},{"name":"paymasterAndData","type":"bytes","internalType":"bytes"},{"name":"signature","type":"bytes","internalType":"bytes"}]},{"name":"userOpHash","type":"bytes32","internalType":"bytes32"},{"name":"missingAccountFunds","type":"uint256","internalType":"uint256"}],"outputs":[{"name":"validationData","type":"uint256","internalType":"uint256"}],"stateMutability":"nonpayable"},{"type":"function","name":"withdrawDepositTo","inputs":[{"name":"to","type":"address","internalType":"address"},{"name":"amount","type":"uint256","internalType":"uint256"}],"outputs":[],"stateMutability":"payable"},{"type":"event","name":"ERC7484RegistryConfigured","inputs":[{"name":"registry","type":"address","indexed":true,"internalType":"contract IERC7484"}],"anonymous":false},{"type":"event","name":"EmergencyHookUninstallRequest","inputs":[{"name":"hook","type":"address","indexed":false,"internalType":"address"},{"name":"timestamp","type":"uint256","indexed":false,"internalType":"uint256"}],"anonymous":false},{"type":"event","name":"EmergencyHookUninstallRequestReset","inputs":[{"name":"hook","type":"address","indexed":false,"internalType":"address"},{"name":"timestamp","type":"uint256","indexed":false,"internalType":"uint256"}],"anonymous":false},{"type":"event","name":"ModuleInstalled","inputs":[{"name":"moduleTypeId","type":"uint256","indexed":false,"internalType":"uint256"},{"name":"module","type":"address","indexed":false,"internalType":"address"}],"anonymous":false},{"type":"event","name":"ModuleUninstalled","inputs":[{"name":"moduleTypeId","type":"uint256","indexed":false,"internalType":"uint256"},{"name":"module","type":"address","indexed":false,"internalType":"address"}],"anonymous":false},{"type":"event","name":"PREPInitialized","inputs":[{"name":"r","type":"bytes32","indexed":false,"internalType":"bytes32"}],"anonymous":false},{"type":"event","name":"TryDelegateCallUnsuccessful","inputs":[{"name":"callData","type":"bytes","indexed":false,"internalType":"bytes"},{"name":"result","type":"bytes","indexed":false,"internalType":"bytes"}],"anonymous":false},{"type":"event","name":"TryExecuteUnsuccessful","inputs":[{"name":"callData","type":"bytes","indexed":false,"internalType":"bytes"},{"name":"result","type":"bytes","indexed":false,"internalType":"bytes"}],"anonymous":false},{"type":"event","name":"Upgraded","inputs":[{"name":"implementation","type":"address","indexed":true,"internalType":"address"}],"anonymous":false},{"type":"error","name":"AccountAccessUnauthorized","inputs":[]},{"type":"error","name":"AccountAlreadyInitialized","inputs":[]},{"type":"error","name":"AccountNotInitialized","inputs":[]},{"type":"error","name":"CanNotRemoveLastValidator","inputs":[]},{"type":"error","name":"ComposableExecutionFailed","inputs":[]},{"type":"error","name":"ConstraintNotMet","inputs":[{"name":"constraintType","type":"uint8","internalType":"enum ConstraintType"}]},{"type":"error","name":"DefaultValidatorAlreadyInstalled","inputs":[]},{"type":"error","name":"ERC7702AccountCannotBeUpgradedThisWay","inputs":[]},{"type":"error","name":"EmergencyTimeLockNotExpired","inputs":[]},{"type":"error","name":"EmergencyUninstallSigError","inputs":[]},{"type":"error","name":"EnableModeSigError","inputs":[]},{"type":"error","name":"EntryPointCanNotBeZero","inputs":[]},{"type":"error","name":"ExecutionFailed","inputs":[]},{"type":"error","name":"FallbackAlreadyInstalledForSelector","inputs":[{"name":"selector","type":"bytes4","internalType":"bytes4"}]},{"type":"error","name":"FallbackCallTypeInvalid","inputs":[]},{"type":"error","name":"FallbackHandlerUninstallFailed","inputs":[]},{"type":"error","name":"FallbackNotInstalledForSelector","inputs":[{"name":"selector","type":"bytes4","internalType":"bytes4"}]},{"type":"error","name":"FallbackSelectorForbidden","inputs":[]},{"type":"error","name":"HookAlreadyInstalled","inputs":[{"name":"currentHook","type":"address","internalType":"address"}]},{"type":"error","name":"HookPostCheckFailed","inputs":[]},{"type":"error","name":"ImplementationIsNotAContract","inputs":[]},{"type":"error","name":"InnerCallFailed","inputs":[]},{"type":"error","name":"InvalidConstraintType","inputs":[]},{"type":"error","name":"InvalidImplementationAddress","inputs":[]},{"type":"error","name":"InvalidInitData","inputs":[]},{"type":"error","name":"InvalidInput","inputs":[]},{"type":"error","name":"InvalidModule","inputs":[{"name":"module","type":"address","internalType":"address"}]},{"type":"error","name":"InvalidModuleTypeId","inputs":[{"name":"moduleTypeId","type":"uint256","internalType":"uint256"}]},{"type":"error","name":"InvalidNonce","inputs":[]},{"type":"error","name":"InvalidOutputParamFetcherType","inputs":[]},{"type":"error","name":"InvalidPREP","inputs":[]},{"type":"error","name":"InvalidParameterEncoding","inputs":[]},{"type":"error","name":"InvalidSignature","inputs":[]},{"type":"error","name":"LinkedList_AlreadyInitialized","inputs":[]},{"type":"error","name":"LinkedList_EntryAlreadyInList","inputs":[{"name":"entry","type":"address","internalType":"address"}]},{"type":"error","name":"LinkedList_InvalidEntry","inputs":[{"name":"entry","type":"address","internalType":"address"}]},{"type":"error","name":"LinkedList_InvalidPage","inputs":[]},{"type":"error","name":"MismatchModuleTypeId","inputs":[]},{"type":"error","name":"MissingFallbackHandler","inputs":[{"name":"selector","type":"bytes4","internalType":"bytes4"}]},{"type":"error","name":"ModuleAddressCanNotBeZero","inputs":[]},{"type":"error","name":"ModuleAlreadyInstalled","inputs":[{"name":"moduleTypeId","type":"uint256","internalType":"uint256"},{"name":"module","type":"address","internalType":"address"}]},{"type":"error","name":"ModuleNotInstalled","inputs":[{"name":"moduleTypeId","type":"uint256","internalType":"uint256"},{"name":"module","type":"address","internalType":"address"}]},{"type":"error","name":"NexusInitializationFailed","inputs":[]},{"type":"error","name":"NoValidatorInstalled","inputs":[]},{"type":"error","name":"Output_StaticCallFailed","inputs":[]},{"type":"error","name":"PrevalidationHookAlreadyInstalled","inputs":[{"name":"currentPreValidationHook","type":"address","internalType":"address"}]},{"type":"error","name":"UnauthorizedCallContext","inputs":[]},{"type":"error","name":"UnauthorizedOperation","inputs":[{"name":"operator","type":"address","internalType":"address"}]},{"type":"error","name":"UnsupportedCallType","inputs":[{"name":"callType","type":"bytes1","internalType":"CallType"}]},{"type":"error","name":"UnsupportedChain","inputs":[]},{"type":"error","name":"UnsupportedExecType","inputs":[{"name":"execType","type":"bytes1","internalType":"ExecType"}]},{"type":"error","name":"UnsupportedModuleType","inputs":[{"name":"moduleTypeId","type":"uint256","internalType":"uint256"}]},{"type":"error","name":"UpgradeFailed","inputs":[]},{"type":"error","name":"ValidatorNotInstalled","inputs":[{"name":"module","type":"address","internalType":"address"}]}],"bytecode":{"object":"0x6101a0806040523461031957615ff1803803809161001d8285610385565b833981019060608183031261031957610035816103a8565b90610042602082016103a8565b604082015190916001600160401b03821161031957019280601f850112156103195783516001600160401b038111610371576040519461008c601f8301601f191660200187610385565b81865260208601926020838301011161031957815f926020809301855e860101523060a0524660c05260409360a085516100c68782610385565b600581526020810190644e6578757360d81b82528751916100e78984610385565b60058352640312e322e360dc1b6020938401529051902060e08190527fe374587661e69268352d25204d81b23ce801573f4b09f3545e69536dc085a37a61010081905288517f8b73c3c69bb8fe3d512ecc4cf759cc79239f7b179b0ffacaa9a75d522b39400f815280840192909252818901524660608201523060808201529190912061012052855163ecd0596160e01b8152600160048201526001600160a01b038516939181602481875afa908115610367575f9161032c575b501561031d57823b15610319576044925f928388519586809581946306d61fe760e41b8352602060048401525180918160248501528484015e8181018301849052601f01601f191681010301925af1801561030f576102ff575b506101405230610160526001600160a01b038116156102f057608052306101805251615c3490816103bd82396080518181816103c00152818161064d0152818161082b01528181611024015281816110f301528181611364015281816114b601528181611518015281816117e30152818161185c0152818161198501526122e7015260a051816153c7015260c051816153ea015260e0518161545a01526101005181615480015261012051816153a60152610140518181816121200152818161265601528181612cb801528181613c050152614f140152610160518181816109e701526122b6015261018051816107010152f35b6307e355bf60e31b5f5260045ffd5b5f61030991610385565b5f6101fc565b84513d5f823e3d90fd5b5f80fd5b631c4f83bb60e31b5f5260045ffd5b90506020813d60201161035f575b8161034760209383610385565b8101031261031957518015158103610319575f6101a2565b3d915061033a565b87513d5f823e3d90fd5b634e487b7160e01b5f52604160045260245ffd5b601f909101601f19168101906001600160401b0382119082101761037157604052565b51906001600160a01b03821682036103195756fe60806040526004361015610015575b3661298457005b5f3560e01c80630a664dba14610204578063112d3a7d146101ff5780631626ba7e146101fa57806319822f7c146101f5578063392e53cd146101f0578063481ddd23146101eb5780634a58db19146101e65780634b6a1419146101e15780634d44560d146101dc5780634f1ef286146101d757806352d1902d146101d25780635ab1bd53146101cd5780635bfeadbb146101c85780635faac46b146101c357806384b0196e146101be5780638dd7712f146101b95780639517e29f146101b45780639cfd7cff146101af578063a71763a8146101aa578063aaf10f42146101a5578063b0d691fe146101a0578063b46b61a91461019b578063c399ec8814610196578063d03c791414610191578063d691c9641461018c578063d86f2b3c14610187578063e9ae5c5314610182578063ea5a6d911461017d578063ea5f61d014610178578063eab77e17146101735763f2dc691d0361000e57611bde565b611b40565b611a44565b61194c565b611845565b611784565b611655565b611549565b6114f3565b6114da565b611497565b611439565b611350565b6112f1565b6110df565b610feb565b610f4d565b610d83565b610a87565b610a42565b6109d4565b6108ab565b610810565b610675565b61063b565b6105aa565b61057e565b61036f565b610334565b6102de565b610217565b5f91031261021357565b5f80fd5b34610213575f3660031901126102135760206001600160a01b035f516020615be85f395f51905f5254166001600160a01b0360405191168152f35b6001600160a01b0381160361021357565b359061026e82610252565b565b9181601f840112156102135782359167ffffffffffffffff8311610213576020838186019501011161021357565b606060031982011261021357600435916024356102ba81610252565b916044359067ffffffffffffffff8211610213576102da91600401610270565b9091565b346102135760206102fa6102f13661029e565b92919091612bdd565b6040519015158152f35b90604060031983011261021357600435916024359067ffffffffffffffff8211610213576102da91600401610270565b3461021357602061034d61034736610304565b91611d8d565b6040516001600160e01b03199091168152f35b90816101209103126102135790565b346102135760603660031901126102135760043567ffffffffffffffff8111610213576103a3610458913690600401610360565b602061042060243561042b60443580956103e76001600160a01b037f0000000000000000000000000000000000000000000000000000000000000000163314611e64565b6104256103f43683611f06565b958692888101359061040a8260031a60f81b1590565b156104d1575b5060401c6001600160a01b031690565b612ca5565b9361308b565b61010084929401525f6001600160a01b03604051809881968295639700320360e01b8452600484016120d1565b0393165af19081156104cc57610487925f9261049b575b508061048b575b506040519081529081906020820190565b0390f35b5f9081803892335af1505f610476565b8192506104bf9060203d6020116104c5575b6104b78183611d23565b81019061202f565b9161046f565b503d6104ad565b611d82565b600382901a60f81b600160f81b03610513576104ff6104f882610100610506940190611ffc565b908a612fa7565b3691611eb5565b6101008501525b5f610410565b600382901a60f81b600160f91b1461052c575b5061050d565b61056d61056161055b6105789361055061054b610547612105565b1590565b611fe6565b610100810190611ffc565b90612ded565b93919290923691611eb5565b610100880152612f00565b5f610526565b34610213575f3660031901126102135760206102fa612105565b6001600160e01b031981160361021357565b3461021357602036600319011261021357604060206106046004356105ce81610598565b63ffffffff60e01b165f527f0bb70095b32b9671358306b0339b4c06e7cbd8cb82505941fba30d1eb5b82f0260205260405f2090565b82519061061082611d02565b54906001600160a01b0382169182825260ff60f81b9060581b16928391015282519182526020820152f35b5f366003190112610213575f388180347f00000000000000000000000000000000000000000000000000000000000000005af11561021357005b60203660031901126102135760043567ffffffffffffffff8111610213576106a1903690600401610270565b908190803033036106b9575b6106b78383612f00565b005b916106c26131ab565b156107cf575050816107c96107bc836106ed846106e56106b79861078f98611c2d565b969093611c3b565b95909461078961077d61077761072c6107277f00000000000000000000000000000000000000000000000000000000000000008c8c61324a565b6133ab565b9561076e61054b6105476107678a5f527f0bb70095b32b9671358306b0339b4c06e7cbd8cb82505941fba30d1eb5b82f0960205260405f2090565b5460ff1690565b30943691611eb5565b85613410565b6001600160a01b031690565b1461219a565b5f527f0bb70095b32b9671358306b0339b4c06e7cbd8cb82505941fba30d1eb5b82f0960205260405f2090565b805460ff19166001179055565b5f6106ad565b915091507f90b772c2cb8a51aa7a8a65fc23543c6d022d5b3f8e2b92eed79fba7eef8293005c15610803576106b7916107c9565b63aed595955f526004601cfd5b60403660031901126102135760043561082881610252565b5f7f0000000000000000000000000000000000000000000000000000000000000000602435336001600160a01b0383161480156108a2575b61086990611e64565b604051936014526034526f205c28780000000000000000000000008252604460108338935af11561089a575f603452005b3d5f823e3d90fd5b50333014610860565b6040366003190112610213576004356108c381610252565b60243567ffffffffffffffff8111610213576108e3903690600401610270565b906001600160a01b0361090a6001600160a01b035f516020615be85f395f51905f52541690565b168061091a57506106b792612289565b60405163d68f602560e01b81529290915f848061093c3634336004850161223c565b038183875af19384156104cc575f946109ac575b5061095c929394612289565b803b1561021357604051630b9dfbed60e11b8152915f9183918290849082906109889060048301612262565b03925af180156104cc5761099857005b806109a65f6106b793611d23565b80610209565b61095c9394506109cd903d805f833e6109c58183611d23565b8101906121f6565b9392610950565b34610213575f36600319011261021357307f000000000000000000000000000000000000000000000000000000000000000003610a355760206040517f360894a13ba1a3210667c828492db98dca3e2076cc3735a920a3ca505d382bbc8152f35b639f03a0265f526004601cfd5b34610213575f3660031901126102135760206001600160a01b037f0bb70095b32b9671358306b0339b4c06e7cbd8cb82505941fba30d1eb5b82f085416604051908152f35b60403660031901126102135760043567ffffffffffffffff8111610213578060040190608060031982360301126102135760243567ffffffffffffffff811161021357610adb610ae2913690600401610270565b90846134dd565b610afe6024820135926044610af6826123f0565b930190611ffc565b9290600482148015610d22575b828115610d17575b610b1c916123fa565b610b328383610b2d87858484612bdd565b612414565b610b6c836001600160a01b03165f527f0bb70095b32b9671358306b0339b4c06e7cbd8cb82505941fba30d1eb5b82f0460205260405f2090565b5480610bfd575050507f2841d18703faaff388732165e48fe431468531b1b1e626b1b7cbcbfc0d79c7409150610bf89042610bd7826001600160a01b03165f527f0bb70095b32b9671358306b0339b4c06e7cbd8cb82505941fba30d1eb5b82f0460205260405f2090565b55604080516001600160a01b03909216825242602083015290918291820190565b0390a1005b610c0a6203f4808261244d565b4210610c75575050507fcbd44a75f6935b5837022648b6c8487db984701200c5381c7c0f8c2b1d69b9da9150610bf89042610bd7826001600160a01b03165f527f0bb70095b32b9671358306b0339b4c06e7cbd8cb82505941fba30d1eb5b82f0460205260405f2090565b610c7e9061243d565b4210610d08577f341347516a9de374859dfda710fa4828b2d48cb57d4fbe4c1149612b8e02276e93610ced915f610ce5866001600160a01b03165f527f0bb70095b32b9671358306b0339b4c06e7cbd8cb82505941fba30d1eb5b82f0460205260405f2090565b55838561362a565b604080519182526001600160a01b03929092166020820152a1005b6303f9796960e11b5f5260045ffd5b600981149150610b13565b5060088214610b0b565b90929192604082016040835281518091526020606084019201905f5b818110610d64575050506001600160a01b036020919416910152565b82516001600160a01b0316845260209384019390920191600101610d48565b3461021357604036600319011261021357600435610da081610252565b6024359060016001600160a01b038216141580610f17575b610efc578115610eed5790610dcc816144ce565b610e04610df75f946001600160a01b03165f525f516020615bc85f395f51905f5260205260405f2090565b546001600160a01b031690565b6001600160a01b0381168015159081610ee1575b5080610ed8575b15610e7957610e6d610df782610e4a610e7394610e3c89886131f3565b906001600160a01b03169052565b6001600160a01b03165f525f516020615bc85f395f51905f5260205260405f2090565b93614500565b92610e04565b908360016001600160a01b038416141580610ecf575b610ea5575b815261048760405192839283610d2c565b9150610ec9610ebc610eb68461450e565b836131f3565b516001600160a01b031690565b91610e94565b50801515610e8f565b50828410610e1f565b6001915014155f610e18565b63f725081760e01b5f5260045ffd5b637c84ecfb60e01b5f526001600160a01b031660045260245ffd5b50610f2461054782613d5e565b610db8565b805180835260209291819084018484015e5f828201840152601f01601f1916010190565b34610213575f36600319011261021357610f8c610f9a610f6b61372b565b604092919251938493600f60f81b855260e0602086015260e0850190610f29565b908382036040850152610f29565b4660608301523060808301525f60a083015281810360c083015260206060519182815201906080905f5b818110610fd2575050500390f35b8251845285945060209384019390920191600101610fc4565b60403660031901126102135760043567ffffffffffffffff811161021357611017903690600401610360565b61104b6001600160a01b037f0000000000000000000000000000000000000000000000000000000000000000163314611e64565b6001600160a01b036110716001600160a01b035f516020615be85f395f51905f52541690565b168061108157506106b790612496565b60405163d68f602560e01b8152915f83806110a13634336004850161223c565b038183865af19283156104cc575f936110bf575b5061095c90612496565b61095c9193506110d8903d805f833e6109c58183611d23565b92906110b5565b6110e83661029e565b906001600160a01b037f000000000000000000000000000000000000000000000000000000000000000016331480156112e8575b61112590611e64565b61113061054761311b565b6112db575b6001600160a01b038316156112cc576001840361119a577fd21d0b289f126c4b473ea641963e766833c2f13866e4ff480abd787c100ef12393916111799184614e32565b604080519182526001600160a01b0390921660208201529081908101610bf8565b600284036111d4577fd21d0b289f126c4b473ea641963e766833c2f13866e4ff480abd787c100ef12393916111cf9184614d32565b611179565b60038403611209577fd21d0b289f126c4b473ea641963e766833c2f13866e4ff480abd787c100ef12393916111cf9184614a62565b6004840361123e577fd21d0b289f126c4b473ea641963e766833c2f13866e4ff480abd787c100ef12393916111cf918461490e565b6008841480156112c2575b1561127c5783916111cf91847fd21d0b289f126c4b473ea641963e766833c2f13866e4ff480abd787c100ef12396614755565b836112ae577fd21d0b289f126c4b473ea641963e766833c2f13866e4ff480abd787c100ef12393916111cf9184614638565b6304c1896960e11b5f52600484905260245ffd5b5060098414611249565b635316c18d60e01b5f5260045ffd5b6112e361451c565b611135565b5033301461111c565b34610213575f36600319011261021357610487604051611312604082611d23565b601481527f6269636f6e6f6d792e6e657875732e312e322e300000000000000000000000006020820152604051918291602083526020830190610f29565b6113593661029e565b916001600160a01b037f00000000000000000000000000000000000000000000000000000000000000001633148015611430575b61139690611e64565b6001600160a01b036113bc6001600160a01b035f516020615be85f395f51905f52541690565b16806113cc57506106b7936124f2565b60405163d68f602560e01b815293909290915f85806113f03634336004850161223c565b038183885af19485156104cc575f95611410575b5061095c9394956124f2565b61095c949550611429903d805f833e6109c58183611d23565b9493611404565b5033301461138d565b34610213575f366003190112610213577f360894a13ba1a3210667c828492db98dca3e2076cc3735a920a3ca505d382bbc546001600160a01b0381161561148f575b6020906001600160a01b0360405191168152f35b50305461147b565b34610213575f3660031901126102135760206040516001600160a01b037f0000000000000000000000000000000000000000000000000000000000000000168152f35b3461021357602061034d6114ed36610304565b916125d0565b34610213575f36600319011261021357306020526370a082315f52602080806024601c7f00000000000000000000000000000000000000000000000000000000000000005afa601f3d1116815102604051908152f35b34610213576020366003190112610213576104876004358060081b60ff60f81b8216159182156115de575b82156115c9575b5081611595575b5060405190151581529081906020820190565b6001600160f81b0319811615915081156115b1575b505f611582565b6001600160f81b031916600160f81b1490505f6115aa565b6001600160f81b03199081161491505f61157b565b6001600160f81b03198116600160f81b149250611574565b602081016020825282518091526040820191602060408360051b8301019401925f915b83831061162857505050505090565b9091929394602080611646600193603f198682030187528951610f29565b97019301930191939290611619565b61165e36610304565b9161166833613d9e565b15611771576001600160a01b036116936001600160a01b035f516020615be85f395f51905f52541690565b16806116b45750916116a891610487936126a2565b604051918291826115f6565b90926040519263d68f602560e01b84525f84806116d63634336004850161223c565b038183875af19384156104cc575f94611751575b506116f69293946126a2565b90803b1561021357604051630b9dfbed60e11b8152925f9184918290849082906117239060048301612262565b03925af19182156104cc576104879261173d575b506116a8565b806109a65f61174b93611d23565b5f611737565b6116f693945061176a903d805f833e6109c58183611d23565b93926116ea565b635c93ff2f60e11b5f523360045260245ffd5b346102135760203660031901126102135760043577ffffffffffffffffffffffffffffffffffffffffffffffff81168091036102135760405190631aab3f0d60e11b825230600483015260248201526020816044816001600160a01b037f0000000000000000000000000000000000000000000000000000000000000000165afa80156104cc57610487915f9161182657506040519081529081906020820190565b61183f915060203d6020116104c5576104b78183611d23565b5f610476565b61184e36610304565b906118836001600160a01b037f0000000000000000000000000000000000000000000000000000000000000000163314611e64565b6001600160a01b036118a96001600160a01b035f516020615be85f395f51905f52541690565b16806118b957506106b7926127e8565b60405163d68f602560e01b81529290915f84806118db3634336004850161223c565b038183875af19384156104cc575f946118fb575b5061095c9293946127e8565b61095c939450611914903d805f833e6109c58183611d23565b93926118ef565b9181601f840112156102135782359167ffffffffffffffff8311610213576020808501948460051b01011161021357565b60203660031901126102135760043567ffffffffffffffff81116102135761197890369060040161191b565b6119ac6001600160a01b037f0000000000000000000000000000000000000000000000000000000000000000163314611e64565b6001600160a01b036119d26001600160a01b035f516020615be85f395f51905f52541690565b16806119e257506106b791614172565b906040519263d68f602560e01b84525f8480611a033634336004850161223c565b038183875af19384156104cc575f94611a22575b509061095c91614172565b61095c92919450611a3c903d805f833e6109c58183611d23565b939091611a17565b3461021357604036600319011261021357600435611a6181610252565b6024359060016001600160a01b038216141580611b2e575b610efc578115610eed5790611a8d816144ce565b611ab8610df75f946001600160a01b03165f525f516020615c085f395f51905f5260205260405f2090565b6001600160a01b0381168015159081611b22575b5080611b19575b15610e7957610e6d610df782611af0611b1394610e3c89886131f3565b6001600160a01b03165f525f516020615c085f395f51905f5260205260405f2090565b92611ab8565b50828410611ad3565b6001915014155f611acc565b50611b3b61054782613d9e565b611a79565b606036600319011261021357611b57600435610252565b60243567ffffffffffffffff811161021357611b7790369060040161191b565b9060443560ff81160361021357611b8f303314611e64565b6020611b9a836128ef565b611ba76040519182611d23565b838152019160051b81019036821161021357915b818310611bc457005b602080918435611bd381610252565b815201920191611bbb565b346102135760203660031901126102135760206102fa600435612907565b634e487b7160e01b5f52601160045260245ffd5b906177398202918083046177391490151715611c2857565b611bfc565b906041116102135790604190565b909291928360411161021357831161021357604101916040190190565b906014116102135790601490565b909291928360141161021357831161021357601401916013190190565b906004116102135790600490565b909291928360051161021357831161021357600501916004190190565b356bffffffffffffffffffffffff19811692919060148210611cce575050565b6bffffffffffffffffffffffff1960149290920360031b82901b16169150565b634e487b7160e01b5f52604160045260245ffd5b6040810190811067ffffffffffffffff821117611d1e57604052565b611cee565b90601f8019910116810190811067ffffffffffffffff821117611d1e57604052565b908160209103126102135751611d5a81610598565b90565b611d5a93926001600160a01b0360609316825260208201528160408201520190610f29565b6040513d5f823e3d90fd5b918015611e46575b90611dcf611df693611dc98480611dc3610420611dbd611db760209a8a611c58565b90611cae565b60601c90565b95611c66565b91612d51565b91906001600160a01b03604051809681958294637aa8f17760e11b84523360048501611d5d565b0392165afa5f9181611e15575b50611d5a57506001600160e01b031990565b611e3891925060203d602011611e3f575b611e308183611d23565b810190611d45565b905f611e03565b503d611e26565b611e5461ffff821904611c10565b8303611d955790611d5a926125d0565b15611e6b57565b635629665f60e11b5f5260045ffd5b6040519061026e61012083611d23565b6040519061026e604083611d23565b67ffffffffffffffff8111611d1e57601f01601f191660200190565b929192611ec182611e99565b91611ecf6040519384611d23565b829481845281830111610213578281602093845f960137010152565b9080601f8301121561021357816020611d5a93359101611eb5565b9190916101208184031261021357611f1c611e7a565b92611f2682610263565b845260208201356020850152604082013567ffffffffffffffff81116102135781611f52918401611eeb565b6040850152606082013567ffffffffffffffff81116102135781611f77918401611eeb565b60608501526080820135608085015260a082013560a085015260c082013560c085015260e082013567ffffffffffffffff81116102135781611fba918401611eeb565b60e085015261010082013567ffffffffffffffff811161021357611fde9201611eeb565b610100830152565b15611fed57565b63ae4edb1b60e01b5f5260045ffd5b903590601e1981360301821215610213570180359067ffffffffffffffff82116102135760200191813603831361021357565b90816020910312610213575190565b80516001600160a01b03168252611d5a91602082015160208201526101006120bf61208f61207d60408601516101206040870152610120860190610f29565b60608601518582036060870152610f29565b6080850151608085015260a085015160a085015260c085015160c085015260e085015184820360e0860152610f29565b92015190610100818403910152610f29565b9291906120e860209160408652604086019061203e565b930152565b90816020910312610213575180151581036102135790565b60405163d60b347f60e01b81523060048201526020816024817f00000000000000000000000000000000000000000000000000000000000000006001600160a01b03165afa9081156104cc575f9161216b575b5080156121625790565b50611d5a61311b565b61218d915060203d602011612193575b6121858183611d23565b8101906120ed565b5f612158565b503d61217b565b156121a157565b638baa579f60e01b5f5260045ffd5b81601f82011215610213578051906121c782611e99565b926121d56040519485611d23565b8284526020838301011161021357815f9260208093018386015e8301015290565b9060208282031261021357815167ffffffffffffffff811161021357611d5a92016121b0565b908060209392818452848401375f828201840152601f01601f1916010190565b611d5a93926001600160a01b03606093168252602082015281604082015201905f61221c565b906020611d5a928181520190610f29565b1561227a57565b63325c055b60e21b5f5260045ffd5b9190916001600160a01b038116906122a2821515612273565b6122ae813b1515612273565b30556122d9307f00000000000000000000000000000000000000000000000000000000000000001490565b610a35576001600160a01b037f000000000000000000000000000000000000000000000000000000000000000016331480156123e7575b61231990611e64565b6123216131ab565b6123d8573d5f526352d1902d6001527f360894a13ba1a3210667c828492db98dca3e2076cc3735a920a3ca505d382bbc602060016004601d855afa51036123ca57807fbc7cd75a20ee27fd9adebab32041f755214dbc6bffa90cc0225b39da2e5c2d3b5f80a281817f360894a13ba1a3210667c828492db98dca3e2076cc3735a920a3ca505d382bbc556123b457505050565b815f926040519485378338925af41561089a5750565b6355299b496001526004601dfd5b63dc3b837960e01b5f5260045ffd5b50333014612310565b35611d5a81610252565b156124025750565b63041c38b360e41b5f5260045260245ffd5b1561241d575050565b6001600160a01b039250635f300b3960e11b5f526004521660245260445ffd5b90620151808201809211611c2857565b91908201809211611c2857565b908092918237015f815290565b3d15612491573d9061247882611e99565b916124866040519384611d23565b82523d5f602084013e565b606090565b6124a4906060810190611ffc565b80600411610213576040515f9283929060031982019060040183378101826003198201528160031991030190305af46124db612467565b50156124e357565b632b3f6d1160e21b5f5260045ffd5b90917f341347516a9de374859dfda710fa4828b2d48cb57d4fbe4c1149612b8e02276e936125278484610b2d84868484612bdd565b600183036125635761253991846139e4565b612541613ade565b604080519182526001600160a01b03909216602082015290819081015b0390a1565b6002830361257a57612575918461386f565b612541565b6003830361258c57612575918461376f565b6004831480156125c6575b80156125bc575b6125aa575b5050612541565b6125b591838561362a565b5f806125a3565b506009831461259e565b5060088314612597565b60015f9081525f516020615bc85f395f51905f526020527ffe44ceacbf4f03c6ac19f86826dd265fa9ec25125e8b1766c207f24cd3bc73c7546001600160a01b031694939291905b6001600160a01b0386168015159081612696575b501561264e57612642848484612648948a613c63565b95613d19565b94612618565b61267a9495507f0000000000000000000000000000000000000000000000000000000000000000613c63565b6001600160e01b03198116611d5a57506001600160e01b031990565b6001915014155f61262c565b600881901b9291906001600160f81b031981166126c5575090611d5a9291613f50565b6001600160f81b03198116600160f81b036126e6575090611d5a9291613e87565b6001600160f81b0319808216036127d057509061270291614f71565b909161270c613dde565b936001600160f81b0319811661273e57509161272792614fb0565b612730826131e1565b5261273a816131e1565b5090565b6001600160f81b03198116600160f81b036127b45750818361275f92614f8b565b612768856131e1565b521561277357505090565b7f5bd4c60b4b38b664d8fb5944eb974e3d85083d79afe5ce934ccabcc913707c10916127ae6127a1856131e1565b5160405193849384613e61565b0390a190565b6308c3ee0360e11b5f526001600160f81b03191660045260245ffd5b632e5bf3f960e21b5f5260ff60f81b1660045260245ffd5b600881901b9291906001600160f81b0319811661280b57509061026e9291614086565b6001600160f81b03198116600160f81b0361282c57509061026e9291613ffd565b6001600160f81b0319808216036127d057509061284891614f71565b929091906001600160f81b0319811661287657505f9083604051938437838338925af41561089a5701604052565b9192916001600160f81b03198116600160f81b036128d75750818361289a92614f8b565b9290156128a657505050565b61255e7f5bd4c60b4b38b664d8fb5944eb974e3d85083d79afe5ce934ccabcc913707c109360405193849384613e61565b6308c3ee0360e11b5f5260ff60f81b1660045260245ffd5b67ffffffffffffffff8111611d1e5760051b60200190565b60018114908115612979575b811561296e575b8115612963575b8115612958575b811561294d575b8115612944575b5061293f575f90565b600190565b9050155f612936565b60098114915061292f565b600881149150612928565b600481149150612921565b60038114915061291a565b600281149150612913565b5f80356001600160e01b031981168083527f0bb70095b32b9671358306b0339b4c06e7cbd8cb82505941fba30d1eb5b82f026020526040909220546129dd6001600160a01b0382169160581b6001600160f81b03191690565b906001600160a01b038116612a3357505060e01c9063bc197c81821463f23a6e6183141763150b7a02831417612a29576308c63e2760e01b5f526001600160e01b03191660045260245ffd5b506020526020603cf35b5f516020615be85f395f51905f52546001600160a01b0316801515926060929084612b50575b6001600160f81b03198116607f60f91b03612afe57505f8091612a7a615377565b90602082519201905afa92612a8d612467565b935b15612af657612aa1575b825160208401f35b803b1561021357604051630b9dfbed60e11b8152915f918391829084908290612acd9060048301612262565b03925af180156104cc57612ae2575b80612a99565b806109a65f612af093611d23565b81612adc565b835160208501fd5b6001600160f81b03198116612b3457505f8091612b19615377565b906020825192019034905af192612b2e612467565b93612a8f565b632e5bf3f960e21b5f526001600160f81b03191660045260245ffd5b60405163d68f602560e01b81529093505f8180612b723634336004850161223c565b038183875af19081156104cc575f91612b8d575b5092612a59565b612ba191503d805f833e6109c58183611d23565b85612b86565b356001600160e01b0319811692919060048210612bc2575050565b6001600160e01b031960049290920360031b82901b16169150565b92909160018403612bf4575050611d5a9150613d5e565b60028403612c08575050611d5a9150613d9e565b60038403612c3d57611d5a935060048210612c3557612c3091612c2a91611c83565b90612ba7565b61427e565b50505f61427e565b505090600481145f14612c6b57505f516020615be85f395f51905f52546001600160a01b0391821691161490565b600881148015612c9b575b15612c95576001600160a01b03612c8d819261421b565b921691161490565b50505f90565b5060098114612c76565b6001600160a01b03811680612cda5750507f000000000000000000000000000000000000000000000000000000000000000090565b612ce382613d5e565b15612cec575090565b63342cf00f60e11b5f5260045260245ffd5b91909160408184031261021357805192602082015167ffffffffffffffff811161021357611d5a92016121b0565b611d5a94926001600160a01b036060931682526020820152816040820152019161221c565b7f0bb70095b32b9671358306b0339b4c06e7cbd8cb82505941fba30d1eb5b82f06549293926001600160a01b031680612d92575090611d5a91933691611eb5565b604051637a0468b760e01b8152945f93869384928392612db6923360048601612d2c565b03915afa9182156104cc575f905f93612dce57509190565b90506102da9192503d805f833e612de58183611d23565b810190612cfe565b9060f911610803578035906020810135810190602082019135906040810135019360208501943593612e20368486611eb5565b602081519101205f528060a01c6020526001600160a01b0360405f201690815f526001600160a01b0360205f2091608060205216601f526305d78094600b52601960272090604051915f52601b602052826040526060526020604060805f60015afa505f606052612eaf6105473d6060185183604052612ea730916001600160a01b031690565b143015151690565b612ef8575b8115612ee9579081527f4f058962bce244bca6c9be42f256083afc66f1f63a1f9a04e31a3042311af38d90806020810161255e565b63e483bbcb60e01b5f5260045ffd5b5f9150612eb4565b90601811612f73575f8160208083940135820180358060405193849301833781018481520391355af4612f31612467565b5015612f6457612f3f6131ab565b15612f4657565b612f4e612105565b15612f5557565b633aab01a760e11b5f5260045ffd5b63315927c560e01b5f5260045ffd5b6307ce216360e51b5f5260045ffd5b6001600160a01b03611d5a95936060938352166020820152816040820152019161221c565b92909192823560601c601484013590603485013560e01c91603886019383870196603888013560e01c976038828a603c840193010301998060048c0111610213576130309361302b886130218b948f6004906105479901019f6003199103019d8061301b610420611dbd611db7848c611c58565b97611c66565b949093898b6142c9565b614337565b61307c57303b156102135761305b5f936040519586948594639517e29f60e01b865260048601612f82565b038183305af180156104cc5761306e5750565b806109a65f61026e93611d23565b6346fdc33360e01b5f5260045ffd5b92916001600160a01b037f0bb70095b32b9671358306b0339b4c06e7cbd8cb82505941fba30d1eb5b82f05541680155f146130ca575050610100015190565b60405f809482979497519788958694859363e24f8f9360e01b85526130fb600486019160608352606083019061203e565b936020820152015203925af19182156104cc575f905f93612dce57509190565b60015f525f516020615bc85f395f51905f526020527ffe44ceacbf4f03c6ac19f86826dd265fa9ec25125e8b1766c207f24cd3bc73c7546001600160a01b03161515806131655790565b5060015f525f516020615c085f395f51905f526020527fbdfeb076d903611fa58576955630d640569633049bcf40ad9c22db9251b54a13546001600160a01b0316151590565b5f906017303b146131b857565b905060035f80303c5f5160e81c62ef01001490565b634e487b7160e01b5f52603260045260245ffd5b8051156131ee5760200190565b6131cd565b80518210156131ee5760209160051b010190565b1561320e57565b63d21eab3760e01b5f5260045ffd5b80516020909101905f5b8181106132345750505090565b8251845260209384019390920191600101613227565b90810160608282031261021357813591602081013567ffffffffffffffff81116102135781019082601f8301121561021357813591613288836128ef565b926132966040519485611d23565b80845260208085019160051b8301019185831161021357602001905b82821061339b5750505060408101359067ffffffffffffffff821161021357613381936132fe926132e39201611eeb565b936132ee81846131f3565b5115908115613387575b50613207565b6040516133218161331360208201809561321d565b03601f198101835282611d23565b5190209160208151910120916133136040519384926020840196876060919493926001600160a01b0360808301967ff519a60f511204e58bb5b531a9f542b2ed706bb768589316a8be873ab2cfeb09845216602083015260408201520152565b51902090565b6133929150836131f3565b5146145f6132f8565b81358152602091820191016132b2565b906133b461372b565b604093919351937fb03948446334eb9b2196d5eb166f69b9d49403eb4a12f36de8d3f9f3cb8e15c35f52602081519101206020526020815191012060405260605f206020526119015f526040526042601e20916040525f606052565b919091604051928051806040146134755760411461343a57505050505b638baa579f5f526004601cfd5b60209160608201515f1a835260408201516060525b5f5201516040526020600160805f825afa51915f6060526040523d61026e57505061342d565b506020917f7fffffffffffffffffffffffffffffffffffffffffffffffffffffffffffffff6040830151601b8160ff1c0185521660605261344f565b156134b857565b633ab3447f60e11b5f5260045ffd5b156134ce57565b63bf6b584360e01b5f5260045ffd5b6020916001600160a01b03916135aa6135cb9580613504610420611dbd611db78489611c58565b946135a56107bc613538613517886123f0565b60608c8a01359961352b6040820182611ffc565b92909101359a8b936143bc565b96613578613573610547610767845f527f0bb70095b32b9671358306b0339b4c06e7cbd8cb82505941fba30d1eb5b82f0760205260405f2090565b6134b1565b5f527f0bb70095b32b9671358306b0339b4c06e7cbd8cb82505941fba30d1eb5b82f0760205260405f2090565b611c66565b604051637aa8f17760e11b8152968795869490938593913060048601612d2c565b0392165afa80156104cc5761026e915f916135fa575b506001600160e01b031916630b135d3f60e11b146134c7565b613613915060203d602011611e3f57611e308183611d23565b5f6135e1565b916020611d5a93818152019161221c565b61368d9392916004810361369157505f516020615be85f395f51905f5280546001600160a01b03191690555b6136885a9261367a604051958692638a91b0e360e01b602085015260248401613619565b03601f198101855284611d23565b614476565b5050565b60088114808015613721575b6136a9575b5050613656565b156136e657507f0bb70095b32b9671358306b0339b4c06e7cbd8cb82505941fba30d1eb5b82f0680546001600160a01b03191690555b5f806136a2565b6009036136df577f0bb70095b32b9671358306b0339b4c06e7cbd8cb82505941fba30d1eb5b82f0580546001600160a01b03191690556136df565b506009821461369d565b604051613739604082611d23565b60058152644e6578757360d81b60208201529060405161375a604082611d23565b60058152640312e322e360dc1b602082015290565b9190916137f960405161378181611d02565b5f81525f602082015261379a6105ce612c2a8688611c83565b8151815460209093015174ff000000000000000000000000000000000000000060589190911c167fffffffffffffffffffffff0000000000000000000000000000000000000000009093166001600160a01b0390911617919091179055565b5a908260041161021357613688600461368d9501936003190161367a604051958692638a91b0e360e01b6020850152602060248501818152019161221c565b91909160408184031261021357803561385081610252565b92602082013567ffffffffffffffff811161021357611d5a9201611eeb565b90613885906001600160a01b0393810190613838565b92166001600160a01b038216801580156139da575b6139c7576001600160a01b036138ce835f516020615c085f395f51905f52906001600160a01b03165f5260205260405f2090565b5416036139ab57918161394f61368d9461393461390f610df761367a975f516020615c085f395f51905f52906001600160a01b03165f5260205260405f2090565b915f516020615c085f395f51905f52906001600160a01b03165f5260205260405f2090565b906001600160a01b03166001600160a01b0319825416179055565b61398a61397a825f516020615c085f395f51905f52906001600160a01b03165f5260205260405f2090565b6001600160a01b03198154169055565b6136885a92604051948591638a91b0e360e01b602084015260248301612262565b637c84ecfb60e01b5f526001600160a01b03821660045260245ffd5b50637c84ecfb60e01b5f5260045260245ffd5b506001811461389a565b906139fa906001600160a01b0393810190613838565b92166001600160a01b03821680158015613ad4575b6139c7576001600160a01b03613a43835f516020615bc85f395f51905f52906001600160a01b03165f5260205260405f2090565b5416036139ab579181613aa961368d94613934613a84610df761367a975f516020615bc85f395f51905f52906001600160a01b03165f5260205260405f2090565b915f516020615bc85f395f51905f52906001600160a01b03165f5260205260405f2090565b61398a61397a825f516020615bc85f395f51905f52906001600160a01b03165f5260205260405f2090565b5060018114613a0f565b613ae96105476131ab565b80613be9575b613af557565b60015f525f516020615bc85f395f51905f52602052613b337ffe44ceacbf4f03c6ac19f86826dd265fa9ec25125e8b1766c207f24cd3bc73c7610df7565b6001600160a01b03811680151580613bde575b15613bcd5760405163d60b347f60e01b815230600482015290602090829060249082905afa9081156104cc575f91613baf575b50613b8c57613b8790613d19565b613b33565b6001600160a01b036001915b1614613ba057565b63330c676160e21b5f5260045ffd5b613bc7915060203d8111612193576121858183611d23565b5f613b79565b506001600160a01b03600191613b98565b506001811415613b46565b5060405163d60b347f60e01b81523060048201526020816024817f00000000000000000000000000000000000000000000000000000000000000006001600160a01b03165afa9081156104cc575f91613c44575b5015613aef565b613c5d915060203d602011612193576121858183611d23565b5f613c3d565b613c93936001600160a01b0360209496939660405196879586948593637aa8f17760e11b85523360048601612d2c565b0392165afa9081156104cc575f91613cfa575b507fffff000000000000000000000000000000000000000000000000000000000000811661773960f01b1480613ce4575b613cdf575090565b905090565b506001600160e01b031982811690821611613cd7565b613d13915060203d602011611e3f57611e308183611d23565b5f613ca6565b6001600160a01b03168015613d4c575f525f516020615bc85f395f51905f526020526001600160a01b0360405f20541690565b637c84ecfb60e01b5f5260045260245ffd5b6001600160a01b031680600114159081613d76575090565b90505f525f516020615bc85f395f51905f526020526001600160a01b0360405f205416151590565b6001600160a01b031680600114159081613db6575090565b90505f525f516020615c085f395f51905f526020526001600160a01b0360405f205416151590565b60408051909190613def8382611d23565b6001815291601f1901825f5b828110613e0757505050565b806060602080938501015201613dfb565b90613e22826128ef565b613e2f6040519182611d23565b8281528092613e40601f19916128ef565b01905f5b828110613e5057505050565b806060602080938501015201613e44565b91611d5a9391613e799160408552604085019161221c565b916020818403910152610f29565b90613e9191614fe3565b916001600160f81b03198116613f0e5750613eab82613e18565b915f5b818110613ebb5750505090565b80613ef2613ecc6001938587615063565b8035613ed781610252565b613eea6020830135926040810190611ffc565b929091615184565b613efc82876131f3565b52613f0781866131f3565b5001613eae565b9291906001600160f81b03198416600160f81b03613f3157611d5a929350615085565b6308c3ee0360e11b5f9081526001600160f81b03198516600452602490fd5b90613f5d91939293615135565b919092613f68613dde565b956001600160f81b03198116613f9a575090613f849391615184565b613f8d836131e1565b52613f97826131e1565b50565b6001600160f81b03198116600160f81b036128d7575083613fbc92849261515d565b613fc5866131e1565b5215613fcf575050565b7fb5282692b8c578af7fb880895d599035496b5e64d1f14bf428a1ed3bc406f6629161255e6127a1866131e1565b9061400791614fe3565b90916001600160f81b0319811661406457505f5b81811061402757505050565b8061405e6140386001938587615063565b803561404381610252565b6140566020830135926040810190611ffc565b9290916151b1565b0161401b565b92916001600160f81b03198416600160f81b03613f3157613f97929350615085565b9061409091615135565b90939092906001600160f81b031916806140b057509061026e93916151b1565b600160f81b81036141055750836140c892849261515d565b9290156140d457505050565b61255e7fb5282692b8c578af7fb880895d599035496b5e64d1f14bf428a1ed3bc406f6629360405193849384613e61565b6308c3ee0360e11b5f5260045260245ffd5b903590601e1981360301821215610213570180359067ffffffffffffffff821161021357602001918160051b3603831361021357565b35611d5a81610598565b60405190614166602083611d23565b5f808352366020840137565b915f5b82811015614215578060051b84013590609e1985360301821215610213576141fd60019286016141bd6141ab6060830183614117565b6141b76040850161414d565b916151df565b6141c961077d836123f0565b15614203576141e96141f5916141de846123f0565b6020850135906158a1565b915b6080810190614117565b309291615277565b01614175565b506141f561420f614157565b916141eb565b50915050565b600803614250576001600160a01b037f0bb70095b32b9671358306b0339b4c06e7cbd8cb82505941fba30d1eb5b82f06541690565b6001600160a01b037f0bb70095b32b9671358306b0339b4c06e7cbd8cb82505941fba30d1eb5b82f05541690565b6001600160a01b036142c1819263ffffffff60e01b165f527f0bb70095b32b9671358306b0339b4c06e7cbd8cb82505941fba30d1eb5b82f0260205260405f2090565b541691161490565b93926142d791933691611eb5565b6020815191012090604051926001600160a01b0360208501957ff6c866c1cd985ce61f030431e576c0e82887de0643dfa8a2e6efc3463e638ed087521660408501526060840152608083015260a082015260a0815261338160c082611d23565b92602092916001600160a01b0361435061436e966153a4565b604051637aa8f17760e11b8152968795869485933060048601612d2c565b0392165afa5f918161439b575b5061438557505f90565b6001600160e01b031916630b135d3f60e11b1490565b6143b591925060203d602011611e3f57611e308183611d23565b905f61437b565b92611d5a9491926143ce913691611eb5565b60208151910120604051926001600160a01b0360208501957fd3ddfc12654178cc44d4a7b6b969cfdce7ffe6342326ba37825314cffa0fba9c87521660408501526060840152608083015260a082015260a0815261442d60c082611d23565b5190206153a4565b6001600160a01b0361026e91166001600160a01b03166001600160a01b03195f516020615be85f395f51905f525416175f516020615be85f395f51905f5255565b92915f919082918261448781611e99565b966144956040519889611d23565b818852601f196144a483611e99565b013660208a013760208451940192f13d806144c7575b8084525f602085013e9190565b505f6144ba565b906144d8826128ef565b6144e56040519182611d23565b82815280926144f6601f19916128ef565b0190602036910137565b5f198114611c285760010190565b5f19810191908211611c2857565b60015f525f516020615c085f395f51905f526020527fbdfeb076d903611fa58576955630d640569633049bcf40ad9c22db9251b54a13546001600160a01b03166146025760015f525f516020615c085f395f51905f5260205261458f60405f2060016001600160a01b0319825416179055565b60015f525f516020615bc85f395f51905f526020526001600160a01b037ffe44ceacbf4f03c6ac19f86826dd265fa9ec25125e8b1766c207f24cd3bc73c754166146025760015f525f516020615bc85f395f51905f5260205261026e60405f2060016001600160a01b0319825416179055565b6329e42f3360e11b5f5260045ffd5b91908110156131ee5760051b0190565b908210156131ee576102da9160051b810190611ffc565b915061465a908035810191602083019235916020810135019060208201913590565b929391808403614746575f5b81811061467557505050505050565b806146836001928489614611565b358281036146a757506146a161469a828887614621565b9087614e32565b01614666565b600281036146ca57506146c56146be828887614621565b9087614d32565b6146a1565b600381036146e857506146c56146e1828887614621565b9087614a62565b6004810361470657506146c56146ff828887614621565b908761490e565b8560088214801561473c575b61471e575b50506146a1565b6147359161472d848a89614621565b929091614755565b5f85614717565b5060098214614712565b63b4fa3fb360e01b5f5260045ffd5b9291906001600160a01b0361477e6001600160a01b035f516020615be85f395f51905f52541690565b168061478e575061026e93614853565b60405163d68f602560e01b815293909290915f85806147b23634336004850161223c565b038183885af19485156104cc575f9561480f575b506147d2939495614853565b803b1561021357604051630b9dfbed60e11b8152915f9183918290849082906147fe9060048301612262565b03925af180156104cc5761306e5750565b6147d2949550614828903d805f833e6109c58183611d23565b94936147c6565b156148375750565b6001600160a01b039063c689cd9760e01b5f521660045260245ffd5b60405163ecd0596160e01b8152600481018290526001600160a01b038316949290602081602481895afa9081156104cc575f916148ef575b50156148e057816148b16148a16148b69461421b565b6001600160a01b0381161561482f565b6154b6565b823b15610213576147fe925f92836040518096819582946306d61fe760e41b845260048401613619565b631c4f83bb60e31b5f5260045ffd5b614908915060203d602011612193576121858183611d23565b5f61488b565b91906001600160a01b036149366001600160a01b035f516020615be85f395f51905f52541690565b1680614946575061026e926149cc565b60405163d68f602560e01b81529290915f84806149683634336004850161223c565b038183875af19384156104cc575f94614988575b506147d29293946149cc565b6147d29394506149a1903d805f833e6109c58183611d23565b939261497c565b156149b05750565b6001600160a01b039063741cbe0360e01b5f521660045260245ffd5b60405163ecd0596160e01b81526004808201526001600160a01b038216939190602081602481885afa9081156104cc575f91614a43575b50156148e0576148b690614a3e614a2e6001600160a01b035f516020615be85f395f51905f52541690565b6001600160a01b038116156149a8565b614435565b614a5c915060203d602011612193576121858183611d23565b5f614a03565b91906001600160a01b03614a8a6001600160a01b035f516020615be85f395f51905f52541690565b1680614a9a575061026e92614b5a565b60405163d68f602560e01b81529290915f8480614abc3634336004850161223c565b038183875af19384156104cc575f94614adc575b506147d2929394614b5a565b6147d2939450614af5903d805f833e6109c58183611d23565b9392614ad0565b90600410156131ee5760040190565b15614b1257565b63867a1dcf60e01b5f5260045ffd5b15614b2857565b63c001660b60e01b5f5260045ffd5b15614b3f5750565b63a56a04dd60e01b5f5263ffffffff60e01b1660045260245ffd5b60405163ecd0596160e01b81526003600482015291926001600160a01b03821692909190602081602481875afa9081156104cc575f91614d13575b50156148e05761379a846105ce614c076104ff8680614be5614bd8614bca83614bc4612c2a614cb69e8c611c83565b99614afc565b356001600160f81b03191690565b6001600160f81b03191690565b9a6001600160f81b03198c16158015614cfc575b614c0290614b0b565b611c91565b96614c366001600160e01b031984166306d61fe760e41b8114908115614ceb575b8115614ce2575b5015614b21565b614c8b83614c86610547826001600160e01b0319165f9081527f0bb70095b32b9671358306b0339b4c06e7cbd8cb82505941fba30d1eb5b82f0260205260409020546001600160a01b0316151590565b614b37565b614ca5614c96611e8a565b6001600160a01b039096168652565b6001600160f81b0319166020850152565b803b15610213576040516306d61fe760e41b8152915f9183918290849082906147fe9060048301612262565b9050155f614c2f565b638a91b0e360e01b81149150614c28565b50607f60f91b6001600160f81b03198d1614614bf9565b614d2c915060203d602011612193576121858183611d23565b5f614b95565b91906001600160a01b03614d5a6001600160a01b035f516020615be85f395f51905f52541690565b1680614d6a575061026e92614dcc565b60405163d68f602560e01b81529290915f8480614d8c3634336004850161223c565b038183875af19384156104cc575f94614dac575b506147d2929394614dcc565b6147d2939450614dc5903d805f833e6109c58183611d23565b9392614da0565b60405163ecd0596160e01b8152600260048201526001600160a01b038216939190602081602481885afa9081156104cc575f91614e13575b50156148e0576148b690615597565b614e2c915060203d602011612193576121858183611d23565b5f614e04565b91906001600160a01b03614e5a6001600160a01b035f516020615be85f395f51905f52541690565b1680614e6a575061026e92614ecc565b60405163d68f602560e01b81529290915f8480614e8c3634336004850161223c565b038183875af19384156104cc575f94614eac575b506147d2929394614ecc565b6147d2939450614ec5903d805f833e6109c58183611d23565b9392614ea0565b60405163ecd0596160e01b8152600160048201526001600160a01b038216939190602081602481885afa9081156104cc575f91614f52575b50156148e0576001600160a01b037f0000000000000000000000000000000000000000000000000000000000000000168414614f43576148b6906156a2565b63abc3af7960e01b5f5260045ffd5b614f6b915060203d602011612193576121858183611d23565b5f614f04565b918160141161021357823560601c92601401916013190190565b5f9192806040519485378338925af4913d82523d5f602084013e60203d830101604052565b5f919392806040519586378438925af415614fda573d82523d5f602084013e60203d830101604052565b503d5f823e3d90fd5b909181359182810193601f199101016020840193803593828560051b8301119060401c176150565783615014575050565b835b5f190160208160051b8301013580830160608101908135809101918680602080860135809601011191111792171760401c17615056578061501657505050565b63ba597e7e5f526004601cfd5b91908110156131ee5760051b81013590605e1981360301821215610213570190565b91909161509183613e18565b925f5b8181106150a057505050565b806150ae6001928486615063565b8035906150ba82610252565b6150d9602082013560408301936150d18585611ffc565b92909161515d565b6150e3858b6131f3565b52156150f2575b505001615094565b7fb5282692b8c578af7fb880895d599035496b5e64d1f14bf428a1ed3bc406f6629161511d91611ffc565b9061512b6127a1858b6131f3565b0390a15f806150ea565b908060141161021357813560601c926034821061021357601483013592603401916033190190565b905f928491604051958692833738935af1913d82523d5f602084013e60203d830101604052565b90925f92819594604051968792833738935af115614fda573d82523d5f602084013e60203d830101604052565b8380935f93604051958692833738935af11561089a5701604052565b805191908290602001825e015f815290565b6040516001600160e01b031990931660208401526004835291615203602482611d23565b915f915b8083106152145750505090565b90919261524661524c60019261331361523661523189888a615063565b6157c2565b60405194859360208501906151cd565b906151cd565b93019190615207565b91908110156131ee5760051b81013590603e1981360301821215610213570190565b91905f5b818110615289575050505050565b615294818386615255565b908561529f836157b5565b6152a8816157a6565b6152da576152d4906152c08460206001960190611ffc565b506040810135908760208201359135615b0c565b0161527b565b509060016152e7826157b5565b6152f0816157a6565b0361536857806020615303920190611ffc565b50905f80615323604085013585016040519182826020829435910161245a565b039060208601355afa615334612467565b901561535957866153549184608060019601359160608201359135615b0c565b6152d4565b636e47f61960e01b5f5260045ffd5b631c42432f60e31b5f5260045ffd5b60405190602036830101604052816014360181525f602036920137604051601481016040523360601b9052565b7f00000000000000000000000000000000000000000000000000000000000000007f000000000000000000000000000000000000000000000000000000000000000030147f00000000000000000000000000000000000000000000000000000000000000004614161561542f575b6719010000000000005f52601a52603a526042601820905f603a52565b5060a06040517f8b73c3c69bb8fe3d512ecc4cf759cc79239f7b179b0ffacaa9a75d522b39400f81527f000000000000000000000000000000000000000000000000000000000000000060208201527f0000000000000000000000000000000000000000000000000000000000000000604082015246606082015230608082015220615412565b6008810361552657506001600160a01b0361026e91166001600160a01b03166001600160a01b03197f0bb70095b32b9671358306b0339b4c06e7cbd8cb82505941fba30d1eb5b82f065416177f0bb70095b32b9671358306b0339b4c06e7cbd8cb82505941fba30d1eb5b82f0655565b6009146155305750565b6001600160a01b0361026e91166001600160a01b03166001600160a01b03197f0bb70095b32b9671358306b0339b4c06e7cbd8cb82505941fba30d1eb5b82f055416177f0bb70095b32b9671358306b0339b4c06e7cbd8cb82505941fba30d1eb5b82f0555565b6001600160a01b03811680158015615698575b613d4c575f9081525f516020615c085f395f51905f5260205260409020546001600160a01b031661567d5760015f525f516020615c085f395f51905f5260205261026e9061564261561a7fbdfeb076d903611fa58576955630d640569633049bcf40ad9c22db9251b54a13610df7565b613934835f516020615c085f395f51905f52906001600160a01b03165f5260205260405f2090565b60015f525f516020615c085f395f51905f526020527fbdfeb076d903611fa58576955630d640569633049bcf40ad9c22db9251b54a13613934565b631034f46960e21b5f526001600160a01b031660045260245ffd5b50600181146155aa565b6001600160a01b03811680158015615788575b613d4c575f9081525f516020615bc85f395f51905f5260205260409020546001600160a01b031661567d5760015f525f516020615bc85f395f51905f5260205261026e9061574d6157257ffe44ceacbf4f03c6ac19f86826dd265fa9ec25125e8b1766c207f24cd3bc73c7610df7565b613934835f516020615bc85f395f51905f52906001600160a01b03165f5260205260405f2090565b60015f525f516020615bc85f395f51905f526020527ffe44ceacbf4f03c6ac19f86826dd265fa9ec25125e8b1766c207f24cd3bc73c7613934565b50600181146156b5565b634e487b7160e01b5f52602160045260245ffd5b600211156157b057565b615792565b3560028110156102135790565b6157cb816157b5565b6157d4816157a6565b615815576104ff816020611d5a9301906158106157f18383611ffc565b61580b6158016040860186614117565b9390923691611eb5565b6159c9565b611ffc565b6001615820826157b5565b615829816157a6565b03615892575f8061583d6020840184611ffc565b50604051806158578160208581013586018035910161245a565b0391355afa90615865612467565b91156158835761587c816040611d5a930190614117565b90836159c9565b636533cc8d60e01b5f5260045ffd5b639485795560e01b5f5260045ffd5b9291905f91604051943892602083519301915af115614fda573d82523d5f602084013e60203d830101604052565b60408136031261021357604051906158e682611d02565b8035600481101561021357825260208101359067ffffffffffffffff82116102135761591491369101611eeb565b602082015290565b600411156157b057565b9190826040910312610213576020825192015190565b1561594357565b630a31844b60e41b5f52600360045260245ffd5b1561595e57565b630a31844b60e41b5f52600260045260245ffd5b1561597957565b630a31844b60e41b5f52600160045260245ffd5b1561599457565b630a31844b60e41b5f525f60045260245ffd5b6020815191015190602081106159bb575090565b5f199060200360031b1b1690565b91806159d457505050565b5f5b8181106159e35750505050565b6159f66159f1828486615255565b6158cf565b9060208160051b86010151918051615a0d8161591c565b615a168161591c565b615a3957600192615a2d6020615a339301516159a7565b1461598d565b016159d6565b60018151615a468161591c565b615a4f8161591c565b03615a7357600192615a676020615a6e9301516159a7565b1115615972565b615a33565b60028151615a808161591c565b615a898161591c565b03615aa857600192615aa16020615a6e9301516159a7565b1015615957565b60038151615ab58161591c565b615abe8161591c565b03615afd57600192615ae06020615a6e93015160208082518301019101615926565b908210159182615af2575b505061593c565b111590505f80615aeb565b631628622f60e11b5f5260045ffd5b929193905f5b848110615b2157505050505050565b60208160051b83010151906001600160a01b038716916040516020810190615b5981613313868b869091604092825260208201520190565b519020833b156102135760405163a39e078760e01b8152600481019190915260248101919091526001600160a01b0385166044820152915f908390606490829084905af19182156104cc57600192615bb3575b5001615b12565b806109a65f615bc193611d23565b5f615bac56fe0bb70095b32b9671358306b0339b4c06e7cbd8cb82505941fba30d1eb5b82f000bb70095b32b9671358306b0339b4c06e7cbd8cb82505941fba30d1eb5b82f030bb70095b32b9671358306b0339b4c06e7cbd8cb82505941fba30d1eb5b82f01a164736f6c634300081b000a","linkReferences":{}},"methodIdentifiers":{"accountId()":"9cfd7cff","addDeposit()":"4a58db19","checkERC7739Support(bytes32,bytes)":"b46b61a9","eip712Domain()":"84b0196e","emergencyUninstallHook((address,uint256,bytes,uint256),bytes)":"5bfeadbb","entryPoint()":"b0d691fe","execute(bytes32,bytes)":"e9ae5c53","executeComposable((address,uint256,bytes4,(uint8,bytes,(uint8,bytes)[])[],(uint8,bytes)[])[])":"ea5a6d91","executeFromExecutor(bytes32,bytes)":"d691c964","executeUserOp((address,uint256,bytes,bytes,bytes32,uint256,bytes32,bytes,bytes),bytes32)":"8dd7712f","getActiveHook()":"0a664dba","getDeposit()":"c399ec88","getExecutorsPaginated(address,uint256)":"ea5f61d0","getFallbackHandlerBySelector(bytes4)":"481ddd23","getImplementation()":"aaf10f42","getRegistry()":"5ab1bd53","getValidatorsPaginated(address,uint256)":"5faac46b","initializeAccount(bytes)":"4b6a1419","installModule(uint256,address,bytes)":"9517e29f","isInitialized()":"392e53cd","isModuleInstalled(uint256,address,bytes)":"112d3a7d","isValidSignature(bytes32,bytes)":"1626ba7e","nonce(uint192)":"d86f2b3c","proxiableUUID()":"52d1902d","setRegistry(address,address[],uint8)":"eab77e17","supportsExecutionMode(bytes32)":"d03c7914","supportsModule(uint256)":"f2dc691d","uninstallModule(uint256,address,bytes)":"a71763a8","upgradeToAndCall(address,bytes)":"4f1ef286","validateUserOp((address,uint256,bytes,bytes,bytes32,uint256,bytes32,bytes,bytes),bytes32,uint256)":"19822f7c","withdrawDepositTo(address,uint256)":"4d44560d"},"id":0}