{"abi":[{"type":"constructor","inputs":[{"name":"anEntryPoint","type":"address","internalType":"address"},{"name":"defaultValidator","type":"address","internalType":"address"},{"name":"initData","type":"bytes","internalType":"bytes"}],"stateMutability":"nonpayable"},{"type":"fallback","stateMutability":"payable"},{"type":"receive","stateMutability":"payable"},{"type":"function","name":"accountId","inputs":[],"outputs":[{"name":"","type":"string","internalType":"string"}],"stateMutability":"pure"},{"type":"function","name":"addDeposit","inputs":[],"outputs":[],"stateMutability":"payable"},{"type":"function","name":"checkERC7739Support","inputs":[{"name":"hash","type":"bytes32","internalType":"bytes32"},{"name":"signature","type":"bytes","internalType":"bytes"}],"outputs":[{"name":"","type":"bytes4","internalType":"bytes4"}],"stateMutability":"view"},{"type":"function","name":"eip712Domain","inputs":[],"outputs":[{"name":"fields","type":"bytes1","internalType":"bytes1"},{"name":"name","type":"string","internalType":"string"},{"name":"version","type":"string","internalType":"string"},{"name":"chainId","type":"uint256","internalType":"uint256"},{"name":"verifyingContract","type":"address","internalType":"address"},{"name":"salt","type":"bytes32","internalType":"bytes32"},{"name":"extensions","type":"uint256[]","internalType":"uint256[]"}],"stateMutability":"view"},{"type":"function","name":"emergencyUninstallHook","inputs":[{"name":"data","type":"tuple","internalType":"struct EmergencyUninstall","components":[{"name":"hook","type":"address","internalType":"address"},{"name":"hookType","type":"uint256","internalType":"uint256"},{"name":"deInitData","type":"bytes","internalType":"bytes"},{"name":"nonce","type":"uint256","internalType":"uint256"}]},{"name":"signature","type":"bytes","internalType":"bytes"}],"outputs":[],"stateMutability":"payable"},{"type":"function","name":"entryPoint","inputs":[],"outputs":[{"name":"","type":"address","internalType":"address"}],"stateMutability":"view"},{"type":"function","name":"execute","inputs":[{"name":"mode","type":"bytes32","internalType":"ExecutionMode"},{"name":"executionCalldata","type":"bytes","internalType":"bytes"}],"outputs":[],"stateMutability":"payable"},{"type":"function","name":"executeComposable","inputs":[{"name":"executions","type":"tuple[]","internalType":"struct ComposableExecution[]","components":[{"name":"to","type":"address","internalType":"address"},{"name":"value","type":"uint256","internalType":"uint256"},{"name":"functionSig","type":"bytes4","internalType":"bytes4"},{"name":"inputParams","type":"tuple[]","internalType":"struct InputParam[]","components":[{"name":"fetcherType","type":"uint8","internalType":"enum InputParamFetcherType"},{"name":"paramData","type":"bytes","internalType":"bytes"},{"name":"constraints","type":"tuple[]","internalType":"struct Constraint[]","components":[{"name":"constraintType","type":"uint8","internalType":"enum ConstraintType"},{"name":"referenceData","type":"bytes","internalType":"bytes"}]}]},{"name":"outputParams","type":"tuple[]","internalType":"struct OutputParam[]","components":[{"name":"fetcherType","type":"uint8","internalType":"enum OutputParamFetcherType"},{"name":"paramData","type":"bytes","internalType":"bytes"}]}]}],"outputs":[],"stateMutability":"payable"},{"type":"function","name":"executeFromExecutor","inputs":[{"name":"mode","type":"bytes32","internalType":"ExecutionMode"},{"name":"executionCalldata","type":"bytes","internalType":"bytes"}],"outputs":[{"name":"returnData","type":"bytes[]","internalType":"bytes[]"}],"stateMutability":"payable"},{"type":"function","name":"executeUserOp","inputs":[{"name":"userOp","type":"tuple","internalType":"struct PackedUserOperation","components":[{"name":"sender","type":"address","internalType":"address"},{"name":"nonce","type":"uint256","internalType":"uint256"},{"name":"initCode","type":"bytes","internalType":"bytes"},{"name":"callData","type":"bytes","internalType":"bytes"},{"name":"accountGasLimits","type":"bytes32","internalType":"bytes32"},{"name":"preVerificationGas","type":"uint256","internalType":"uint256"},{"name":"gasFees","type":"bytes32","internalType":"bytes32"},{"name":"paymasterAndData","type":"bytes","internalType":"bytes"},{"name":"signature","type":"bytes","internalType":"bytes"}]},{"name":"","type":"bytes32","internalType":"bytes32"}],"outputs":[],"stateMutability":"payable"},{"type":"function","name":"getActiveHook","inputs":[],"outputs":[{"name":"hook","type":"address","internalType":"address"}],"stateMutability":"view"},{"type":"function","name":"getDeposit","inputs":[],"outputs":[{"name":"result","type":"uint256","internalType":"uint256"}],"stateMutability":"view"},{"type":"function","name":"getExecutorsPaginated","inputs":[{"name":"cursor","type":"address","internalType":"address"},{"name":"size","type":"uint256","internalType":"uint256"}],"outputs":[{"name":"array","type":"address[]","internalType":"address[]"},{"name":"next","type":"address","internalType":"address"}],"stateMutability":"view"},{"type":"function","name":"getFallbackHandlerBySelector","inputs":[{"name":"selector","type":"bytes4","internalType":"bytes4"}],"outputs":[{"name":"","type":"bytes1","internalType":"CallType"},{"name":"","type":"address","internalType":"address"}],"stateMutability":"view"},{"type":"function","name":"getImplementation","inputs":[],"outputs":[{"name":"implementation","type":"address","internalType":"address"}],"stateMutability":"view"},{"type":"function","name":"getRegistry","inputs":[],"outputs":[{"name":"","type":"address","internalType":"contract IERC7484"}],"stateMutability":"view"},{"type":"function","name":"getValidatorsPaginated","inputs":[{"name":"cursor","type":"address","internalType":"address"},{"name":"size","type":"uint256","internalType":"uint256"}],"outputs":[{"name":"array","type":"address[]","internalType":"address[]"},{"name":"next","type":"address","internalType":"address"}],"stateMutability":"view"},{"type":"function","name":"initializeAccount","inputs":[{"name":"initData","type":"bytes","internalType":"bytes"}],"outputs":[],"stateMutability":"payable"},{"type":"function","name":"installModule","inputs":[{"name":"moduleTypeId","type":"uint256","internalType":"uint256"},{"name":"module","type":"address","internalType":"address"},{"name":"initData","type":"bytes","internalType":"bytes"}],"outputs":[],"stateMutability":"payable"},{"type":"function","name":"isInitialized","inputs":[],"outputs":[{"name":"","type":"bool","internalType":"bool"}],"stateMutability":"view"},{"type":"function","name":"isModuleInstalled","inputs":[{"name":"moduleTypeId","type":"uint256","internalType":"uint256"},{"name":"module","type":"address","internalType":"address"},{"name":"additionalContext","type":"bytes","internalType":"bytes"}],"outputs":[{"name":"","type":"bool","internalType":"bool"}],"stateMutability":"view"},{"type":"function","name":"isValidSignature","inputs":[{"name":"hash","type":"bytes32","internalType":"bytes32"},{"name":"signature","type":"bytes","internalType":"bytes"}],"outputs":[{"name":"","type":"bytes4","internalType":"bytes4"}],"stateMutability":"view"},{"type":"function","name":"nonce","inputs":[{"name":"key","type":"uint192","internalType":"uint192"}],"outputs":[{"name":"","type":"uint256","internalType":"uint256"}],"stateMutability":"view"},{"type":"function","name":"proxiableUUID","inputs":[],"outputs":[{"name":"","type":"bytes32","internalType":"bytes32"}],"stateMutability":"view"},{"type":"function","name":"setRegistry","inputs":[{"name":"newRegistry","type":"address","internalType":"contract IERC7484"},{"name":"attesters","type":"address[]","internalType":"address[]"},{"name":"threshold","type":"uint8","internalType":"uint8"}],"outputs":[],"stateMutability":"payable"},{"type":"function","name":"supportsExecutionMode","inputs":[{"name":"mode","type":"bytes32","internalType":"ExecutionMode"}],"outputs":[{"name":"isSupported","type":"bool","internalType":"bool"}],"stateMutability":"view"},{"type":"function","name":"supportsModule","inputs":[{"name":"moduleTypeId","type":"uint256","internalType":"uint256"}],"outputs":[{"name":"","type":"bool","internalType":"bool"}],"stateMutability":"view"},{"type":"function","name":"uninstallModule","inputs":[{"name":"moduleTypeId","type":"uint256","internalType":"uint256"},{"name":"module","type":"address","internalType":"address"},{"name":"deInitData","type":"bytes","internalType":"bytes"}],"outputs":[],"stateMutability":"payable"},{"type":"function","name":"upgradeToAndCall","inputs":[{"name":"newImplementation","type":"address","internalType":"address"},{"name":"data","type":"bytes","internalType":"bytes"}],"outputs":[],"stateMutability":"payable"},{"type":"function","name":"validateUserOp","inputs":[{"name":"op","type":"tuple","internalType":"struct PackedUserOperation","components":[{"name":"sender","type":"address","internalType":"address"},{"name":"nonce","type":"uint256","internalType":"uint256"},{"name":"initCode","type":"bytes","internalType":"bytes"},{"name":"callData","type":"bytes","internalType":"bytes"},{"name":"accountGasLimits","type":"bytes32","internalType":"bytes32"},{"name":"preVerificationGas","type":"uint256","internalType":"uint256"},{"name":"gasFees","type":"bytes32","internalType":"bytes32"},{"name":"paymasterAndData","type":"bytes","internalType":"bytes"},{"name":"signature","type":"bytes","internalType":"bytes"}]},{"name":"userOpHash","type":"bytes32","internalType":"bytes32"},{"name":"missingAccountFunds","type":"uint256","internalType":"uint256"}],"outputs":[{"name":"validationData","type":"uint256","internalType":"uint256"}],"stateMutability":"nonpayable"},{"type":"function","name":"withdrawDepositTo","inputs":[{"name":"to","type":"address","internalType":"address"},{"name":"amount","type":"uint256","internalType":"uint256"}],"outputs":[],"stateMutability":"payable"},{"type":"event","name":"ERC7484RegistryConfigured","inputs":[{"name":"registry","type":"address","indexed":true,"internalType":"contract IERC7484"}],"anonymous":false},{"type":"event","name":"EmergencyHookUninstallRequest","inputs":[{"name":"hook","type":"address","indexed":false,"internalType":"address"},{"name":"timestamp","type":"uint256","indexed":false,"internalType":"uint256"}],"anonymous":false},{"type":"event","name":"EmergencyHookUninstallRequestReset","inputs":[{"name":"hook","type":"address","indexed":false,"internalType":"address"},{"name":"timestamp","type":"uint256","indexed":false,"internalType":"uint256"}],"anonymous":false},{"type":"event","name":"ModuleInstalled","inputs":[{"name":"moduleTypeId","type":"uint256","indexed":false,"internalType":"uint256"},{"name":"module","type":"address","indexed":false,"internalType":"address"}],"anonymous":false},{"type":"event","name":"ModuleUninstalled","inputs":[{"name":"moduleTypeId","type":"uint256","indexed":false,"internalType":"uint256"},{"name":"module","type":"address","indexed":false,"internalType":"address"}],"anonymous":false},{"type":"event","name":"PREPInitialized","inputs":[{"name":"r","type":"bytes32","indexed":false,"internalType":"bytes32"}],"anonymous":false},{"type":"event","name":"TryDelegateCallUnsuccessful","inputs":[{"name":"callData","type":"bytes","indexed":false,"internalType":"bytes"},{"name":"result","type":"bytes","indexed":false,"internalType":"bytes"}],"anonymous":false},{"type":"event","name":"TryExecuteUnsuccessful","inputs":[{"name":"callData","type":"bytes","indexed":false,"internalType":"bytes"},{"name":"result","type":"bytes","indexed":false,"internalType":"bytes"}],"anonymous":false},{"type":"event","name":"Upgraded","inputs":[{"name":"implementation","type":"address","indexed":true,"internalType":"address"}],"anonymous":false},{"type":"error","name":"AccountAccessUnauthorized","inputs":[]},{"type":"error","name":"AccountAlreadyInitialized","inputs":[]},{"type":"error","name":"AccountNotInitialized","inputs":[]},{"type":"error","name":"CanNotRemoveLastValidator","inputs":[]},{"type":"error","name":"ComposableExecutionFailed","inputs":[]},{"type":"error","name":"ConstraintNotMet","inputs":[{"name":"constraintType","type":"uint8","internalType":"enum ConstraintType"}]},{"type":"error","name":"DefaultValidatorAlreadyInstalled","inputs":[]},{"type":"error","name":"ERC7702AccountCannotBeUpgradedThisWay","inputs":[]},{"type":"error","name":"EmergencyTimeLockNotExpired","inputs":[]},{"type":"error","name":"EmergencyUninstallSigError","inputs":[]},{"type":"error","name":"EnableModeSigError","inputs":[]},{"type":"error","name":"EntryPointCanNotBeZero","inputs":[]},{"type":"error","name":"ExecutionFailed","inputs":[]},{"type":"error","name":"FallbackAlreadyInstalledForSelector","inputs":[{"name":"selector","type":"bytes4","internalType":"bytes4"}]},{"type":"error","name":"FallbackCallTypeInvalid","inputs":[]},{"type":"error","name":"FallbackHandlerUninstallFailed","inputs":[]},{"type":"error","name":"FallbackNotInstalledForSelector","inputs":[{"name":"selector","type":"bytes4","internalType":"bytes4"}]},{"type":"error","name":"FallbackSelectorForbidden","inputs":[]},{"type":"error","name":"HookAlreadyInstalled","inputs":[{"name":"currentHook","type":"address","internalType":"address"}]},{"type":"error","name":"HookPostCheckFailed","inputs":[]},{"type":"error","name":"ImplementationIsNotAContract","inputs":[]},{"type":"error","name":"InnerCallFailed","inputs":[]},{"type":"error","name":"InvalidConstraintType","inputs":[]},{"type":"error","name":"InvalidImplementationAddress","inputs":[]},{"type":"error","name":"InvalidInitData","inputs":[]},{"type":"error","name":"InvalidInput","inputs":[]},{"type":"error","name":"InvalidModule","inputs":[{"name":"module","type":"address","internalType":"address"}]},{"type":"error","name":"InvalidModuleTypeId","inputs":[{"name":"moduleTypeId","type":"uint256","internalType":"uint256"}]},{"type":"error","name":"InvalidNonce","inputs":[]},{"type":"error","name":"InvalidOutputParamFetcherType","inputs":[]},{"type":"error","name":"InvalidPREP","inputs":[]},{"type":"error","name":"InvalidParameterEncoding","inputs":[]},{"type":"error","name":"InvalidSignature","inputs":[]},{"type":"error","name":"LinkedList_AlreadyInitialized","inputs":[]},{"type":"error","name":"LinkedList_EntryAlreadyInList","inputs":[{"name":"entry","type":"address","internalType":"address"}]},{"type":"error","name":"LinkedList_InvalidEntry","inputs":[{"name":"entry","type":"address","internalType":"address"}]},{"type":"error","name":"LinkedList_InvalidPage","inputs":[]},{"type":"error","name":"MismatchModuleTypeId","inputs":[]},{"type":"error","name":"MissingFallbackHandler","inputs":[{"name":"selector","type":"bytes4","internalType":"bytes4"}]},{"type":"error","name":"ModuleAddressCanNotBeZero","inputs":[]},{"type":"error","name":"ModuleAlreadyInstalled","inputs":[{"name":"moduleTypeId","type":"uint256","internalType":"uint256"},{"name":"module","type":"address","internalType":"address"}]},{"type":"error","name":"ModuleNotInstalled","inputs":[{"name":"moduleTypeId","type":"uint256","internalType":"uint256"},{"name":"module","type":"address","internalType":"address"}]},{"type":"error","name":"NexusInitializationFailed","inputs":[]},{"type":"error","name":"NoValidatorInstalled","inputs":[]},{"type":"error","name":"Output_StaticCallFailed","inputs":[]},{"type":"error","name":"PrevalidationHookAlreadyInstalled","inputs":[{"name":"currentPreValidationHook","type":"address","internalType":"address"}]},{"type":"error","name":"UnauthorizedCallContext","inputs":[]},{"type":"error","name":"UnauthorizedOperation","inputs":[{"name":"operator","type":"address","internalType":"address"}]},{"type":"error","name":"UnsupportedCallType","inputs":[{"name":"callType","type":"bytes1","internalType":"CallType"}]},{"type":"error","name":"UnsupportedChain","inputs":[]},{"type":"error","name":"UnsupportedExecType","inputs":[{"name":"execType","type":"bytes1","internalType":"ExecType"}]},{"type":"error","name":"UnsupportedModuleType","inputs":[{"name":"moduleTypeId","type":"uint256","internalType":"uint256"}]},{"type":"error","name":"UpgradeFailed","inputs":[]},{"type":"error","name":"ValidatorNotInstalled","inputs":[{"name":"module","type":"address","internalType":"address"}]}],"bytecode":{"object":"0x6101a06040523061016052348015610015575f5ffd5b5060405161794e38038061794e8339810160408190526100349161023b565b3060a0524660c052818160608061007f6040805180820182526005808252644e6578757360d81b6020808401919091528351808501909452908352640312e322e360dc1b9083015291565b815160209283012081519183019190912060e0829052610100819052604080517f8b73c3c69bb8fe3d512ecc4cf759cc79239f7b179b0ffacaa9a75d522b39400f8152808501939093528281019190915246606083015230608083015260a090912061012052805163ecd0596160e01b81526001600482015290516001600160a01b038716945063ecd059619350602480830193928290030181865afa15801561012b573d5f5f3e3d5ffd5b505050506040513d601f19601f8201168201806040525081019061014f919061030c565b61016c57604051631c4f83bb60e31b815260040160405180910390fd5b6040516306d61fe760e41b81526001600160a01b03831690636d61fe7090610198908490600401610332565b5f604051808303815f87803b1580156101af575f5ffd5b505af11580156101c1573d5f5f3e3d5ffd5b5050506001600160a01b0392831661014052505083166101f4576040516307e355bf60e31b815260040160405180910390fd5b50506001600160a01b03166080523061018052610367565b80516001600160a01b0381168114610222575f5ffd5b919050565b634e487b7160e01b5f52604160045260245ffd5b5f5f5f6060848603121561024d575f5ffd5b6102568461020c565b92506102646020850161020c565b60408501519092506001600160401b0381111561027f575f5ffd5b8401601f8101861361028f575f5ffd5b80516001600160401b038111156102a8576102a8610227565b604051601f8201601f19908116603f011681016001600160401b03811182821017156102d6576102d6610227565b6040528181528282016020018810156102ed575f5ffd5b8160208401602083015e5f602083830101528093505050509250925092565b5f6020828403121561031c575f5ffd5b8151801515811461032b575f5ffd5b9392505050565b602081525f82518060208401528060208501604085015e5f604082850101526040601f19601f83011684010191505092915050565b60805160a05160c05160e051610100516101205161014051610160516101805161750461044a5f395f610dc101525f8181612cec0152613dd401525f8181610cb601528181611b89015281816124cc015281816130ee01528181614255015261442101525f615c5e01525f615d1801525f615cf201525f615ca201525f615c7f01525f818161051701528181610a7d01528181610d3701528181610ed801528181610f2301528181611444015281816116db0152818161178101528181611be001528181611f1b01528181611f9d015281816121840152613e0b01526175045ff3fe6080604052600436106101db575f3560e01c80638dd7712f11610101578063d03c791411610094578063ea5a6d9111610063578063ea5a6d91146105df578063ea5f61d0146105f2578063eab77e1714610611578063f2dc691d14610624576101e2565b8063d03c79141461056e578063d691c9641461058d578063d86f2b3c146105ad578063e9ae5c53146105cc576101e2565b8063aaf10f42116100d0578063aaf10f42146104f5578063b0d691fe14610509578063b46b61a91461053b578063c399ec881461055a576101e2565b80638dd7712f146104715780639517e29f146104845780639cfd7cff14610497578063a71763a8146104e2576101e2565b80634b6a1419116101795780635ab1bd53116101485780635ab1bd53146103ce5780635bfeadbb1461040a5780635faac46b1461041d57806384b0196e1461044a576101e2565b80634b6a1419146103815780634d44560d146103945780634f1ef286146103a757806352d1902d146103ba576101e2565b806319822f7c116101b557806319822f7c14610286578063392e53cd146102b3578063481ddd23146102c75780634a58db1914610379576101e2565b80630a664dba146101ee578063112d3a7d1461021f5780631626ba7e1461024e576101e2565b366101e257005b6101ec5f36610643565b005b3480156101f9575f5ffd5b50610202610926565b6040516001600160a01b0390911681526020015b60405180910390f35b34801561022a575f5ffd5b5061023e610239366004616600565b61094a565b6040519015158152602001610216565b348015610259575f5ffd5b5061026d610268366004616658565b610962565b6040516001600160e01b03199091168152602001610216565b348015610291575f5ffd5b506102a56102a03660046166b7565b610a70565b604051908152602001610216565b3480156102be575f5ffd5b5061023e610c9f565b3480156102d2575f5ffd5b506103516102e1366004616716565b6001600160e01b0319165f9081527f0bb70095b32b9671358306b0339b4c06e7cbd8cb82505941fba30d1eb5b82f0260209081526040918290208251808401909352546001600160a01b038116808452600160a01b90910460f81b6001600160f81b031916929091018290529091565b604080516001600160f81b031990931683526001600160a01b03909116602083015201610216565b6101ec610d35565b6101ec61038f366004616731565b610d69565b6101ec6103a2366004616764565b610ecd565b6101ec6103b536600461678e565b610f82565b3480156103c5575f5ffd5b506102a561113f565b3480156103d9575f5ffd5b507f0bb70095b32b9671358306b0339b4c06e7cbd8cb82505941fba30d1eb5b82f08546001600160a01b0316610202565b6101ec6104183660046167c6565b61116e565b348015610428575f5ffd5b5061043c610437366004616764565b6113b7565b6040516102169291906167ff565b348015610455575f5ffd5b5061045e6113dd565b604051610216979695949392919061688c565b6101ec61047f366004616922565b611439565b6101ec610492366004616600565b6116d0565b3480156104a2575f5ffd5b50604080518082018252601481527f6269636f6e6f6d792e6e657875732e312e322e30000000000000000000000000602082015290516102169190616964565b6101ec6104f0366004616600565b611776565b348015610500575f5ffd5b50610202611abd565b348015610514575f5ffd5b507f0000000000000000000000000000000000000000000000000000000000000000610202565b348015610546575f5ffd5b5061026d610555366004616658565b611af3565b348015610565575f5ffd5b506102a5611bdc565b348015610579575f5ffd5b5061023e610588366004616976565b611c25565b6105a061059b366004616658565b611c93565b604051610216919061698d565b3480156105b8575f5ffd5b506102a56105c73660046169f0565b611ee4565b6101ec6105da366004616658565b611f92565b6101ec6105ed366004616a68565b612179565b3480156105fd575f5ffd5b5061043c61060c366004616764565b6122a9565b6101ec61061f366004616a9b565b6122d7565b34801561062f575f5ffd5b5061023e61063e366004616976565b612335565b5f80356001600160e01b03191681527f0bb70095b32b9671358306b0339b4c06e7cbd8cb82505941fba30d1eb5b82f02602052604081208054606091906001600160a01b03811690600160a01b900460f81b81156108d5575f6106ba5f5160206174d85f395f51905f52546001600160a01b031690565b905060606001600160a01b038216156107445760405163d68f602560e01b81526001600160a01b0383169063d68f6025906106ff90339034905f903690600401616b2c565b5f604051808303815f875af115801561071a573d5f5f3e3d5ffd5b505050506040513d5f823e601f3d908101601f191682016040526107419190810190616c3c565b90505b6001600160f81b03198316607f60f91b036107c257836001600160a01b031661076d8a8a61238e565b60405161077a9190616c85565b5f60405180830381855afa9150503d805f81146107b2576040519150601f19603f3d011682016040523d82523d5f602084013e6107b7565b606091505b509097509550610857565b6001600160f81b0319831661082d57836001600160a01b0316346107e68b8b61238e565b6040516107f39190616c85565b5f6040518083038185875af1925050503d805f81146107b2576040519150601f19603f3d011682016040523d82523d5f602084013e6107b7565b604051632e5bf3f960e21b81526001600160f81b0319841660048201526024015b60405180910390fd5b8661086457855160208701fd5b6001600160a01b038216156108cd57604051630b9dfbed60e11b81526001600160a01b0383169063173bf7da9061089f908490600401616964565b5f604051808303815f87803b1580156108b6575f5ffd5b505af11580156108c8573d5f5f3e3d5ffd5b505050505b855160208701f35b5f3560e01c63150b7a02811463f23a6e61821463bc197c81831417171561090057806020526020603cf35b6040516308c63e2760e01b81526001600160e01b03195f3516600482015260240161084e565b5f6109455f5160206174d85f395f51905f52546001600160a01b031690565b905090565b5f610957858585856123c3565b90505b949350505050565b5f81810361099b5761097761ffff8319616ca4565b61098390617739616cc3565b840361099b57610994848484611af3565b9050610a69565b5f6109bd6109ac6014838688616cda565b6109b591616d01565b60601c6124ba565b905060606109d7866109d2866014818a616cda565b612530565b604051637aa8f17760e11b815291975091506001600160a01b0383169063f551e2ee90610a0c9033908a908690600401616d41565b602060405180830381865afa925050508015610a45575060408051601f3d908101601f19168201909252610a4291810190616d68565b60015b610a5c57506001600160e01b03199150610a699050565b9250610a69915050565b50505b9392505050565b5f81336001600160a01b037f00000000000000000000000000000000000000000000000000000000000000001614610abb57604051635629665f60e11b815260040160405180910390fd5b5f80610ac687616dd0565b9050602087013560031a60f81b15610be657600160f81b602088013560031a60f81b03610b4257610b0486610aff6101008a018a616ed0565b612616565b8080601f0160208091040260200160405190810160405280939291908181526020018383808284375f92019190915250505050610100820152610be6565b600160f91b602088013560031a60f81b03610be657610b5f610c9f565b15610b7d5760405163ae4edb1b60e01b815260040160405180910390fd5b365f610b95610b906101008b018b616ed0565b6126fa565b83838080601f0160208091040260200160405190810160405280939291908181526020018383808284375f920191909152505050506101008801529094509250610be39150839050826127bd565b50505b610bff602088013560401c6001600160a01b03166124ba565b9150610c0c8682876128a6565b610100830152604051639700320360e01b81529096506001600160a01b03831690639700320390610c439084908a90600401616fb3565b6020604051808303815f875af1158015610c5f573d5f5f3e3d5ffd5b505050506040513d601f19601f82011682018060405250810190610c839190616fd4565b935050508015610c97575f385f3884335af1505b509392505050565b60405163d60b347f60e01b81523060048201525f907f00000000000000000000000000000000000000000000000000000000000000006001600160a01b03169063d60b347f90602401602060405180830381865afa158015610d03573d5f5f3e3d5ffd5b505050506040513d601f19601f82011682018060405250810190610d279190616feb565b80610945575061094561291f565b7f00000000000000000000000000000000000000000000000000000000000000005f38818134855af1610d66575f38fd5b50565b333014610ebf57610d7861298f565b15610eb757365f610d8c6041828587616cda565b915091505f610da55f5160206174b85f395f51905f5290565b9050610db48460418188616cda565b90955093505f610de586867f00000000000000000000000000000000000000000000000000000000000000006129ae565b9050610df081612abb565b5f81815260098401602052604090205490915060ff1615610e245760405163ae4edb1b60e01b815260040160405180910390fd5b306001600160a01b0316610e6d8286868080601f0160208091040260200160405190810160405280939291908181526020018383808284375f92019190915250612b6192505050565b6001600160a01b031614610e9457604051638baa579f60e01b815260040160405180910390fd5b5f908152600990910160205260409020805460ff1916600117905550610ebf9050565b610ebf612c06565b610ec982826127bd565b5050565b336001600160a01b037f0000000000000000000000000000000000000000000000000000000000000000161480610f0357503330145b610f2057604051635629665f60e11b815260040160405180910390fd5b5f7f0000000000000000000000000000000000000000000000000000000000000000905060405183601452826034526f205c28780000000000000000000000005f525f38604460105f865af1610f78573d5f823e3d81fd5b505f603452505050565b5f610fa15f5160206174d85f395f51905f52546001600160a01b031690565b90506001600160a01b03811661100e576001600160a01b038416610fd85760405163325c055b60e21b815260040160405180910390fd5b833b151580610ffa5760405163325c055b60e21b815260040160405180910390fd5b843055611008858585612c3b565b50611139565b60405163d68f602560e01b81525f906001600160a01b0383169063d68f602590611042903390349086903690600401616b2c565b5f604051808303815f875af115801561105d573d5f5f3e3d5ffd5b505050506040513d5f823e601f3d908101601f191682016040526110849190810190616c3c565b90506001600160a01b0385166110ad5760405163325c055b60e21b815260040160405180910390fd5b843b1515806110cf5760405163325c055b60e21b815260040160405180910390fd5b8530556110dd868686612c3b565b50604051630b9dfbed60e11b81526001600160a01b0383169063173bf7da9061110a908490600401616964565b5f604051808303815f87803b158015611121575f5ffd5b505af1158015611133573d5f5f3e3d5ffd5b50505050505b50505050565b5f611148612ce9565b507f360894a13ba1a3210667c828492db98dca3e2076cc3735a920a3ca505d382bbc5b90565b611179838383612d1a565b5f8036816020870180359061118e908961700a565b61119b60408a018a616ed0565b935093509350935060048414806111b25750600884145b806111bd5750600984145b84906111df5760405163041c38b360e41b815260040161084e91815260200190565b506111ec848484846123c3565b8484909161121f57604051635f300b3960e11b815260048101929092526001600160a01b0316602482015260440161084e565b50505f6112365f5160206174b85f395f51905f5290565b6001600160a01b0385165f9081526004820160205260408120549192508190036112b6576001600160a01b0385165f81815260048401602090815260409182902042908190558251938452908301527f2841d18703faaff388732165e48fe431468531b1b1e626b1b7cbcbfc0d79c74091015b60405180910390a1611133565b6112c4620151806003616cc3565b6112ce9082617025565b4210611327576001600160a01b0385165f81815260048401602090815260409182902042908190558251938452908301527fcbd44a75f6935b5837022648b6c8487db984701200c5381c7c0f8c2b1d69b9da91016112a9565b6113346201518082617025565b421061139e576001600160a01b0385165f90815260048301602052604081205561136085878686612e98565b604080518781526001600160a01b03871660208201527f341347516a9de374859dfda710fa4828b2d48cb57d4fbe4c1149612b8e02276e91016112a9565b6040516303f9796960e11b815260040160405180910390fd5b60605f6113d25f5160206174b85f395f51905f528585612f47565b909590945092505050565b600f60f81b6060805f8080836114276040805180820182526005808252644e6578757360d81b6020808401919091528351808501909452908352640312e322e360dc1b9083015291565b97989097965046955030945091925090565b336001600160a01b037f0000000000000000000000000000000000000000000000000000000000000000161461148257604051635629665f60e11b815260040160405180910390fd5b5f6114a15f5160206174d85f395f51905f52546001600160a01b031690565b90506001600160a01b03811661155757365f6114c06060860186616ed0565b6114ce916004908290616cda565b915091505f5f306001600160a01b031684846040516114ee929190617038565b5f60405180830381855af49150503d805f8114611526576040519150601f19603f3d011682016040523d82523d5f602084013e61152b565b606091505b50915091508161154e57604051632b3f6d1160e21b815260040160405180910390fd5b50505050505050565b60405163d68f602560e01b81525f906001600160a01b0383169063d68f60259061158b903390349086903690600401616b2c565b5f604051808303815f875af11580156115a6573d5f5f3e3d5ffd5b505050506040513d5f823e601f3d908101601f191682016040526115cd9190810190616c3c565b9050365f6115de6060870187616ed0565b6115ec916004908290616cda565b915091505f5f306001600160a01b0316848460405161160c929190617038565b5f60405180830381855af49150503d805f8114611644576040519150601f19603f3d011682016040523d82523d5f602084013e611649565b606091505b50915091508161166c57604051632b3f6d1160e21b815260040160405180910390fd5b5050604051630b9dfbed60e11b81526001600160a01b038516925063173bf7da915061169c908490600401616964565b5f604051808303815f87803b1580156116b3575f5ffd5b505af11580156116c5573d5f5f3e3d5ffd5b50505050505b505050565b336001600160a01b037f000000000000000000000000000000000000000000000000000000000000000016148061170657503330145b61172357604051635629665f60e11b815260040160405180910390fd5b61172f84848484612f61565b604080518581526001600160a01b03851660208201527fd21d0b289f126c4b473ea641963e766833c2f13866e4ff480abd787c100ef123910160405180910390a150505050565b336001600160a01b037f00000000000000000000000000000000000000000000000000000000000000001614806117ac57503330145b6117c957604051635629665f60e11b815260040160405180910390fd5b5f6117e85f5160206174d85f395f51905f52546001600160a01b031690565b90506001600160a01b0381166118f057611804858585856123c3565b8585909161183757604051635f300b3960e11b815260048101929092526001600160a01b0316602482015260440161084e565b5050600185036118595761184c848484613039565b6118546130c9565b6118aa565b6002850361186c57611854848484613275565b6003850361187f5761185484848461330e565b600485148061188e5750600885145b806118995750600985145b156118aa576118aa84868585612e98565b604080518681526001600160a01b03861660208201527f341347516a9de374859dfda710fa4828b2d48cb57d4fbe4c1149612b8e02276e910160405180910390a1611ab6565b60405163d68f602560e01b81525f906001600160a01b0383169063d68f602590611924903390349086903690600401616b2c565b5f604051808303815f875af115801561193f573d5f5f3e3d5ffd5b505050506040513d5f823e601f3d908101601f191682016040526119669190810190616c3c565b9050611974868686866123c3565b868690916119a757604051635f300b3960e11b815260048101929092526001600160a01b0316602482015260440161084e565b5050600186036119c9576119bc858585613039565b6119c46130c9565b611a1a565b600286036119dc576119c4858585613275565b600386036119ef576119c485858561330e565b60048614806119fe5750600886145b80611a095750600986145b15611a1a57611a1a85878686612e98565b604080518781526001600160a01b03871660208201527f341347516a9de374859dfda710fa4828b2d48cb57d4fbe4c1149612b8e02276e910160405180910390a1604051630b9dfbed60e11b81526001600160a01b0383169063173bf7da90611a87908490600401616964565b5f604051808303815f87803b158015611a9e575f5ffd5b505af1158015611ab0573d5f5f3e3d5ffd5b50505050505b5050505050565b7f360894a13ba1a3210667c828492db98dca3e2076cc3735a920a3ca505d382bbc546001600160a01b03811661116b5750305490565b60015f9081525f5160206174b85f395f51905f5260208190527ffe44ceacbf4f03c6ac19f86826dd265fa9ec25125e8b1766c207f24cd3bc73c7548291906001600160a01b03165b6001600160a01b03811615801590611b5d57506001600160a01b038116600114155b15611b8257611b6f8184898989613415565b9250611b7b82826134e3565b9050611b3b565b5050611bb17f000000000000000000000000000000000000000000000000000000000000000082878787613415565b90506001600160e01b0319811615611bc95780611bd3565b6001600160e01b03195b95945050505050565b5f5f7f00000000000000000000000000000000000000000000000000000000000000009050306020526370a082315f526020806024601c845afa601f3d11166020510291505090565b5f81600881901b6001600160f81b031982161580611c5057506001600160f81b03198216600160f81b145b80611c6457506001600160f81b0319808316145b801561095a57506001600160f81b03198116158061095a57506001600160f81b03198116600160f81b1461095a565b6060611cb1335f5160206174b85f395f51905f525b60010190613536565b3390611cdc57604051635c93ff2f60e11b81526001600160a01b03909116600482015260240161084e565b505f611cfc5f5160206174d85f395f51905f52546001600160a01b031690565b90506001600160a01b038116611da05733600286600881901b6001600160f81b03198216611d3657611d2f88888361356e565b9550611d97565b6001600160f81b03198216600160f81b03611d5657611d2f8888836136c3565b6001600160f81b031980831603611d7257611d2f88888361373a565b604051632e5bf3f960e21b81526001600160f81b03198316600482015260240161084e565b50505050610c97565b60405163d68f602560e01b81525f906001600160a01b0383169063d68f602590611dd4903390349086903690600401616b2c565b5f604051808303815f875af1158015611def573d5f5f3e3d5ffd5b505050506040513d5f823e601f3d908101601f19168201604052611e169190810190616c3c565b905033600287600881901b6001600160f81b03198216611e4257611e3b89898361356e565b9650611e7e565b6001600160f81b03198216600160f81b03611e6257611e3b8989836136c3565b6001600160f81b031980831603611d7257611e3b89898361373a565b5050604051630b9dfbed60e11b81526001600160a01b038516925063173bf7da9150611eae908490600401616964565b5f604051808303815f87803b158015611ec5575f5ffd5b505af1158015611ed7573d5f5f3e3d5ffd5b5050505050509392505050565b604051631aab3f0d60e11b815230600482015277ffffffffffffffffffffffffffffffffffffffffffffffff821660248201525f907f00000000000000000000000000000000000000000000000000000000000000006001600160a01b0316906335567e1a90604401602060405180830381865afa158015611f68573d5f5f3e3d5ffd5b505050506040513d601f19601f82011682018060405250810190611f8c9190616fd4565b92915050565b336001600160a01b037f00000000000000000000000000000000000000000000000000000000000000001614611fdb57604051635629665f60e11b815260040160405180910390fd5b5f611ffa5f5160206174d85f395f51905f52546001600160a01b031690565b90506001600160a01b0381166120725783600881901b6001600160f81b0319821661202f5761202a858583613888565b61206b565b6001600160f81b03198216600160f81b0361204f5761202a858583613954565b6001600160f81b031980831603611d725761202a8585836139cd565b5050611139565b60405163d68f602560e01b81525f906001600160a01b0383169063d68f6025906120a6903390349086903690600401616b2c565b5f604051808303815f875af11580156120c1573d5f5f3e3d5ffd5b505050506040513d5f823e601f3d908101601f191682016040526120e89190810190616c3c565b905084600881901b6001600160f81b0319821661210f5761210a868683613888565b61214b565b6001600160f81b03198216600160f81b0361212f5761210a868683613954565b6001600160f81b031980831603611d725761210a8686836139cd565b5050604051630b9dfbed60e11b81526001600160a01b0383169063173bf7da9061110a908490600401616964565b336001600160a01b037f000000000000000000000000000000000000000000000000000000000000000016146121c257604051635629665f60e11b815260040160405180910390fd5b5f6121e15f5160206174d85f395f51905f52546001600160a01b031690565b90506001600160a01b0381166121fb576116cb8383613a6e565b60405163d68f602560e01b81525f906001600160a01b0383169063d68f60259061222f903390349086903690600401616b2c565b5f604051808303815f875af115801561224a573d5f5f3e3d5ffd5b505050506040513d5f823e601f3d908101601f191682016040526122719190810190616c3c565b905061227d8484613a6e565b604051630b9dfbed60e11b81526001600160a01b0383169063173bf7da9061169c908490600401616964565b60605f6113d27f0bb70095b32b9671358306b0339b4c06e7cbd8cb82505941fba30d1eb5b82f018585612f47565b3330146122f757604051635629665f60e11b815260040160405180910390fd5b611139848484808060200260200160405190810160405280939291908181526020018383602002808284375f920191909152508692506116cb915050565b5f60018214806123455750600282145b806123505750600382145b8061235b5750600482145b806123665750600882145b806123715750600982145b8061237a575081155b1561238757506001919050565b505f919050565b6060604080513681016020019091529050601436018152365f602083013760408051601481019091523360601b905292915050565b5f600185036123dc576123d584613b40565b905061095a565b600285036123ed576123d584613b58565b6003850361246a575f6004831061241b5761240b60045f8587616cda565b61241491617047565b905061241e565b505f5b6001600160e01b0319165f9081527f0bb70095b32b9671358306b0339b4c06e7cbd8cb82505941fba30d1eb5b82f0260205260409020546001600160a01b03858116911614905061095a565b6004850361247b576123d584613b70565b600885148061248a5750600985145b156124b357836001600160a01b03166124a286613ba9565b6001600160a01b031614905061095a565b505f61095a565b5f6001600160a01b0382166124f057507f0000000000000000000000000000000000000000000000000000000000000000919050565b6124f982613b40565b82906125245760405163342cf00f60e11b81526001600160a01b03909116600482015260240161084e565b5090919050565b919050565b5f60605f61253e6008613ba9565b90506001600160a01b0381166125955785858581818080601f0160208091040260200160405190810160405280939291908181526020018383808284375f9201919091525095985091965061260e95505050505050565b604051637a0468b760e01b81526001600160a01b03821690637a0468b7906125c79033908a908a908a90600401616b2c565b5f60405180830381865afa1580156125e1573d5f5f3e3d5ffd5b505050506040513d5f823e601f3d908101601f19168201604052612608919081019061707d565b92509250505b935093915050565b365f5f5f365f365f6126288a8a613c12565b909e509c50949a509298509096509450925090505f61264d6109ac6014838587616cda565b905061265c8260148186616cda565b9250925061267861267088888f8989613c66565b848484613cfe565b612695576040516346fdc33360e01b815260040160405180910390fd5b604051639517e29f60e01b81523090639517e29f906126be9089908b908a908a906004016170c2565b5f604051808303815f87803b1580156126d5575f5ffd5b505af11580156126e7573d5f5f3e3d5ffd5b5050505050505050505050935093915050565b365f365f5f60f98610156127155763aed595955f526004601cfd5b5050604080519086013586016020818101955090359350808701358701908101925035908635905f9061275f9030906127519087908790617038565b604051809103902084613da0565b90508061277f5760405163e483bbcb60e01b815260040160405180910390fd5b6040518181527f4f058962bce244bca6c9be42f256083afc66f1f63a1f9a04e31a3042311af38d9060200160405180910390a1505092959194509250565b60188110156127df576040516307ce216360e51b815260040160405180910390fd5b6040518235906020808501358501908101919035905f906001600160a01b0385169061280e9085908590617038565b5f60405180830381855af49150503d805f8114612846576040519150601f19603f3d011682016040523d82523d5f602084013e61284b565b606091505b505090508061286d5760405163315927c560e01b815260040160405180910390fd5b61287561298f565b61289e57612881610c9f565b61289e57604051633aab01a760e11b815260040160405180910390fd5b505050505050565b5f60605f6128b46009613ba9565b90506001600160a01b0381166128d457505050610100820151839061260e565b60405163e24f8f9360e01b81526001600160a01b0382169063e24f8f939061290490889088908b906004016170ea565b5f604051808303815f875af11580156125e1573d5f5f3e3d5ffd5b60015f9081525f5160206174b85f395f51905f5260208190527ffe44ceacbf4f03c6ac19f86826dd265fa9ec25125e8b1766c207f24cd3bc73c7546001600160a01b031615801590612989575060015f81815290820160205260409020546001600160a01b031615155b91505090565b5f6017303b0361116b5760035f5f303c5f5160e81c62ef010014905090565b5f8080806129be8688018861710e565b9250925092508183815181106129d6576129d66171ee565b60200260200101515f1480612a035750468284815181106129f9576129f96171ee565b6020026020010151145b612a205760405163d21eab3760e01b815260040160405180910390fd5b7fe8d702c67a5154c8eb044578210a2b0b2c15e4648134bd6694250e86be4a59c15f1b8583604051602001612a559190617202565b60408051601f198184030181528282528051602091820120865187830120918401959095526001600160a01b03909316908201526060810192909252608082015260a0016040516020818303038152906040528051906020012093505050509392505050565b5f5f5f612afc6040805180820182526005808252644e6578757360d81b6020808401919091528351808501909452908352640312e322e360dc1b9083015291565b915091506040517fb03948446334eb9b2196d5eb166f69b9d49403eb4a12f36de8d3f9f3cb8e15c35f52825160208401206020528151602083012060405260605f206020526119015f52846040526042601e20935080604052505f6060525050919050565b5f604051825160408114612b7d5760418114612bb75750612bf2565b604084015160ff81901c601b016020527f7fffffffffffffffffffffffffffffffffffffffffffffffffffffffffffffff16606052612bca565b60608401515f1a60205260408401516060525b50835f5260208301516040526020600160805f60015afa5191505f606052806040523d612bff575b638baa579f5f526004601cfd5b5092915050565b7f90b772c2cb8a51aa7a8a65fc23543c6d022d5b3f8e2b92eed79fba7eef829300805c80610ec95763aed595955f526004601cfd5b612c43613dd1565b612c4c83613e00565b8260601b60601c92503d5f526352d1902d6001527f360894a13ba1a3210667c828492db98dca3e2076cc3735a920a3ca505d382bbc80602060016004601d885afa5114612ca1576355299b496001526004601dfd5b837fbc7cd75a20ee27fd9adebab32041f755214dbc6bffa90cc0225b39da2e5c2d3b5f38a283905580156116cb57604051818382375f388383875af4611139573d5f823e3d81fd5b307f000000000000000000000000000000000000000000000000000000000000000014612d1857612d18613e79565b565b5f612d2b6109ac6014838587616cda565b90505f612d5a612d3e602087018761700a565b6020870135612d506040890189616ed0565b8960600135613e86565b60608601355f9081527f0bb70095b32b9671358306b0339b4c06e7cbd8cb82505941fba30d1eb5b82f07602052604090205490915060ff1615612db057604051633ab3447f60e11b815260040160405180910390fd5b60608501355f9081527f0bb70095b32b9671358306b0339b4c06e7cbd8cb82505941fba30d1eb5b82f0760205260409020805460ff19166001179055630b135d3f60e11b6001600160a01b03831663f551e2ee3084612e12886014818c616cda565b6040518563ffffffff1660e01b8152600401612e319493929190616b2c565b602060405180830381865afa158015612e4c573d5f5f3e3d5ffd5b505050506040513d601f19601f82011682018060405250810190612e709190616d68565b6001600160e01b03191614611ab65760405163bf6b584360e01b815260040160405180910390fd5b60048303612ec1575f5160206174d85f395f51905f5280546001600160a01b0319169055612ee1565b6008831480612ed05750600983145b15612ee157612ee184848484613f25565b61289e5a5f5f638a91b0e360e01b8686604051602401612f02929190617237565b60408051601f198184030181529190526020810180516001600160e01b03166001600160e01b0319909316929092179091526001600160a01b03891693929190613f2f565b60605f612f55858585613fb5565b90969095509350505050565b612f6961291f565b612f7557612f7561415d565b6001600160a01b038316612f9c57604051635316c18d60e01b815260040160405180910390fd5b60018403612fb457612faf83838361419d565b611139565b60028403612fc757612faf838383614511565b60038403612fda57612faf8383836146f9565b60048403612fed57612faf838383614dbf565b6008841480612ffc5750600984145b1561300d57612faf8484848461515c565b8361301d57612faf838383615495565b6040516304c1896960e11b81526004810185905260240161084e565b5f5160206174b85f395f51905f525f806130558585018661724a565b9092509050613065838388615617565b6116c55a5f5f638a91b0e360e01b856040516024016130849190616964565b60408051601f198184030181529190526020810180516001600160e01b03166001600160e01b0319909316929092179091526001600160a01b038b1693929190613f2f565b6130d161298f565b158015613161575060405163d60b347f60e01b81523060048201527f00000000000000000000000000000000000000000000000000000000000000006001600160a01b03169063d60b347f90602401602060405180830381865afa15801561313b573d5f5f3e3d5ffd5b505050506040513d601f19601f8201168201806040525081019061315f9190616feb565b155b15612d185760015f525f5160206174b85f395f51905f5260208190527ffe44ceacbf4f03c6ac19f86826dd265fa9ec25125e8b1766c207f24cd3bc73c7546001600160a01b03165b6001600160a01b038116158015906131cb57506001600160a01b038116600114155b1561324b5760405163d60b347f60e01b81523060048201526001600160a01b0382169063d60b347f90602401602060405180830381865afa158015613212573d5f5f3e3d5ffd5b505050506040513d601f19601f820116820180604052508101906132369190616feb565b61324b5761324482826134e3565b90506131a9565b5f196001600160a01b03821601610ec95760405163330c676160e21b815260040160405180910390fd5b5f806132838385018561724a565b915091506132aa82866132a05f5160206174b85f395f51905f5290565b6001019190615617565b61154e5a5f5f638a91b0e360e01b856040516024016132c99190616964565b60408051601f198184030181529190526020810180516001600160e01b03166001600160e01b0319909316929092179091526001600160a01b038a1693929190613f2f565b604080518082019091525f80825260208201525f5160206174b85f395f51905f526002015f6133406004828688616cda565b61334991617047565b6001600160e01b03191681526020808201929092526040015f2082518154939092015160f81c600160a01b0274ffffffffffffffffffffffffffffffffffffffffff199093166001600160a01b0390921691909117919091179055611ab65a5f80638a91b0e360e01b6133bf866004818a616cda565b6040516024016133d0929190617237565b60408051601f198184030181529190526020810180516001600160e01b03166001600160e01b0319909316929092179091526001600160a01b03881693929190613f2f565b5f5f866001600160a01b031663f551e2ee338787876040518563ffffffff1660e01b81526004016134499493929190616b2c565b602060405180830381865afa158015613464573d5f5f3e3d5ffd5b505050506040513d601f19601f820116820180604052508101906134889190616d68565b90507fffff000000000000000000000000000000000000000000000000000000000000811661773960f01b1480156134cc57506001600160e01b0319808716908216115b156134d8579050611bd3565b509395945050505050565b5f6001600160a01b03821661351657604051637c84ecfb60e01b81526001600160a01b038316600482015260240161084e565b506001600160a01b039081165f9081526020929092526040909120541690565b5f60016001600160a01b03831614801590610a695750506001600160a01b039081165f90815260209290925260409091205416151590565b60605f5f365f61357e88886156ea565b6040805160018082528183019092529498509296509094509250816020015b606081526020019060019003908161359d57509095505f90506001600160f81b031987166135f3576135d18585858561573a565b865f815181106135e3576135e36171ee565b60200260200101819052506136b7565b6001600160f81b03198716600160f81b03613692576136148585858561576d565b875f81518110613626576136266171ee565b602090810291909101015290508061368d577fb5282692b8c578af7fb880895d599035496b5e64d1f14bf428a1ed3bc406f6628383885f8151811061366d5761366d6171ee565b60200260200101516040516136849392919061728d565b60405180910390a15b6136b7565b6040516308c3ee0360e11b81526001600160f81b03198816600482015260240161084e565b50505050509392505050565b6060365f6136d1868661579b565b90925090506001600160f81b031984166136f6576136ef8282615831565b9250610a66565b6001600160f81b03198416600160f81b03613715576136ef8282615907565b6040516308c3ee0360e11b81526001600160f81b03198516600482015260240161084e565b60605f365f6137498787615a3e565b6040805160018082528183019092529396509194509250816020015b606081526020019060019003908161376557509094505f90506001600160f81b031986166137ba57613798848484615a74565b855f815181106137aa576137aa6171ee565b602002602001018190525061387d565b6001600160f81b03198616600160f81b03613858576137da848484615aa5565b865f815181106137ec576137ec6171ee565b6020908102919091010152905080613853577f5bd4c60b4b38b664d8fb5944eb974e3d85083d79afe5ce934ccabcc913707c108383875f81518110613833576138336171ee565b602002602001015160405161384a9392919061728d565b60405180910390a15b61387d565b6040516308c3ee0360e11b81526001600160f81b03198716600482015260240161084e565b505050509392505050565b5f5f365f61389687876156ea565b929650909450925090506001600160f81b031985166138c0576138bb84848484615ad1565b61154e565b6001600160f81b03198516600160f81b0361392f575f5f6138e38686868661576d565b9150915081613928577fb5282692b8c578af7fb880895d599035496b5e64d1f14bf428a1ed3bc406f66284848360405161391f9392919061728d565b60405180910390a15b505061154e565b6040516308c3ee0360e11b81526001600160f81b03198616600482015260240161084e565b365f613960858561579b565b90925090506001600160f81b031983166139835761397e8282615af5565b611ab6565b6001600160f81b03198316600160f81b036139a8576139a28282615907565b50611ab6565b6040516308c3ee0360e11b81526001600160f81b03198416600482015260240161084e565b5f365f6139da8686615a3e565b919450925090506001600160f81b03198416613a00576139fb838383615b55565b61289e565b6001600160f81b03198416600160f81b03613715575f5f613a22858585615aa5565b9150915081613a67577f5bd4c60b4b38b664d8fb5944eb974e3d85083d79afe5ce934ccabcc913707c10848483604051613a5e9392919061728d565b60405180910390a15b505061289e565b805f5b818110156111395736848483818110613a8c57613a8c6171ee565b9050602002810190613a9e91906172b2565b90505f613ac8613ab46060840160408501616716565b613ac160608501856172d0565b9091615b77565b905060605f613ada602085018561700a565b6001600160a01b031614613b0a57613b03613af8602085018561700a565b846020013584615c0e565b9050613b1a565b50604080515f8152602081019091525b613b358130613b2c60808701876172d0565b90929091615c1b565b505050600101613a71565b5f611f8c5f5160206174b85f395f51905f5283613536565b5f611f8c825f5160206174b85f395f51905f52611ca8565b5f816001600160a01b0316613b995f5160206174d85f395f51905f52546001600160a01b031690565b6001600160a01b03161492915050565b5f60088214613be2577f0bb70095b32b9671358306b0339b4c06e7cbd8cb82505941fba30d1eb5b82f05546001600160a01b0316611f8c565b50507f0bb70095b32b9671358306b0339b4c06e7cbd8cb82505941fba30d1eb5b82f06546001600160a01b031690565b813560601c6014830135603880850190603486013560e090811c91603c838901818101939281013590921c9136915f9184018b900301613c548a82818e616cda565b92509250509295985092959890939650565b5f7ff6c866c1cd985ce61f030431e576c0e82887de0643dfa8a2e6efc3463e638ed05f1b8686868686604051613c9d929190617038565b604051908190038120613cdd95949392916020019485526001600160a01b0393909316602085015260408401919091526060830152608082015260a00190565b60405160208183030381529060405280519060200120905095945050505050565b5f5f613d0986615c5c565b604051637aa8f17760e11b81529091506001600160a01b0384169063f551e2ee90613d3e90309085908a908a90600401616b2c565b602060405180830381865afa925050508015613d77575060408051601f3d908101601f19168201909252613d7491810190616d68565b60015b613d84575f91505061095a565b6001600160e01b031916630b135d3f60e11b14915061095a9050565b5f82815260a082901c602052604090206001600160a01b0316613dc4848284615d72565b610a6957505f9392505050565b307f000000000000000000000000000000000000000000000000000000000000000003612d1857612d18613e79565b336001600160a01b037f0000000000000000000000000000000000000000000000000000000000000000161480613e3657503330145b613e5357604051635629665f60e11b815260040160405180910390fd5b613e5b61298f565b15610d665760405163dc3b837960e01b815260040160405180910390fd5b639f03a0265f526004601cfd5b5f613f1b7fd3ddfc12654178cc44d4a7b6b969cfdce7ffe6342326ba37825314cffa0fba9c5f1b87878787604051613ebf929190617038565b604051908190038120613f009493929188906020019485526001600160a01b0393909316602085015260408401919091526060830152608082015260a00190565b60405160208183030381529060405280519060200120615c5c565b9695505050505050565b611139835f615dc4565b5f60605f5f5f8661ffff1667ffffffffffffffff811115613f5257613f52616b54565b6040519080825280601f01601f191660200182016040528015613f7c576020820181803683370190505b5090505f5f8751602089018b8e8ef191503d925086831115613f9c578692505b828152825f602083013e90999098509650505050505050565b60605f6001600160a01b038416600114801590613fd95750613fd78585613536565b155b1561400257604051637c84ecfb60e01b81526001600160a01b038516600482015260240161084e565b825f036140225760405163f725081760e01b815260040160405180910390fd5b8267ffffffffffffffff81111561403b5761403b616b54565b604051908082528060200260200182016040528015614064578160200160208202803683370190505b506001600160a01b038086165f90815260208890526040812054929450911691505b6001600160a01b038216158015906140a857506001600160a01b038216600114155b80156140b357508381105b1561410c57818382815181106140cb576140cb6171ee565b6001600160a01b039283166020918202929092018101919091529281165f90815292879052604090922054909116908061410481617316565b915050614086565b6001600160a01b03821660011480159061412557505f81115b15614151578261413660018361732e565b81518110614146576141466171ee565b602002602001015191505b80835250935093915050565b5f5160206174b85f395f51905f526141947f0bb70095b32b9671358306b0339b4c06e7cbd8cb82505941fba30d1eb5b82f01615e58565b610d6681615e58565b5f6141bc5f5160206174d85f395f51905f52546001600160a01b031690565b90506001600160a01b0381166143205783600160405163ecd0596160e01b8152600160048201526001600160a01b0387169063ecd0596190602401602060405180830381865afa158015614212573d5f5f3e3d5ffd5b505050506040513d601f19601f820116820180604052508101906142369190616feb565b61425357604051631c4f83bb60e31b815260040160405180910390fd5b7f00000000000000000000000000000000000000000000000000000000000000006001600160a01b0316866001600160a01b0316036142a55760405163abc3af7960e01b815260040160405180910390fd5b6142be865f5160206174b85f395f51905f525b90615eb3565b6040516306d61fe760e41b81526001600160a01b03871690636d61fe70906142ec9088908890600401617237565b5f604051808303815f87803b158015614303575f5ffd5b505af1158015614315573d5f5f3e3d5ffd5b505050505050611139565b60405163d68f602560e01b81525f906001600160a01b0383169063d68f602590614354903390349086903690600401616b2c565b5f604051808303815f875af115801561436f573d5f5f3e3d5ffd5b505050506040513d5f823e601f3d908101601f191682016040526143969190810190616c3c565b905084600160405163ecd0596160e01b8152600160048201526001600160a01b0388169063ecd0596190602401602060405180830381865afa1580156143de573d5f5f3e3d5ffd5b505050506040513d601f19601f820116820180604052508101906144029190616feb565b61441f57604051631c4f83bb60e31b815260040160405180910390fd5b7f00000000000000000000000000000000000000000000000000000000000000006001600160a01b0316876001600160a01b0316036144715760405163abc3af7960e01b815260040160405180910390fd5b614488875f5160206174b85f395f51905f526142b8565b6040516306d61fe760e41b81526001600160a01b03881690636d61fe70906144b69089908990600401617237565b5f604051808303815f87803b1580156144cd575f5ffd5b505af11580156144df573d5f5f3e3d5ffd5b5050604051630b9dfbed60e11b81526001600160a01b038716945063173bf7da935061110a9250859150600401616964565b5f6145305f5160206174d85f395f51905f52546001600160a01b031690565b90506001600160a01b0381166145e35783600260405163ecd0596160e01b8152600260048201526001600160a01b0387169063ecd0596190602401602060405180830381865afa158015614586573d5f5f3e3d5ffd5b505050506040513d601f19601f820116820180604052508101906145aa9190616feb565b6145c757604051631c4f83bb60e31b815260040160405180910390fd5b6142be865f5160206174b85f395f51905f525b60010190615eb3565b60405163d68f602560e01b81525f906001600160a01b0383169063d68f602590614617903390349086903690600401616b2c565b5f604051808303815f875af1158015614632573d5f5f3e3d5ffd5b505050506040513d5f823e601f3d908101601f191682016040526146599190810190616c3c565b905084600260405163ecd0596160e01b8152600260048201526001600160a01b0388169063ecd0596190602401602060405180830381865afa1580156146a1573d5f5f3e3d5ffd5b505050506040513d601f19601f820116820180604052508101906146c59190616feb565b6146e257604051631c4f83bb60e31b815260040160405180910390fd5b614488875f5160206174b85f395f51905f526145da565b5f6147185f5160206174d85f395f51905f52546001600160a01b031690565b90506001600160a01b038116614a245783600360405163ecd0596160e01b8152600360048201526001600160a01b0387169063ecd0596190602401602060405180830381865afa15801561476e573d5f5f3e3d5ffd5b505050506040513d601f19601f820116820180604052508101906147929190616feb565b6147af57604051631c4f83bb60e31b815260040160405180910390fd5b5f6147bd6004828789616cda565b6147c691617047565b90505f868660048181106147dc576147dc6171ee565b909101356001600160f81b03191691505080158061480757506001600160f81b03198116607f60f91b145b6148245760405163867a1dcf60e01b815260040160405180910390fd5b5f614832876005818b616cda565b8080601f0160208091040260200160405190810160405280939291908181526020018383808284375f920191909152509293505050506001600160e01b031983166306d61fe760e41b148061489757506001600160e01b03198316638a91b0e360e01b145b806148aa57506001600160e01b03198316155b156148c85760405163c001660b60e01b815260040160405180910390fd5b6001600160e01b031983165f9081527f0bb70095b32b9671358306b0339b4c06e7cbd8cb82505941fba30d1eb5b82f02602052604090205483906001600160a01b0316156149365760405163a56a04dd60e01b81526001600160e01b0319909116600482015260240161084e565b506040805180820182526001600160a01b038b81168083526001600160f81b0319861660208085019182526001600160e01b031989165f9081527f0bb70095b32b9671358306b0339b4c06e7cbd8cb82505941fba30d1eb5b82f0290915285902093518454915160f81c600160a01b0274ffffffffffffffffffffffffffffffffffffffffff199092169316929092179190911790915590516306d61fe760e41b8152636d61fe70906149ed908490600401616964565b5f604051808303815f87803b158015614a04575f5ffd5b505af1158015614a16573d5f5f3e3d5ffd5b505050505050505050611139565b60405163d68f602560e01b81525f906001600160a01b0383169063d68f602590614a58903390349086903690600401616b2c565b5f604051808303815f875af1158015614a73573d5f5f3e3d5ffd5b505050506040513d5f823e601f3d908101601f19168201604052614a9a9190810190616c3c565b905084600360405163ecd0596160e01b8152600360048201526001600160a01b0388169063ecd0596190602401602060405180830381865afa158015614ae2573d5f5f3e3d5ffd5b505050506040513d601f19601f82011682018060405250810190614b069190616feb565b614b2357604051631c4f83bb60e31b815260040160405180910390fd5b5f614b31600482888a616cda565b614b3a91617047565b90505f87876004818110614b5057614b506171ee565b909101356001600160f81b031916915050801580614b7b57506001600160f81b03198116607f60f91b145b614b985760405163867a1dcf60e01b815260040160405180910390fd5b5f614ba6886005818c616cda565b8080601f0160208091040260200160405190810160405280939291908181526020018383808284375f920191909152509293505050506001600160e01b031983166306d61fe760e41b1480614c0b57506001600160e01b03198316638a91b0e360e01b145b80614c1e57506001600160e01b03198316155b15614c3c5760405163c001660b60e01b815260040160405180910390fd5b6001600160e01b031983165f9081527f0bb70095b32b9671358306b0339b4c06e7cbd8cb82505941fba30d1eb5b82f02602052604090205483906001600160a01b031615614caa5760405163a56a04dd60e01b81526001600160e01b0319909116600482015260240161084e565b506040805180820182526001600160a01b038c81168083526001600160f81b0319861660208085019182526001600160e01b031989165f9081527f0bb70095b32b9671358306b0339b4c06e7cbd8cb82505941fba30d1eb5b82f0290915285902093518454915160f81c600160a01b0274ffffffffffffffffffffffffffffffffffffffffff199092169316929092179190911790915590516306d61fe760e41b8152636d61fe7090614d61908490600401616964565b5f604051808303815f87803b158015614d78575f5ffd5b505af1158015614d8a573d5f5f3e3d5ffd5b505050505050505050816001600160a01b031663173bf7da826040518263ffffffff1660e01b815260040161110a9190616964565b5f614dde5f5160206174d85f395f51905f52546001600160a01b031690565b90506001600160a01b038116614f555783600460405163ecd0596160e01b81526004808201526001600160a01b0387169063ecd0596190602401602060405180830381865afa158015614e33573d5f5f3e3d5ffd5b505050506040513d601f19601f82011682018060405250810190614e579190616feb565b614e7457604051631c4f83bb60e31b815260040160405180910390fd5b5f614e935f5160206174d85f395f51905f52546001600160a01b031690565b9050806001600160a01b03811615614eca5760405163741cbe0360e01b81526001600160a01b03909116600482015260240161084e565b505f5160206174d85f395f51905f5280546001600160a01b0319166001600160a01b0389161790556040516306d61fe760e41b81526001600160a01b03881690636d61fe7090614f209089908990600401617237565b5f604051808303815f87803b158015614f37575f5ffd5b505af1158015614f49573d5f5f3e3d5ffd5b50505050505050611139565b60405163d68f602560e01b81525f906001600160a01b0383169063d68f602590614f89903390349086903690600401616b2c565b5f604051808303815f875af1158015614fa4573d5f5f3e3d5ffd5b505050506040513d5f823e601f3d908101601f19168201604052614fcb9190810190616c3c565b905084600460405163ecd0596160e01b81526004808201526001600160a01b0388169063ecd0596190602401602060405180830381865afa158015615012573d5f5f3e3d5ffd5b505050506040513d601f19601f820116820180604052508101906150369190616feb565b61505357604051631c4f83bb60e31b815260040160405180910390fd5b5f6150725f5160206174d85f395f51905f52546001600160a01b031690565b9050806001600160a01b038116156150a95760405163741cbe0360e01b81526001600160a01b03909116600482015260240161084e565b505f5160206174d85f395f51905f5280546001600160a01b0319166001600160a01b038a161790556040516306d61fe760e41b81526001600160a01b03891690636d61fe70906150ff908a908a90600401617237565b5f604051808303815f87803b158015615116575f5ffd5b505af1158015615128573d5f5f3e3d5ffd5b5050604051630b9dfbed60e11b81526001600160a01b038816955063173bf7da945061110a93508692506004019050616964565b5f61517b5f5160206174d85f395f51905f52546001600160a01b031690565b90506001600160a01b0381166152c057838560405163ecd0596160e01b8152600481018890526001600160a01b0387169063ecd0596190602401602060405180830381865afa1580156151d0573d5f5f3e3d5ffd5b505050506040513d601f19601f820116820180604052508101906151f49190616feb565b61521157604051631c4f83bb60e31b815260040160405180910390fd5b5f61521b88613ba9565b9050806001600160a01b038116156152525760405163c689cd9760e01b81526001600160a01b03909116600482015260240161084e565b5061525d8888615dc4565b6040516306d61fe760e41b81526001600160a01b03881690636d61fe709061528b9089908990600401617237565b5f604051808303815f87803b1580156152a2575f5ffd5b505af11580156152b4573d5f5f3e3d5ffd5b50505050505050611ab6565b60405163d68f602560e01b81525f906001600160a01b0383169063d68f6025906152f4903390349086903690600401616b2c565b5f604051808303815f875af115801561530f573d5f5f3e3d5ffd5b505050506040513d5f823e601f3d908101601f191682016040526153369190810190616c3c565b9050848660405163ecd0596160e01b8152600481018990526001600160a01b0388169063ecd0596190602401602060405180830381865afa15801561537d573d5f5f3e3d5ffd5b505050506040513d601f19601f820116820180604052508101906153a19190616feb565b6153be57604051631c4f83bb60e31b815260040160405180910390fd5b5f6153c889613ba9565b9050806001600160a01b038116156153ff5760405163c689cd9760e01b81526001600160a01b03909116600482015260240161084e565b5061540a8989615dc4565b6040516306d61fe760e41b81526001600160a01b03891690636d61fe7090615438908a908a90600401617237565b5f604051808303815f87803b15801561544f575f5ffd5b505af1158015615461573d5f5f3e3d5ffd5b5050604051630b9dfbed60e11b81526001600160a01b038816955063173bf7da9450611a8793508692506004019050616964565b8135820160208181019135908481013585019081019035828181146154cd5760405163b4fa3fb360e01b815260040160405180910390fd5b5f5b81811015611133575f8686838181106154ea576154ea6171ee565b9050602002013590506001810361552d576155288a868685818110615511576155116171ee565b90506020028101906155239190616ed0565b61419d565b61560e565b60028103615562576155288a86868581811061554b5761554b6171ee565b905060200281019061555d9190616ed0565b614511565b60038103615597576155288a868685818110615580576155806171ee565b90506020028101906155929190616ed0565b6146f9565b600481036155cc576155288a8686858181106155b5576155b56171ee565b90506020028101906155c79190616ed0565b614dbf565b60088114806155db5750600981145b1561560e5761560e818b8787868181106155f7576155f76171ee565b90506020028101906156099190616ed0565b61515c565b506001016154cf565b6001600160a01b038116158061563657506001600160a01b0381166001145b1561565f57604051637c84ecfb60e01b81526001600160a01b038316600482015260240161084e565b6001600160a01b038281165f908152602085905260409020548116908216146156a657604051637c84ecfb60e01b81526001600160a01b038216600482015260240161084e565b6001600160a01b039081165f8181526020949094526040808520805494841686529085208054949093166001600160a01b0319948516179092559092528154169055565b5f8036816156fb6014828789616cda565b61570491616d01565b60601c9350615717603460148789616cda565b61572091617341565b925061572f8560348189616cda565b949793965094505050565b604051818382375f38838387895af1615755573d5f823e3d81fd5b3d8152602081013d5f823e3d01604052949350505050565b6040515f90828482375f388483888a5af191503d8152602081013d5f823e3d81016040525094509492505050565b365f833580850160208587010360208201945081359350808460051b8301118360401c17156157d15763ba597e7e5f526004601cfd5b8315615827578392505b6001830392508260051b850135915081850160408101358082018381358201118460408501111782861782351760401c171561581e5763ba597e7e5f526004601cfd5b505050826157db575b5050509250929050565b60608167ffffffffffffffff81111561584c5761584c616b54565b60405190808252806020026020018201604052801561587f57816020015b606081526020019060019003908161586a5790505b509050365f5b838110156158ff5784848281811061589f5761589f6171ee565b90506020028101906158b1919061735e565b91506158da6158c3602084018461700a565b60208401356158d56040860186616ed0565b61573a565b8382815181106158ec576158ec6171ee565b6020908102919091010152600101615885565b505092915050565b60608167ffffffffffffffff81111561592257615922616b54565b60405190808252806020026020018201604052801561595557816020015b60608152602001906001900390816159405790505b509050365f5b838110156158ff57848482818110615975576159756171ee565b9050602002810190615987919061735e565b91505f6159b161599a602085018561700a565b60208501356159ac6040870187616ed0565b61576d565b8584815181106159c3576159c36171ee565b6020908102919091010152905080615a35577fb5282692b8c578af7fb880895d599035496b5e64d1f14bf428a1ed3bc406f662615a036040850185616ed0565b868581518110615a1557615a156171ee565b6020026020010151604051615a2c9392919061728d565b60405180910390a15b5060010161595b565b5f3681615a4e6014828688616cda565b615a5791616d01565b60601c9250615a698460148188616cda565b915091509250925092565b604051818382375f388383875af4615a8e573d5f823e3d81fd5b3d8152602081013d5f823e3d016040529392505050565b6040515f90828482375f388483885af491503d8152602081013d5f823e3d810160405250935093915050565b604051818382375f38838387895af1615aec573d5f823e3d81fd5b01604052505050565b365f5b8281101561113957838382818110615b1257615b126171ee565b9050602002810190615b24919061735e565b9150615b4d615b36602084018461700a565b6020840135615b486040860186616ed0565b615ad1565b600101615af8565b604051818382375f388383875af4615b6f573d5f823e3d81fd5b016040525050565b604080516001600160e01b031983166020820152815160048183030181526024909101909152606090835f5b81811015615c035782615bd8888884818110615bc157615bc16171ee565b9050602002810190615bd3919061735e565b615f87565b604051602001615be9929190617372565b60408051601f198184030181529190529250600101615ba3565b509095945050505050565b606061095a848484616150565b825f5b8181101561289e57615c54868683818110615c3b57615c3b6171ee565b9050602002810190615c4d9190617386565b858561616d565b600101615c1e565b7f00000000000000000000000000000000000000000000000000000000000000007f000000000000000000000000000000000000000000000000000000000000000030147f0000000000000000000000000000000000000000000000000000000000000000461416615d4f5750604080517f8b73c3c69bb8fe3d512ecc4cf759cc79239f7b179b0ffacaa9a75d522b39400f81527f000000000000000000000000000000000000000000000000000000000000000060208201527f00000000000000000000000000000000000000000000000000000000000000009181019190915246606082015230608082015260a090205b6719010000000000005f5280601a5281603a52604260182090505f603a52919050565b5f82815260208082206080909152601f8390526305d78094600b526019602720613f1b6001600160a01b03871680151590615db084601b8a886162e3565b6001600160a01b0316149015159015151690565b60088203615e0e577f0bb70095b32b9671358306b0339b4c06e7cbd8cb82505941fba30d1eb5b82f0680546001600160a01b0319166001600160a01b039290921691909117905550565b60098203610ec9577f0bb70095b32b9671358306b0339b4c06e7cbd8cb82505941fba30d1eb5b82f0580546001600160a01b0319166001600160a01b039290921691909117905550565b60015f908152602082905260409020546001600160a01b031615615e8f576040516329e42f3360e11b815260040160405180910390fd5b60015f818152602092909252604090912080546001600160a01b0319169091179055565b6001600160a01b0381161580615ed257506001600160a01b0381166001145b15615efb57604051637c84ecfb60e01b81526001600160a01b038216600482015260240161084e565b6001600160a01b038181165f908152602084905260409020541615615f3e57604051631034f46960e21b81526001600160a01b038216600482015260240161084e565b60015f818152602093909352604080842080546001600160a01b039485168087529286208054959091166001600160a01b03199586161790559190935280549091169091179055565b60605f615f9760208401846173ba565b6001811115615fa857615fa861739a565b0361604a57616003615fbd6020840184616ed0565b8080601f0160208091040260200160405190810160405280939291908181526020018383808284375f92019190915250615ffe9250505060408501856172d0565b61631d565b6160106020830183616ed0565b8080601f0160208091040260200160405190810160405280939291908181526020018383808284375f920191909152509295945050505050565b600161605960208401846173ba565b600181111561606a5761606a61739a565b03616137575f368181816160816020880188616ed0565b91509150813594506020820135808301905060208101945080359350505f5f866001600160a01b031686866040516160ba929190617038565b5f60405180830381855afa9150503d805f81146160f2576040519150601f19603f3d011682016040523d82523d5f602084013e6160f7565b606091505b50915091508161611a57604051636533cc8d60e01b815260040160405180910390fd5b61612b81615ffe60408c018c6172d0565b98975050505050505050565b604051639485795560e01b815260040160405180910390fd5b60405181515f9038906020850186885af1615a8e573d5f823e3d81fd5b5f61617b60208501856173ba565b600181111561618c5761618c61739a565b036161c6575f808036816161a36020890189616ed0565b915091508135945060208201359350604082013592506116c5858886868a6164e2565b60016161d560208501856173ba565b60018111156161e6576161e661739a565b036162ca575f8036818080838161620060208c018c616ed0565b91509150813597506020820135965060408201358083019050602081019650803595505060608201359350608082013592505f5f886001600160a01b0316888860405161624e929190617038565b5f60405180830381855afa9150503d805f8114616286576040519150601f19603f3d011682016040523d82523d5f602084013e61628b565b606091505b5091509150816162ae57604051636e47f61960e01b815260040160405180910390fd5b6162bb8a8288888f6164e2565b50505050505050505050505050565b604051631c42432f60e31b815260040160405180910390fd5b5f604051855f5260ff851660205283604052826060526020604060805f60015afa505f6060523d6060185191508060405250949350505050565b80156116cb575f5b81811015611139575f838383818110616340576163406171ee565b90506020028101906163529190617386565b61635b906173d5565b6020838102870101519091505f8251600381111561637b5761637b61739a565b036163b657816020015161638e9061744c565b81145f906163b057604051630a31844b60e41b815260040161084e919061746f565b506164d8565b6001825160038111156163cb576163cb61739a565b036164025781602001516163de9061744c565b8110156001906163b057604051630a31844b60e41b815260040161084e919061746f565b6002825160038111156164175761641761739a565b0361644e57816020015161642a9061744c565b8111156002906163b057604051630a31844b60e41b815260040161084e919061746f565b6003825160038111156164635761646361739a565b036164bf575f5f83602001518060200190518101906164829190617495565b915091508183101580156164965750808311155b6003906164b757604051630a31844b60e41b815260040161084e919061746f565b5050506164d8565b604051631628622f60e11b815260040160405180910390fd5b5050600101616325565b5f5b8581101561289e5760208181028601810151604080519283018690528201839052906001600160a01b0386169063a39e07879060600160408051601f198184030181529082905280516020909101206001600160e01b031960e084901b1682526004820152602481018490526001600160a01b03861660448201526064015f604051808303815f87803b158015616579575f5ffd5b505af115801561658b573d5f5f3e3d5ffd5b5050600190930192506164e4915050565b6001600160a01b0381168114610d66575f5ffd5b803561252b8161659c565b5f5f83601f8401126165cb575f5ffd5b50813567ffffffffffffffff8111156165e2575f5ffd5b6020830191508360208285010111156165f9575f5ffd5b9250929050565b5f5f5f5f60608587031215616613575f5ffd5b8435935060208501356166258161659c565b9250604085013567ffffffffffffffff811115616640575f5ffd5b61664c878288016165bb565b95989497509550505050565b5f5f5f6040848603121561666a575f5ffd5b83359250602084013567ffffffffffffffff811115616687575f5ffd5b616693868287016165bb565b9497909650939450505050565b5f61012082840312156166b1575f5ffd5b50919050565b5f5f5f606084860312156166c9575f5ffd5b833567ffffffffffffffff8111156166df575f5ffd5b6166eb868287016166a0565b9660208601359650604090950135949350505050565b6001600160e01b031981168114610d66575f5ffd5b5f60208284031215616726575f5ffd5b8135610a6981616701565b5f5f60208385031215616742575f5ffd5b823567ffffffffffffffff811115616758575f5ffd5b612f55858286016165bb565b5f5f60408385031215616775575f5ffd5b82356167808161659c565b946020939093013593505050565b5f5f5f604084860312156167a0575f5ffd5b83356167ab8161659c565b9250602084013567ffffffffffffffff811115616687575f5ffd5b5f5f5f604084860312156167d8575f5ffd5b833567ffffffffffffffff8111156167ee575f5ffd5b8401608081870312156167ab575f5ffd5b604080825283519082018190525f9060208501906060840190835b818110156168415783516001600160a01b031683526020938401939092019160010161681a565b505080925050506001600160a01b03831660208301529392505050565b5f81518084528060208401602086015e5f602082860101526020601f19601f83011685010191505092915050565b60ff60f81b8816815260e060208201525f6168aa60e083018961685e565b82810360408401526168bc818961685e565b606084018890526001600160a01b038716608085015260a0840186905283810360c0850152845180825260208087019350909101905f5b818110156169115783518352602093840193909201916001016168f3565b50909b9a5050505050505050505050565b5f5f60408385031215616933575f5ffd5b823567ffffffffffffffff811115616949575f5ffd5b616955858286016166a0565b95602094909401359450505050565b602081525f610a69602083018461685e565b5f60208284031215616986575f5ffd5b5035919050565b5f602082016020835280845180835260408501915060408160051b8601019250602086015f5b828110156169e457603f198786030184526169cf85835161685e565b945060209384019391909101906001016169b3565b50929695505050505050565b5f60208284031215616a00575f5ffd5b813577ffffffffffffffffffffffffffffffffffffffffffffffff81168114610a69575f5ffd5b5f5f83601f840112616a37575f5ffd5b50813567ffffffffffffffff811115616a4e575f5ffd5b6020830191508360208260051b85010111156165f9575f5ffd5b5f5f60208385031215616a79575f5ffd5b823567ffffffffffffffff811115616a8f575f5ffd5b612f5585828601616a27565b5f5f5f5f60608587031215616aae575f5ffd5b8435616ab98161659c565b9350602085013567ffffffffffffffff811115616ad4575f5ffd5b616ae087828801616a27565b909450925050604085013560ff81168114616af9575f5ffd5b939692955090935050565b81835281816020850137505f828201602090810191909152601f909101601f19169091010190565b6001600160a01b0385168152836020820152606060408201525f613f1b606083018486616b04565b634e487b7160e01b5f52604160045260245ffd5b604051610120810167ffffffffffffffff81118282101715616b8c57616b8c616b54565b60405290565b604051601f8201601f1916810167ffffffffffffffff81118282101715616bbb57616bbb616b54565b604052919050565b5f67ffffffffffffffff821115616bdc57616bdc616b54565b50601f01601f191660200190565b5f82601f830112616bf9575f5ffd5b8151616c0c616c0782616bc3565b616b92565b818152846020838601011115616c20575f5ffd5b8160208501602083015e5f918101602001919091529392505050565b5f60208284031215616c4c575f5ffd5b815167ffffffffffffffff811115616c62575f5ffd5b61095a84828501616bea565b5f81518060208401855e5f93019283525090919050565b5f610a698284616c6e565b634e487b7160e01b5f52601160045260245ffd5b5f82616cbe57634e487b7160e01b5f52601260045260245ffd5b500490565b8082028115828204841417611f8c57611f8c616c90565b5f5f85851115616ce8575f5ffd5b83861115616cf4575f5ffd5b5050820193919092039150565b80356bffffffffffffffffffffffff198116906014841015612bff576bffffffffffffffffffffffff1960149490940360031b84901b1690921692915050565b6001600160a01b0384168152826020820152606060408201525f610957606083018461685e565b5f60208284031215616d78575f5ffd5b8151610a6981616701565b5f82601f830112616d92575f5ffd5b8135616da0616c0782616bc3565b818152846020838601011115616db4575f5ffd5b816020850160208301375f918101602001919091529392505050565b5f6101208236031215616de1575f5ffd5b616de9616b68565b616df2836165b0565b815260208381013590820152604083013567ffffffffffffffff811115616e17575f5ffd5b616e2336828601616d83565b604083015250606083013567ffffffffffffffff811115616e42575f5ffd5b616e4e36828601616d83565b6060830152506080838101359082015260a0808401359082015260c0808401359082015260e083013567ffffffffffffffff811115616e8b575f5ffd5b616e9736828601616d83565b60e08301525061010083013567ffffffffffffffff811115616eb7575f5ffd5b616ec336828601616d83565b6101008301525092915050565b5f5f8335601e19843603018112616ee5575f5ffd5b83018035915067ffffffffffffffff821115616eff575f5ffd5b6020019150368190038213156165f9575f5ffd5b80516001600160a01b03168252602081015160208301525f60408201516101206040850152616f4661012085018261685e565b905060608301518482036060860152616f5f828261685e565b9150506080830151608085015260a083015160a085015260c083015160c085015260e083015184820360e0860152616f97828261685e565b915050610100830151848203610100860152611bd3828261685e565b604081525f616fc56040830185616f13565b90508260208301529392505050565b5f60208284031215616fe4575f5ffd5b5051919050565b5f60208284031215616ffb575f5ffd5b81518015158114610a69575f5ffd5b5f6020828403121561701a575f5ffd5b8135610a698161659c565b80820180821115611f8c57611f8c616c90565b818382375f9101908152919050565b80356001600160e01b03198116906004841015612bff576001600160e01b031960049490940360031b84901b1690921692915050565b5f5f6040838503121561708e575f5ffd5b8251602084015190925067ffffffffffffffff8111156170ac575f5ffd5b6170b885828601616bea565b9150509250929050565b8481526001600160a01b0384166020820152606060408201525f613f1b606083018486616b04565b606081525f6170fc6060830186616f13565b60208301949094525060400152919050565b5f5f5f60608486031215617120575f5ffd5b83359250602084013567ffffffffffffffff81111561713d575f5ffd5b8401601f8101861361714d575f5ffd5b803567ffffffffffffffff81111561716757617167616b54565b8060051b61717760208201616b92565b91825260208184018101929081019089841115617192575f5ffd5b6020850194505b838510156171b857843580835260209586019590935090910190617199565b95505050506040850135905067ffffffffffffffff8111156171d8575f5ffd5b6171e486828701616d83565b9150509250925092565b634e487b7160e01b5f52603260045260245ffd5b81515f90829060208501835b8281101561722c57815184526020938401939091019060010161720e565b509195945050505050565b602081525f61095a602083018486616b04565b5f5f6040838503121561725b575f5ffd5b82356172668161659c565b9150602083013567ffffffffffffffff811115617281575f5ffd5b6170b885828601616d83565b604081525f6172a0604083018587616b04565b8281036020840152613f1b818561685e565b5f8235609e198336030181126172c6575f5ffd5b9190910192915050565b5f5f8335601e198436030181126172e5575f5ffd5b83018035915067ffffffffffffffff8211156172ff575f5ffd5b6020019150600581901b36038213156165f9575f5ffd5b5f6001820161732757617327616c90565b5060010190565b81810381811115611f8c57611f8c616c90565b80356020831015611f8c575f19602084900360031b1b1692915050565b5f8235605e198336030181126172c6575f5ffd5b5f61095a6173808386616c6e565b84616c6e565b5f8235603e198336030181126172c6575f5ffd5b634e487b7160e01b5f52602160045260245ffd5b60028110610d66575f5ffd5b5f602082840312156173ca575f5ffd5b8135610a69816173ae565b5f604082360312156173e5575f5ffd5b6040805190810167ffffffffffffffff8111828210171561740857617408616b54565b604052823560048110617419575f5ffd5b8152602083013567ffffffffffffffff811115617434575f5ffd5b61744036828601616d83565b60208301525092915050565b805160208083015191908110156166b1575f1960209190910360031b1b16919050565b602081016004831061748f57634e487b7160e01b5f52602160045260245ffd5b91905290565b5f5f604083850312156174a6575f5ffd5b50508051602090910151909290915056fe0bb70095b32b9671358306b0339b4c06e7cbd8cb82505941fba30d1eb5b82f000bb70095b32b9671358306b0339b4c06e7cbd8cb82505941fba30d1eb5b82f03a164736f6c634300081b000a","linkReferences":{}},"methodIdentifiers":{"accountId()":"9cfd7cff","addDeposit()":"4a58db19","checkERC7739Support(bytes32,bytes)":"b46b61a9","eip712Domain()":"84b0196e","emergencyUninstallHook((address,uint256,bytes,uint256),bytes)":"5bfeadbb","entryPoint()":"b0d691fe","execute(bytes32,bytes)":"e9ae5c53","executeComposable((address,uint256,bytes4,(uint8,bytes,(uint8,bytes)[])[],(uint8,bytes)[])[])":"ea5a6d91","executeFromExecutor(bytes32,bytes)":"d691c964","executeUserOp((address,uint256,bytes,bytes,bytes32,uint256,bytes32,bytes,bytes),bytes32)":"8dd7712f","getActiveHook()":"0a664dba","getDeposit()":"c399ec88","getExecutorsPaginated(address,uint256)":"ea5f61d0","getFallbackHandlerBySelector(bytes4)":"481ddd23","getImplementation()":"aaf10f42","getRegistry()":"5ab1bd53","getValidatorsPaginated(address,uint256)":"5faac46b","initializeAccount(bytes)":"4b6a1419","installModule(uint256,address,bytes)":"9517e29f","isInitialized()":"392e53cd","isModuleInstalled(uint256,address,bytes)":"112d3a7d","isValidSignature(bytes32,bytes)":"1626ba7e","nonce(uint192)":"d86f2b3c","proxiableUUID()":"52d1902d","setRegistry(address,address[],uint8)":"eab77e17","supportsExecutionMode(bytes32)":"d03c7914","supportsModule(uint256)":"f2dc691d","uninstallModule(uint256,address,bytes)":"a71763a8","upgradeToAndCall(address,bytes)":"4f1ef286","validateUserOp((address,uint256,bytes,bytes,bytes32,uint256,bytes32,bytes,bytes),bytes32,uint256)":"19822f7c","withdrawDepositTo(address,uint256)":"4d44560d"},"id":0}