{"abi":[{"type":"constructor","inputs":[{"name":"defaultValidator","type":"address","internalType":"address"},{"name":"initData","type":"bytes","internalType":"bytes"}],"stateMutability":"nonpayable"},{"type":"fallback","stateMutability":"payable"},{"type":"receive","stateMutability":"payable"},{"type":"function","name":"eip712Domain","inputs":[],"outputs":[{"name":"fields","type":"bytes1","internalType":"bytes1"},{"name":"name","type":"string","internalType":"string"},{"name":"version","type":"string","internalType":"string"},{"name":"chainId","type":"uint256","internalType":"uint256"},{"name":"verifyingContract","type":"address","internalType":"address"},{"name":"salt","type":"bytes32","internalType":"bytes32"},{"name":"extensions","type":"uint256[]","internalType":"uint256[]"}],"stateMutability":"view"},{"type":"function","name":"getActiveHook","inputs":[],"outputs":[{"name":"hook","type":"address","internalType":"address"}],"stateMutability":"view"},{"type":"function","name":"getExecutorsPaginated","inputs":[{"name":"cursor","type":"address","internalType":"address"},{"name":"size","type":"uint256","internalType":"uint256"}],"outputs":[{"name":"array","type":"address[]","internalType":"address[]"},{"name":"next","type":"address","internalType":"address"}],"stateMutability":"view"},{"type":"function","name":"getFallbackHandlerBySelector","inputs":[{"name":"selector","type":"bytes4","internalType":"bytes4"}],"outputs":[{"name":"","type":"bytes1","internalType":"CallType"},{"name":"","type":"address","internalType":"address"}],"stateMutability":"view"},{"type":"function","name":"getRegistry","inputs":[],"outputs":[{"name":"","type":"address","internalType":"contract IERC7484"}],"stateMutability":"view"},{"type":"function","name":"getValidatorsPaginated","inputs":[{"name":"cursor","type":"address","internalType":"address"},{"name":"size","type":"uint256","internalType":"uint256"}],"outputs":[{"name":"array","type":"address[]","internalType":"address[]"},{"name":"next","type":"address","internalType":"address"}],"stateMutability":"view"},{"type":"function","name":"initNexus","inputs":[{"name":"validators","type":"tuple[]","internalType":"struct BootstrapConfig[]","components":[{"name":"module","type":"address","internalType":"address"},{"name":"data","type":"bytes","internalType":"bytes"}]},{"name":"executors","type":"tuple[]","internalType":"struct BootstrapConfig[]","components":[{"name":"module","type":"address","internalType":"address"},{"name":"data","type":"bytes","internalType":"bytes"}]},{"name":"hook","type":"tuple","internalType":"struct BootstrapConfig","components":[{"name":"module","type":"address","internalType":"address"},{"name":"data","type":"bytes","internalType":"bytes"}]},{"name":"fallbacks","type":"tuple[]","internalType":"struct BootstrapConfig[]","components":[{"name":"module","type":"address","internalType":"address"},{"name":"data","type":"bytes","internalType":"bytes"}]},{"name":"preValidationHooks","type":"tuple[]","internalType":"struct BootstrapPreValidationHookConfig[]","components":[{"name":"hookType","type":"uint256","internalType":"uint256"},{"name":"module","type":"address","internalType":"address"},{"name":"data","type":"bytes","internalType":"bytes"}]},{"name":"registryConfig","type":"tuple","internalType":"struct RegistryConfig","components":[{"name":"registry","type":"address","internalType":"contract IERC7484"},{"name":"attesters","type":"address[]","internalType":"address[]"},{"name":"threshold","type":"uint8","internalType":"uint8"}]}],"outputs":[],"stateMutability":"payable"},{"type":"function","name":"initNexusNoRegistry","inputs":[{"name":"validators","type":"tuple[]","internalType":"struct BootstrapConfig[]","components":[{"name":"module","type":"address","internalType":"address"},{"name":"data","type":"bytes","internalType":"bytes"}]},{"name":"executors","type":"tuple[]","internalType":"struct BootstrapConfig[]","components":[{"name":"module","type":"address","internalType":"address"},{"name":"data","type":"bytes","internalType":"bytes"}]},{"name":"hook","type":"tuple","internalType":"struct BootstrapConfig","components":[{"name":"module","type":"address","internalType":"address"},{"name":"data","type":"bytes","internalType":"bytes"}]},{"name":"fallbacks","type":"tuple[]","internalType":"struct BootstrapConfig[]","components":[{"name":"module","type":"address","internalType":"address"},{"name":"data","type":"bytes","internalType":"bytes"}]},{"name":"preValidationHooks","type":"tuple[]","internalType":"struct BootstrapPreValidationHookConfig[]","components":[{"name":"hookType","type":"uint256","internalType":"uint256"},{"name":"module","type":"address","internalType":"address"},{"name":"data","type":"bytes","internalType":"bytes"}]}],"outputs":[],"stateMutability":"payable"},{"type":"function","name":"initNexusScoped","inputs":[{"name":"validators","type":"tuple[]","internalType":"struct BootstrapConfig[]","components":[{"name":"module","type":"address","internalType":"address"},{"name":"data","type":"bytes","internalType":"bytes"}]},{"name":"hook","type":"tuple","internalType":"struct BootstrapConfig","components":[{"name":"module","type":"address","internalType":"address"},{"name":"data","type":"bytes","internalType":"bytes"}]},{"name":"registryConfig","type":"tuple","internalType":"struct RegistryConfig","components":[{"name":"registry","type":"address","internalType":"contract IERC7484"},{"name":"attesters","type":"address[]","internalType":"address[]"},{"name":"threshold","type":"uint8","internalType":"uint8"}]}],"outputs":[],"stateMutability":"payable"},{"type":"function","name":"initNexusScopedNoRegistry","inputs":[{"name":"validators","type":"tuple[]","internalType":"struct BootstrapConfig[]","components":[{"name":"module","type":"address","internalType":"address"},{"name":"data","type":"bytes","internalType":"bytes"}]},{"name":"hook","type":"tuple","internalType":"struct BootstrapConfig","components":[{"name":"module","type":"address","internalType":"address"},{"name":"data","type":"bytes","internalType":"bytes"}]}],"outputs":[],"stateMutability":"payable"},{"type":"function","name":"initNexusWithDefaultValidator","inputs":[{"name":"data","type":"bytes","internalType":"bytes"}],"outputs":[],"stateMutability":"payable"},{"type":"function","name":"initNexusWithDefaultValidatorAndOtherModules","inputs":[{"name":"defaultValidatorInitData","type":"bytes","internalType":"bytes"},{"name":"validators","type":"tuple[]","internalType":"struct BootstrapConfig[]","components":[{"name":"module","type":"address","internalType":"address"},{"name":"data","type":"bytes","internalType":"bytes"}]},{"name":"executors","type":"tuple[]","internalType":"struct BootstrapConfig[]","components":[{"name":"module","type":"address","internalType":"address"},{"name":"data","type":"bytes","internalType":"bytes"}]},{"name":"hook","type":"tuple","internalType":"struct BootstrapConfig","components":[{"name":"module","type":"address","internalType":"address"},{"name":"data","type":"bytes","internalType":"bytes"}]},{"name":"fallbacks","type":"tuple[]","internalType":"struct BootstrapConfig[]","components":[{"name":"module","type":"address","internalType":"address"},{"name":"data","type":"bytes","internalType":"bytes"}]},{"name":"preValidationHooks","type":"tuple[]","internalType":"struct BootstrapPreValidationHookConfig[]","components":[{"name":"hookType","type":"uint256","internalType":"uint256"},{"name":"module","type":"address","internalType":"address"},{"name":"data","type":"bytes","internalType":"bytes"}]},{"name":"registryConfig","type":"tuple","internalType":"struct RegistryConfig","components":[{"name":"registry","type":"address","internalType":"contract IERC7484"},{"name":"attesters","type":"address[]","internalType":"address[]"},{"name":"threshold","type":"uint8","internalType":"uint8"}]}],"outputs":[],"stateMutability":"payable"},{"type":"function","name":"initNexusWithDefaultValidatorAndOtherModulesNoRegistry","inputs":[{"name":"defaultValidatorInitData","type":"bytes","internalType":"bytes"},{"name":"validators","type":"tuple[]","internalType":"struct BootstrapConfig[]","components":[{"name":"module","type":"address","internalType":"address"},{"name":"data","type":"bytes","internalType":"bytes"}]},{"name":"executors","type":"tuple[]","internalType":"struct BootstrapConfig[]","components":[{"name":"module","type":"address","internalType":"address"},{"name":"data","type":"bytes","internalType":"bytes"}]},{"name":"hook","type":"tuple","internalType":"struct BootstrapConfig","components":[{"name":"module","type":"address","internalType":"address"},{"name":"data","type":"bytes","internalType":"bytes"}]},{"name":"fallbacks","type":"tuple[]","internalType":"struct BootstrapConfig[]","components":[{"name":"module","type":"address","internalType":"address"},{"name":"data","type":"bytes","internalType":"bytes"}]},{"name":"preValidationHooks","type":"tuple[]","internalType":"struct BootstrapPreValidationHookConfig[]","components":[{"name":"hookType","type":"uint256","internalType":"uint256"},{"name":"module","type":"address","internalType":"address"},{"name":"data","type":"bytes","internalType":"bytes"}]}],"outputs":[],"stateMutability":"payable"},{"type":"function","name":"initNexusWithSingleValidator","inputs":[{"name":"validator","type":"address","internalType":"address"},{"name":"data","type":"bytes","internalType":"bytes"},{"name":"registryConfig","type":"tuple","internalType":"struct RegistryConfig","components":[{"name":"registry","type":"address","internalType":"contract IERC7484"},{"name":"attesters","type":"address[]","internalType":"address[]"},{"name":"threshold","type":"uint8","internalType":"uint8"}]}],"outputs":[],"stateMutability":"payable"},{"type":"function","name":"initNexusWithSingleValidatorNoRegistry","inputs":[{"name":"validator","type":"address","internalType":"address"},{"name":"data","type":"bytes","internalType":"bytes"}],"outputs":[],"stateMutability":"payable"},{"type":"function","name":"installModule","inputs":[{"name":"moduleTypeId","type":"uint256","internalType":"uint256"},{"name":"module","type":"address","internalType":"address"},{"name":"initData","type":"bytes","internalType":"bytes"}],"outputs":[],"stateMutability":"payable"},{"type":"function","name":"isModuleInstalled","inputs":[{"name":"moduleTypeId","type":"uint256","internalType":"uint256"},{"name":"module","type":"address","internalType":"address"},{"name":"additionalContext","type":"bytes","internalType":"bytes"}],"outputs":[{"name":"installed","type":"bool","internalType":"bool"}],"stateMutability":"view"},{"type":"function","name":"uninstallModule","inputs":[{"name":"moduleTypeId","type":"uint256","internalType":"uint256"},{"name":"module","type":"address","internalType":"address"},{"name":"deInitData","type":"bytes","internalType":"bytes"}],"outputs":[],"stateMutability":"payable"},{"type":"event","name":"ERC7484RegistryConfigured","inputs":[{"name":"registry","type":"address","indexed":true,"internalType":"contract IERC7484"}],"anonymous":false},{"type":"event","name":"ModuleInstalled","inputs":[{"name":"moduleTypeId","type":"uint256","indexed":false,"internalType":"uint256"},{"name":"module","type":"address","indexed":false,"internalType":"address"}],"anonymous":false},{"type":"event","name":"ModuleUninstalled","inputs":[{"name":"moduleTypeId","type":"uint256","indexed":false,"internalType":"uint256"},{"name":"module","type":"address","indexed":false,"internalType":"address"}],"anonymous":false},{"type":"error","name":"CanNotRemoveLastValidator","inputs":[]},{"type":"error","name":"DefaultValidatorAlreadyInstalled","inputs":[]},{"type":"error","name":"EmergencyUninstallSigError","inputs":[]},{"type":"error","name":"EnableModeSigError","inputs":[]},{"type":"error","name":"FallbackAlreadyInstalledForSelector","inputs":[{"name":"selector","type":"bytes4","internalType":"bytes4"}]},{"type":"error","name":"FallbackCallTypeInvalid","inputs":[]},{"type":"error","name":"FallbackHandlerUninstallFailed","inputs":[]},{"type":"error","name":"FallbackNotInstalledForSelector","inputs":[{"name":"selector","type":"bytes4","internalType":"bytes4"}]},{"type":"error","name":"FallbackSelectorForbidden","inputs":[]},{"type":"error","name":"HookAlreadyInstalled","inputs":[{"name":"currentHook","type":"address","internalType":"address"}]},{"type":"error","name":"HookPostCheckFailed","inputs":[]},{"type":"error","name":"InvalidInput","inputs":[]},{"type":"error","name":"InvalidModule","inputs":[{"name":"module","type":"address","internalType":"address"}]},{"type":"error","name":"InvalidModuleTypeId","inputs":[{"name":"moduleTypeId","type":"uint256","internalType":"uint256"}]},{"type":"error","name":"InvalidNonce","inputs":[]},{"type":"error","name":"LinkedList_AlreadyInitialized","inputs":[]},{"type":"error","name":"LinkedList_EntryAlreadyInList","inputs":[{"name":"entry","type":"address","internalType":"address"}]},{"type":"error","name":"LinkedList_InvalidEntry","inputs":[{"name":"entry","type":"address","internalType":"address"}]},{"type":"error","name":"LinkedList_InvalidPage","inputs":[]},{"type":"error","name":"MismatchModuleTypeId","inputs":[]},{"type":"error","name":"MissingFallbackHandler","inputs":[{"name":"selector","type":"bytes4","internalType":"bytes4"}]},{"type":"error","name":"ModuleAddressCanNotBeZero","inputs":[]},{"type":"error","name":"ModuleAlreadyInstalled","inputs":[{"name":"moduleTypeId","type":"uint256","internalType":"uint256"},{"name":"module","type":"address","internalType":"address"}]},{"type":"error","name":"ModuleNotInstalled","inputs":[{"name":"moduleTypeId","type":"uint256","internalType":"uint256"},{"name":"module","type":"address","internalType":"address"}]},{"type":"error","name":"NoValidatorInstalled","inputs":[]},{"type":"error","name":"PrevalidationHookAlreadyInstalled","inputs":[{"name":"currentPreValidationHook","type":"address","internalType":"address"}]},{"type":"error","name":"UnauthorizedOperation","inputs":[{"name":"operator","type":"address","internalType":"address"}]},{"type":"error","name":"UnsupportedCallType","inputs":[{"name":"callType","type":"bytes1","internalType":"CallType"}]},{"type":"error","name":"ValidatorNotInstalled","inputs":[{"name":"module","type":"address","internalType":"address"}]}],"bytecode":{"object":"0x610140604052348015610010575f5ffd5b50604051613d72380380613d7283398101604081905261002f916101f4565b306080524660a0528181606080610083604080518082018252600e81526d04e65787573426f6f7473747261760941b60208083019190915282518084019093526005835264312e322e3160d81b9083015291565b815160209283012081519183019190912060c082905260e0819052604080517f8b73c3c69bb8fe3d512ecc4cf759cc79239f7b179b0ffacaa9a75d522b39400f8152808501939093528281019190915246606083015230608083015260a090912061010052805163ecd0596160e01b81526001600482015290516001600160a01b038716945063ecd059619350602480830193928290030181865afa15801561012e573d5f5f3e3d5ffd5b505050506040513d601f19601f8201168201806040525081019061015291906102c3565b61016f57604051631c4f83bb60e31b815260040160405180910390fd5b6040516306d61fe760e41b81526001600160a01b03831690636d61fe709061019b9084906004016102e9565b5f604051808303815f87803b1580156101b2575f5ffd5b505af11580156101c4573d5f5f3e3d5ffd5b5050506001600160a01b03909216610120525061031e92505050565b634e487b7160e01b5f52604160045260245ffd5b5f5f60408385031215610205575f5ffd5b82516001600160a01b038116811461021b575f5ffd5b60208401519092506001600160401b03811115610236575f5ffd5b8301601f81018513610246575f5ffd5b80516001600160401b0381111561025f5761025f6101e0565b604051601f8201601f19908116603f011681016001600160401b038111828210171561028d5761028d6101e0565b6040528181528282016020018710156102a4575f5ffd5b8160208401602083015e5f602083830101528093505050509250929050565b5f602082840312156102d3575f5ffd5b815180151581146102e2575f5ffd5b9392505050565b602081525f82518060208401528060208501604085015e5f604082850101526040601f19601f83011684010191505092915050565b60805160a05160c05160e0516101005161012051613a0761036b5f395f818161070f015281816109fc015281816115bb015261179a01525f50505f50505f50505f50505f5050613a075ff3fe60806040526004361061012c575f3560e01c80635faac46b116100a45780638cc8ff1d116100735780639afb7c8d116100585780639afb7c8d14610391578063a71763a81461037d578063ea5f61d0146103a457610133565b80638cc8ff1d1461036a5780639517e29f1461037d57610133565b80635faac46b146102f057806377182ae61461031d57806384b0196e14610330578063864378761461035757610133565b806341bede03116100fb578063544d5860116100e0578063544d58601461028e57806354ed06d5146102a15780635ab1bd53146102b457610133565b806341bede03146101c9578063481ddd23146101dc57610133565b80630a664dba1461013f57806310b7fca914610170578063112d3a7d1461018357806331025984146101b657610133565b3661013357005b61013d5f366103c3565b005b34801561014a575f5ffd5b506101536106a4565b6040516001600160a01b0390911681526020015b60405180910390f35b61013d61017e366004612d1a565b6106c8565b34801561018e575f5ffd5b506101a661019d366004612d6b565b5f949350505050565b6040519015158152602001610167565b61013d6101c4366004612dc3565b6106f8565b61013d6101d7366004612e4d565b610777565b3480156101e7575f5ffd5b506102666101f6366004612f77565b6001600160e01b0319165f9081527f0bb70095b32b9671358306b0339b4c06e7cbd8cb82505941fba30d1eb5b82f0260209081526040918290208251808401909352546001600160a01b038116808452600160a01b90910460f81b6001600160f81b031916929091018290529091565b604080516001600160f81b031990931683526001600160a01b03909116602083015201610167565b61013d61029c366004613105565b6107bd565b61013d6102af366004613226565b6107db565b3480156102bf575f5ffd5b507f0bb70095b32b9671358306b0339b4c06e7cbd8cb82505941fba30d1eb5b82f08546001600160a01b0316610153565b3480156102fb575f5ffd5b5061030f61030a36600461328f565b61080b565b6040516101679291906132b9565b61013d61032b366004613318565b610844565b34801561033b575f5ffd5b50610344610858565b60405161016797969594939291906134a0565b61013d610365366004613536565b6108cc565b61013d610378366004613630565b610902565b61013d61038b366004612d6b565b50505050565b61013d61039f3660046136c4565b61090e565b3480156103af575f5ffd5b5061030f6103be36600461328f565b61091a565b5f80356001600160e01b03191681527f0bb70095b32b9671358306b0339b4c06e7cbd8cb82505941fba30d1eb5b82f02602052604081208054606091906001600160a01b03811690600160a01b900460f81b8115610653575f61043a5f5160206139db5f395f51905f52546001600160a01b031690565b905060606001600160a01b038216156104c45760405163d68f602560e01b81526001600160a01b0383169063d68f60259061047f90339034905f903690600401613750565b5f604051808303815f875af115801561049a573d5f5f3e3d5ffd5b505050506040513d5f823e601f3d908101601f191682016040526104c19190810190613782565b90505b6104d283607f60f91b610948565b1561054057836001600160a01b03166104eb8a8a61095f565b6040516104f89190613816565b5f60405180830381855afa9150503d805f8114610530576040519150601f19603f3d011682016040523d82523d5f602084013e610535565b606091505b5090975095506105d5565b61054a835f610948565b156105ab57836001600160a01b0316346105648b8b61095f565b6040516105719190613816565b5f6040518083038185875af1925050503d805f8114610530576040519150601f19603f3d011682016040523d82523d5f602084013e610535565b604051632e5bf3f960e21b81526001600160f81b0319841660048201526024015b60405180910390fd5b866105e257855160208701fd5b6001600160a01b0382161561064b57604051630b9dfbed60e11b81526001600160a01b0383169063173bf7da9061061d90849060040161382c565b5f604051808303815f87803b158015610634575f5ffd5b505af1158015610646573d5f5f3e3d5ffd5b505050505b855160208701f35b5f3560e01c63150b7a02811463f23a6e61821463bc197c81831417171561067e57806020526020603cf35b6040516308c63e2760e01b81526001600160e01b03195f351660048201526024016105cc565b5f6106c35f5160206139db5f395f51905f52546001600160a01b031690565b905090565b604080516060810182525f8082528251818152602080820185528301529181019190915261038b84848484610994565b6040516306d61fe760e41b81526001600160a01b037f00000000000000000000000000000000000000000000000000000000000000001690636d61fe7090610746908590859060040161383e565b5f604051808303815f87803b15801561075d575f5ffd5b505af115801561076f573d5f5f3e3d5ffd5b505050505050565b604080516060810182525f808252825181815260208082018552830152918101919091526107af8c8c8c8c8c8c8c8c8c8c8c8c6109dd565b505050505050505050505050565b6107cf8a8a8a8a8a8a8a8a8a8a610fc7565b50505050505050505050565b604080516060810182525f8082528251818152602080820185528301529181019190915261038b8484848461135c565b60605f6108397f0bb70095b32b9671358306b0339b4c06e7cbd8cb82505941fba30d1eb5b82f008585611493565b909590945092505050565b6107af8c8c8c8c8c8c8c8c8c8c8c8c6109dd565b600f60f81b6060805f8080836108ba604080518082018252600e81527f4e65787573426f6f74737472617000000000000000000000000000000000000060208083019190915282518084019093526005835264312e322e3160d81b9083015291565b97989097965046955030945091925090565b604080516060810182525f808252825181815260208082018552830152918101919091526107cf8a8a8a8a8a8a8a8a8a8a610fc7565b61038b8484848461135c565b61038b84848484610994565b60605f6108397f0bb70095b32b9671358306b0339b4c06e7cbd8cb82505941fba30d1eb5b82f018585611493565b6001600160f81b0319828116908216145b92915050565b6060604080513681016020019091529050601436018152365f602083013760408051601481019091523360601b905292915050565b61099c6114ad565b6109a7848484611503565b60408051600181526001600160a01b03861660208201525f5160206139bb5f395f51905f5291015b60405180910390a150505050565b6109e56114ad565b6040516306d61fe760e41b81526001600160a01b037f00000000000000000000000000000000000000000000000000000000000000001690636d61fe7090610a33908f908f9060040161383e565b5f604051808303815f87803b158015610a4a575f5ffd5b505af1158015610a5c573d5f5f3e3d5ffd5b505050505f5b89811015610b82575f8b8b83818110610a7d57610a7d613859565b9050602002810190610a8f919061386d565b610a9d90602081019061388b565b6001600160a01b031614610b7a57610b178b8b83818110610ac057610ac0613859565b9050602002810190610ad2919061386d565b610ae090602081019061388b565b8c8c84818110610af257610af2613859565b9050602002810190610b04919061386d565b610b129060208101906138a6565b611503565b5f5160206139bb5f395f51905f5260018c8c84818110610b3957610b39613859565b9050602002810190610b4b919061386d565b610b5990602081019061388b565b604080519283526001600160a01b0390911660208301520160405180910390a15b600101610a62565b505f5b87811015610ca5575f898983818110610ba057610ba0613859565b9050602002810190610bb2919061386d565b610bc090602081019061388b565b6001600160a01b031614610c9d57610c3a898983818110610be357610be3613859565b9050602002810190610bf5919061386d565b610c0390602081019061388b565b8a8a84818110610c1557610c15613859565b9050602002810190610c27919061386d565b610c359060208101906138a6565b6118d1565b5f5160206139bb5f395f51905f5260028a8a84818110610c5c57610c5c613859565b9050602002810190610c6e919061386d565b610c7c90602081019061388b565b604080519283526001600160a01b0390911660208301520160405180910390a15b600101610b85565b505f610cb4602088018861388b565b6001600160a01b031614610d2257610ce4610cd2602088018861388b565b610cdf60208901896138a6565b611adf565b5f5160206139bb5f395f51905f526004610d01602089018961388b565b604080519283526001600160a01b0390911660208301520160405180910390a15b5f5b84811015610e44575f868683818110610d3f57610d3f613859565b9050602002810190610d51919061386d565b610d5f90602081019061388b565b6001600160a01b031614610e3c57610dd9868683818110610d8257610d82613859565b9050602002810190610d94919061386d565b610da290602081019061388b565b878784818110610db457610db4613859565b9050602002810190610dc6919061386d565b610dd49060208101906138a6565b611e7c565b5f5160206139bb5f395f51905f526003878784818110610dfb57610dfb613859565b9050602002810190610e0d919061386d565b610e1b90602081019061388b565b604080519283526001600160a01b0390911660208301520160405180910390a15b600101610d24565b505f5b82811015610fb8575f848483818110610e6257610e62613859565b9050602002810190610e7491906138e9565b610e8590604081019060200161388b565b6001600160a01b031614610fb057610f27848483818110610ea857610ea8613859565b9050602002810190610eba91906138e9565b35858584818110610ecd57610ecd613859565b9050602002810190610edf91906138e9565b610ef090604081019060200161388b565b868685818110610f0257610f02613859565b9050602002810190610f1491906138e9565b610f229060408101906138a6565b612546565b5f5160206139bb5f395f51905f52848483818110610f4757610f47613859565b9050602002810190610f5991906138e9565b35858584818110610f6c57610f6c613859565b9050602002810190610f7e91906138e9565b610f8f90604081019060200161388b565b604080519283526001600160a01b0390911660208301520160405180910390a15b600101610e47565b50505050505050505050505050565b610fcf6114ad565b5f5b8981101561105857610fee8b8b83818110610ac057610ac0613859565b5f5160206139bb5f395f51905f5260018c8c8481811061101057611010613859565b9050602002810190611022919061386d565b61103090602081019061388b565b604080519283526001600160a01b0390911660208301520160405180910390a1600101610fd1565b505f5b87811015611124575f89898381811061107657611076613859565b9050602002810190611088919061386d565b61109690602081019061388b565b6001600160a01b03161461111c576110b9898983818110610be357610be3613859565b5f5160206139bb5f395f51905f5260028a8a848181106110db576110db613859565b90506020028101906110ed919061386d565b6110fb90602081019061388b565b604080519283526001600160a01b0390911660208301520160405180910390a15b60010161105b565b505f5b848110156111f0575f86868381811061114257611142613859565b9050602002810190611154919061386d565b61116290602081019061388b565b6001600160a01b0316146111e857611185868683818110610d8257610d82613859565b5f5160206139bb5f395f51905f5260038787848181106111a7576111a7613859565b90506020028101906111b9919061386d565b6111c790602081019061388b565b604080519283526001600160a01b0390911660208301520160405180910390a15b600101611127565b505f6111ff602088018861388b565b6001600160a01b03161461125b5761121d610cd2602088018861388b565b5f5160206139bb5f395f51905f52600461123a602089018961388b565b604080519283526001600160a01b0390911660208301520160405180910390a15b5f5b8281101561134f575f84848381811061127857611278613859565b905060200281019061128a91906138e9565b61129b90604081019060200161388b565b6001600160a01b031614611347576112be848483818110610ea857610ea8613859565b5f5160206139bb5f395f51905f528484838181106112de576112de613859565b90506020028101906112f091906138e9565b3585858481811061130357611303613859565b905060200281019061131591906138e9565b61132690604081019060200161388b565b604080519283526001600160a01b0390911660208301520160405180910390a15b60010161125d565b5050505050505050505050565b6113646114ad565b5f5b8381101561141f576113b585858381811061138357611383613859565b9050602002810190611395919061386d565b6113a390602081019061388b565b868684818110610af257610af2613859565b5f5160206139bb5f395f51905f5260018686848181106113d7576113d7613859565b90506020028101906113e9919061386d565b6113f790602081019061388b565b604080519283526001600160a01b0390911660208301520160405180910390a1600101611366565b505f61142e602084018461388b565b6001600160a01b03161461038b5761145961144c602084018461388b565b610cdf60208501856138a6565b5f5160206139bb5f395f51905f526004611476602085018561388b565b604080519283526001600160a01b039091166020830152016109cf565b60605f6114a18585856128af565b90969095509350505050565b7f0bb70095b32b9671358306b0339b4c06e7cbd8cb82505941fba30d1eb5b82f006114f77f0bb70095b32b9671358306b0339b4c06e7cbd8cb82505941fba30d1eb5b82f01612a57565b61150081612a57565b50565b5f6115225f5160206139db5f395f51905f52546001600160a01b031690565b90506001600160a01b0381166116995783600160405163ecd0596160e01b8152600160048201526001600160a01b0387169063ecd0596190602401602060405180830381865afa158015611578573d5f5f3e3d5ffd5b505050506040513d601f19601f8201168201806040525081019061159c91906138fd565b6115b957604051631c4f83bb60e31b815260040160405180910390fd5b7f00000000000000000000000000000000000000000000000000000000000000006001600160a01b0316866001600160a01b03160361160b5760405163abc3af7960e01b815260040160405180910390fd5b611637867f0bb70095b32b9671358306b0339b4c06e7cbd8cb82505941fba30d1eb5b82f005b90612ab6565b6040516306d61fe760e41b81526001600160a01b03871690636d61fe7090611665908890889060040161383e565b5f604051808303815f87803b15801561167c575f5ffd5b505af115801561168e573d5f5f3e3d5ffd5b50505050505061038b565b60405163d68f602560e01b81525f906001600160a01b0383169063d68f6025906116cd903390349086903690600401613750565b5f604051808303815f875af11580156116e8573d5f5f3e3d5ffd5b505050506040513d5f823e601f3d908101601f1916820160405261170f9190810190613782565b905084600160405163ecd0596160e01b8152600160048201526001600160a01b0388169063ecd0596190602401602060405180830381865afa158015611757573d5f5f3e3d5ffd5b505050506040513d601f19601f8201168201806040525081019061177b91906138fd565b61179857604051631c4f83bb60e31b815260040160405180910390fd5b7f00000000000000000000000000000000000000000000000000000000000000006001600160a01b0316876001600160a01b0316036117ea5760405163abc3af7960e01b815260040160405180910390fd5b611814877f0bb70095b32b9671358306b0339b4c06e7cbd8cb82505941fba30d1eb5b82f00611631565b6040516306d61fe760e41b81526001600160a01b03881690636d61fe7090611842908990899060040161383e565b5f604051808303815f87803b158015611859575f5ffd5b505af115801561186b573d5f5f3e3d5ffd5b5050604051630b9dfbed60e11b81526001600160a01b038716945063173bf7da935061189d925085915060040161382c565b5f604051808303815f87803b1580156118b4575f5ffd5b505af11580156118c6573d5f5f3e3d5ffd5b505050505050505050565b5f6118f05f5160206139db5f395f51905f52546001600160a01b031690565b90506001600160a01b0381166119b65783600260405163ecd0596160e01b8152600260048201526001600160a01b0387169063ecd0596190602401602060405180830381865afa158015611946573d5f5f3e3d5ffd5b505050506040513d601f19601f8201168201806040525081019061196a91906138fd565b61198757604051631c4f83bb60e31b815260040160405180910390fd5b611637867f0bb70095b32b9671358306b0339b4c06e7cbd8cb82505941fba30d1eb5b82f005b60010190612ab6565b60405163d68f602560e01b81525f906001600160a01b0383169063d68f6025906119ea903390349086903690600401613750565b5f604051808303815f875af1158015611a05573d5f5f3e3d5ffd5b505050506040513d5f823e601f3d908101601f19168201604052611a2c9190810190613782565b905084600260405163ecd0596160e01b8152600260048201526001600160a01b0388169063ecd0596190602401602060405180830381865afa158015611a74573d5f5f3e3d5ffd5b505050506040513d601f19601f82011682018060405250810190611a9891906138fd565b611ab557604051631c4f83bb60e31b815260040160405180910390fd5b611814877f0bb70095b32b9671358306b0339b4c06e7cbd8cb82505941fba30d1eb5b82f006119ad565b5f611afe5f5160206139db5f395f51905f52546001600160a01b031690565b90506001600160a01b038116611c755783600460405163ecd0596160e01b81526004808201526001600160a01b0387169063ecd0596190602401602060405180830381865afa158015611b53573d5f5f3e3d5ffd5b505050506040513d601f19601f82011682018060405250810190611b7791906138fd565b611b9457604051631c4f83bb60e31b815260040160405180910390fd5b5f611bb35f5160206139db5f395f51905f52546001600160a01b031690565b9050806001600160a01b03811615611bea5760405163741cbe0360e01b81526001600160a01b0390911660048201526024016105cc565b505f5160206139db5f395f51905f5280546001600160a01b0319166001600160a01b0389161790556040516306d61fe760e41b81526001600160a01b03881690636d61fe7090611c40908990899060040161383e565b5f604051808303815f87803b158015611c57575f5ffd5b505af1158015611c69573d5f5f3e3d5ffd5b5050505050505061038b565b60405163d68f602560e01b81525f906001600160a01b0383169063d68f602590611ca9903390349086903690600401613750565b5f604051808303815f875af1158015611cc4573d5f5f3e3d5ffd5b505050506040513d5f823e601f3d908101601f19168201604052611ceb9190810190613782565b905084600460405163ecd0596160e01b81526004808201526001600160a01b0388169063ecd0596190602401602060405180830381865afa158015611d32573d5f5f3e3d5ffd5b505050506040513d601f19601f82011682018060405250810190611d5691906138fd565b611d7357604051631c4f83bb60e31b815260040160405180910390fd5b5f611d925f5160206139db5f395f51905f52546001600160a01b031690565b9050806001600160a01b03811615611dc95760405163741cbe0360e01b81526001600160a01b0390911660048201526024016105cc565b505f5160206139db5f395f51905f5280546001600160a01b0319166001600160a01b038a161790556040516306d61fe760e41b81526001600160a01b03891690636d61fe7090611e1f908a908a9060040161383e565b5f604051808303815f87803b158015611e36575f5ffd5b505af1158015611e48573d5f5f3e3d5ffd5b5050604051630b9dfbed60e11b81526001600160a01b038816955063173bf7da945061189d9350869250600401905061382c565b5f611e9b5f5160206139db5f395f51905f52546001600160a01b031690565b90506001600160a01b0381166121a95783600360405163ecd0596160e01b8152600360048201526001600160a01b0387169063ecd0596190602401602060405180830381865afa158015611ef1573d5f5f3e3d5ffd5b505050506040513d601f19601f82011682018060405250810190611f1591906138fd565b611f3257604051631c4f83bb60e31b815260040160405180910390fd5b5f611f40600482878961391c565b611f4991613943565b90505f86866004818110611f5f57611f5f613859565b9050013560f81c60f81b9050611f78815f60f81b610948565b80611f8c5750611f8c81607f60f91b610948565b611fa95760405163867a1dcf60e01b815260040160405180910390fd5b5f611fb7876005818b61391c565b8080601f0160208091040260200160405190810160405280939291908181526020018383808284375f920191909152509293505050506001600160e01b031983166306d61fe760e41b148061201c57506001600160e01b03198316638a91b0e360e01b145b8061202f57506001600160e01b03198316155b1561204d5760405163c001660b60e01b815260040160405180910390fd5b6001600160e01b031983165f9081527f0bb70095b32b9671358306b0339b4c06e7cbd8cb82505941fba30d1eb5b82f02602052604090205483906001600160a01b0316156120bb5760405163a56a04dd60e01b81526001600160e01b031990911660048201526024016105cc565b506040805180820182526001600160a01b038b81168083526001600160f81b0319861660208085019182526001600160e01b031989165f9081527f0bb70095b32b9671358306b0339b4c06e7cbd8cb82505941fba30d1eb5b82f0290915285902093518454915160f81c600160a01b0274ffffffffffffffffffffffffffffffffffffffffff199092169316929092179190911790915590516306d61fe760e41b8152636d61fe709061217290849060040161382c565b5f604051808303815f87803b158015612189575f5ffd5b505af115801561219b573d5f5f3e3d5ffd5b50505050505050505061038b565b60405163d68f602560e01b81525f906001600160a01b0383169063d68f6025906121dd903390349086903690600401613750565b5f604051808303815f875af11580156121f8573d5f5f3e3d5ffd5b505050506040513d5f823e601f3d908101601f1916820160405261221f9190810190613782565b905084600360405163ecd0596160e01b8152600360048201526001600160a01b0388169063ecd0596190602401602060405180830381865afa158015612267573d5f5f3e3d5ffd5b505050506040513d601f19601f8201168201806040525081019061228b91906138fd565b6122a857604051631c4f83bb60e31b815260040160405180910390fd5b5f6122b6600482888a61391c565b6122bf91613943565b90505f878760048181106122d5576122d5613859565b9050013560f81c60f81b90506122ee815f60f81b610948565b80612302575061230281607f60f91b610948565b61231f5760405163867a1dcf60e01b815260040160405180910390fd5b5f61232d886005818c61391c565b8080601f0160208091040260200160405190810160405280939291908181526020018383808284375f920191909152509293505050506001600160e01b031983166306d61fe760e41b148061239257506001600160e01b03198316638a91b0e360e01b145b806123a557506001600160e01b03198316155b156123c35760405163c001660b60e01b815260040160405180910390fd5b6001600160e01b031983165f9081527f0bb70095b32b9671358306b0339b4c06e7cbd8cb82505941fba30d1eb5b82f02602052604090205483906001600160a01b0316156124315760405163a56a04dd60e01b81526001600160e01b031990911660048201526024016105cc565b506040805180820182526001600160a01b038c81168083526001600160f81b0319861660208085019182526001600160e01b031989165f9081527f0bb70095b32b9671358306b0339b4c06e7cbd8cb82505941fba30d1eb5b82f0290915285902093518454915160f81c600160a01b0274ffffffffffffffffffffffffffffffffffffffffff199092169316929092179190911790915590516306d61fe760e41b8152636d61fe70906124e890849060040161382c565b5f604051808303815f87803b1580156124ff575f5ffd5b505af1158015612511573d5f5f3e3d5ffd5b505050505050505050816001600160a01b031663173bf7da826040518263ffffffff1660e01b815260040161189d919061382c565b5f6125655f5160206139db5f395f51905f52546001600160a01b031690565b90506001600160a01b0381166126aa57838560405163ecd0596160e01b8152600481018890526001600160a01b0387169063ecd0596190602401602060405180830381865afa1580156125ba573d5f5f3e3d5ffd5b505050506040513d601f19601f820116820180604052508101906125de91906138fd565b6125fb57604051631c4f83bb60e31b815260040160405180910390fd5b5f61260588612b8a565b9050806001600160a01b0381161561263c5760405163c689cd9760e01b81526001600160a01b0390911660048201526024016105cc565b506126478888612bf3565b6040516306d61fe760e41b81526001600160a01b03881690636d61fe7090612675908990899060040161383e565b5f604051808303815f87803b15801561268c575f5ffd5b505af115801561269e573d5f5f3e3d5ffd5b505050505050506128a8565b60405163d68f602560e01b81525f906001600160a01b0383169063d68f6025906126de903390349086903690600401613750565b5f604051808303815f875af11580156126f9573d5f5f3e3d5ffd5b505050506040513d5f823e601f3d908101601f191682016040526127209190810190613782565b9050848660405163ecd0596160e01b8152600481018990526001600160a01b0388169063ecd0596190602401602060405180830381865afa158015612767573d5f5f3e3d5ffd5b505050506040513d601f19601f8201168201806040525081019061278b91906138fd565b6127a857604051631c4f83bb60e31b815260040160405180910390fd5b5f6127b289612b8a565b9050806001600160a01b038116156127e95760405163c689cd9760e01b81526001600160a01b0390911660048201526024016105cc565b506127f48989612bf3565b6040516306d61fe760e41b81526001600160a01b03891690636d61fe7090612822908a908a9060040161383e565b5f604051808303815f87803b158015612839575f5ffd5b505af115801561284b573d5f5f3e3d5ffd5b5050604051630b9dfbed60e11b81526001600160a01b038816955063173bf7da945061287f9350869250600401905061382c565b5f604051808303815f87803b158015612896575f5ffd5b505af11580156107cf573d5f5f3e3d5ffd5b5050505050565b60605f6001600160a01b0384166001148015906128d357506128d18585612c87565b155b156128fc57604051637c84ecfb60e01b81526001600160a01b03851660048201526024016105cc565b825f0361291c5760405163f725081760e01b815260040160405180910390fd5b8267ffffffffffffffff81111561293557612935612f9e565b60405190808252806020026020018201604052801561295e578160200160208202803683370190505b506001600160a01b038086165f90815260208890526040812054929450911691505b6001600160a01b038216158015906129a257506001600160a01b038216600114155b80156129ad57508381105b15612a0657818382815181106129c5576129c5613859565b6001600160a01b039283166020918202929092018101919091529281165f9081529287905260409092205490911690806129fe8161398f565b915050612980565b6001600160a01b038216600114801590612a1f57505f81115b15612a4b5782612a306001836139a7565b81518110612a4057612a40613859565b602002602001015191505b80835250935093915050565b60015f908152602082905260409020546001600160a01b031615612a8e576040516329e42f3360e11b815260040160405180910390fd5b60015f818152602092909252604090912080546001600160a01b0319169091179055565b5050565b6001600160a01b0381161580612ad557506001600160a01b0381166001145b15612afe57604051637c84ecfb60e01b81526001600160a01b03821660048201526024016105cc565b6001600160a01b038181165f908152602084905260409020541615612b4157604051631034f46960e21b81526001600160a01b03821660048201526024016105cc565b60015f818152602093909352604080842080546001600160a01b039485168087529286208054959091166001600160a01b03199586161790559190935280549091169091179055565b5f60088214612bc3577f0bb70095b32b9671358306b0339b4c06e7cbd8cb82505941fba30d1eb5b82f05546001600160a01b0316610959565b50507f0bb70095b32b9671358306b0339b4c06e7cbd8cb82505941fba30d1eb5b82f06546001600160a01b031690565b60088203612c3d577f0bb70095b32b9671358306b0339b4c06e7cbd8cb82505941fba30d1eb5b82f0680546001600160a01b0319166001600160a01b039290921691909117905550565b60098203612ab2577f0bb70095b32b9671358306b0339b4c06e7cbd8cb82505941fba30d1eb5b82f0580546001600160a01b0319166001600160a01b039290921691909117905550565b5f60016001600160a01b03831614801590612cba57506001600160a01b038281165f908152602085905260409020541615155b9392505050565b6001600160a01b0381168114611500575f5ffd5b5f5f83601f840112612ce5575f5ffd5b50813567ffffffffffffffff811115612cfc575f5ffd5b602083019150836020828501011115612d13575f5ffd5b9250929050565b5f5f5f60408486031215612d2c575f5ffd5b8335612d3781612cc1565b9250602084013567ffffffffffffffff811115612d52575f5ffd5b612d5e86828701612cd5565b9497909650939450505050565b5f5f5f5f60608587031215612d7e575f5ffd5b843593506020850135612d9081612cc1565b9250604085013567ffffffffffffffff811115612dab575f5ffd5b612db787828801612cd5565b95989497509550505050565b5f5f60208385031215612dd4575f5ffd5b823567ffffffffffffffff811115612dea575f5ffd5b6114a185828601612cd5565b5f5f83601f840112612e06575f5ffd5b50813567ffffffffffffffff811115612e1d575f5ffd5b6020830191508360208260051b8501011115612d13575f5ffd5b5f60408284031215612e47575f5ffd5b50919050565b5f5f5f5f5f5f5f5f5f5f5f60c08c8e031215612e67575f5ffd5b8b3567ffffffffffffffff811115612e7d575f5ffd5b612e898e828f01612cd5565b909c509a505060208c013567ffffffffffffffff811115612ea8575f5ffd5b612eb48e828f01612df6565b909a5098505060408c013567ffffffffffffffff811115612ed3575f5ffd5b612edf8e828f01612df6565b90985096505060608c013567ffffffffffffffff811115612efe575f5ffd5b612f0a8e828f01612e37565b95505060808c013567ffffffffffffffff811115612f26575f5ffd5b612f328e828f01612df6565b90955093505060a08c013567ffffffffffffffff811115612f51575f5ffd5b612f5d8e828f01612df6565b915080935050809150509295989b509295989b9093969950565b5f60208284031215612f87575f5ffd5b81356001600160e01b031981168114612cba575f5ffd5b634e487b7160e01b5f52604160045260245ffd5b6040516060810167ffffffffffffffff81118282101715612fd557612fd5612f9e565b60405290565b604051601f8201601f1916810167ffffffffffffffff8111828210171561300457613004612f9e565b604052919050565b803560ff8116811461301c575f5ffd5b919050565b5f60608284031215613031575f5ffd5b613039612fb2565b9050813561304681612cc1565b8152602082013567ffffffffffffffff811115613061575f5ffd5b8201601f81018413613071575f5ffd5b803567ffffffffffffffff81111561308b5761308b612f9e565b8060051b61309b60208201612fdb565b918252602081840181019290810190878411156130b6575f5ffd5b6020850194505b838510156130e457843592506130d283612cc1565b828252602094850194909101906130bd565b6020860152506130fa925050506040830161300c565b604082015292915050565b5f5f5f5f5f5f5f5f5f5f60c08b8d03121561311e575f5ffd5b8a3567ffffffffffffffff811115613134575f5ffd5b6131408d828e01612df6565b909b5099505060208b013567ffffffffffffffff81111561315f575f5ffd5b61316b8d828e01612df6565b90995097505060408b013567ffffffffffffffff81111561318a575f5ffd5b6131968d828e01612e37565b96505060608b013567ffffffffffffffff8111156131b2575f5ffd5b6131be8d828e01612df6565b90965094505060808b013567ffffffffffffffff8111156131dd575f5ffd5b6131e98d828e01612df6565b90945092505060a08b013567ffffffffffffffff811115613208575f5ffd5b6132148d828e01613021565b9150509295989b9194979a5092959850565b5f5f5f60408486031215613238575f5ffd5b833567ffffffffffffffff81111561324e575f5ffd5b61325a86828701612df6565b909450925050602084013567ffffffffffffffff811115613279575f5ffd5b61328586828701612e37565b9150509250925092565b5f5f604083850312156132a0575f5ffd5b82356132ab81612cc1565b946020939093013593505050565b604080825283519082018190525f9060208501906060840190835b818110156132fb5783516001600160a01b03168352602093840193909201916001016132d4565b505080925050506001600160a01b03831660208301529392505050565b5f5f5f5f5f5f5f5f5f5f5f5f60e08d8f031215613333575f5ffd5b67ffffffffffffffff8d351115613348575f5ffd5b6133558e8e358f01612cd5565b909c509a5067ffffffffffffffff60208e01351115613372575f5ffd5b6133828e60208f01358f01612df6565b909a50985067ffffffffffffffff60408e0135111561339f575f5ffd5b6133af8e60408f01358f01612df6565b909850965067ffffffffffffffff60608e013511156133cc575f5ffd5b6133dc8e60608f01358f01612e37565b955067ffffffffffffffff60808e013511156133f6575f5ffd5b6134068e60808f01358f01612df6565b909550935067ffffffffffffffff60a08e01351115613423575f5ffd5b6134338e60a08f01358f01612df6565b909350915067ffffffffffffffff60c08e01351115613450575f5ffd5b6134608e60c08f01358f01613021565b90509295989b509295989b509295989b565b5f81518084528060208401602086015e5f602082860101526020601f19601f83011685010191505092915050565b60ff60f81b8816815260e060208201525f6134be60e0830189613472565b82810360408401526134d08189613472565b606084018890526001600160a01b038716608085015260a0840186905283810360c0850152845180825260208087019350909101905f5b81811015613525578351835260209384019390920191600101613507565b50909b9a5050505050505050505050565b5f5f5f5f5f5f5f5f5f60a08a8c03121561354e575f5ffd5b893567ffffffffffffffff811115613564575f5ffd5b6135708c828d01612df6565b909a5098505060208a013567ffffffffffffffff81111561358f575f5ffd5b61359b8c828d01612df6565b90985096505060408a013567ffffffffffffffff8111156135ba575f5ffd5b6135c68c828d01612e37565b95505060608a013567ffffffffffffffff8111156135e2575f5ffd5b6135ee8c828d01612df6565b90955093505060808a013567ffffffffffffffff81111561360d575f5ffd5b6136198c828d01612df6565b915080935050809150509295985092959850929598565b5f5f5f5f60608587031215613643575f5ffd5b843567ffffffffffffffff811115613659575f5ffd5b61366587828801612df6565b909550935050602085013567ffffffffffffffff811115613684575f5ffd5b61369087828801612e37565b925050604085013567ffffffffffffffff8111156136ac575f5ffd5b6136b887828801613021565b91505092959194509250565b5f5f5f5f606085870312156136d7575f5ffd5b84356136e281612cc1565b9350602085013567ffffffffffffffff8111156136fd575f5ffd5b61370987828801612cd5565b909450925050604085013567ffffffffffffffff8111156136ac575f5ffd5b81835281816020850137505f828201602090810191909152601f909101601f19169091010190565b6001600160a01b0385168152836020820152606060408201525f613778606083018486613728565b9695505050505050565b5f60208284031215613792575f5ffd5b815167ffffffffffffffff8111156137a8575f5ffd5b8201601f810184136137b8575f5ffd5b805167ffffffffffffffff8111156137d2576137d2612f9e565b6137e5601f8201601f1916602001612fdb565b8181528560208385010111156137f9575f5ffd5b8160208401602083015e5f91810160200191909152949350505050565b5f82518060208501845e5f920191825250919050565b602081525f612cba6020830184613472565b602081525f613851602083018486613728565b949350505050565b634e487b7160e01b5f52603260045260245ffd5b5f8235603e19833603018112613881575f5ffd5b9190910192915050565b5f6020828403121561389b575f5ffd5b8135612cba81612cc1565b5f5f8335601e198436030181126138bb575f5ffd5b83018035915067ffffffffffffffff8211156138d5575f5ffd5b602001915036819003821315612d13575f5ffd5b5f8235605e19833603018112613881575f5ffd5b5f6020828403121561390d575f5ffd5b81518015158114612cba575f5ffd5b5f5f8585111561392a575f5ffd5b83861115613936575f5ffd5b5050820193919092039150565b80356001600160e01b03198116906004841015613974576001600160e01b0319600485900360031b81901b82161691505b5092915050565b634e487b7160e01b5f52601160045260245ffd5b5f600182016139a0576139a061397b565b5060010190565b818103818111156109595761095961397b56fed21d0b289f126c4b473ea641963e766833c2f13866e4ff480abd787c100ef1230bb70095b32b9671358306b0339b4c06e7cbd8cb82505941fba30d1eb5b82f03a164736f6c634300081b000a","linkReferences":{}},"methodIdentifiers":{"eip712Domain()":"84b0196e","getActiveHook()":"0a664dba","getExecutorsPaginated(address,uint256)":"ea5f61d0","getFallbackHandlerBySelector(bytes4)":"481ddd23","getRegistry()":"5ab1bd53","getValidatorsPaginated(address,uint256)":"5faac46b","initNexus((address,bytes)[],(address,bytes)[],(address,bytes),(address,bytes)[],(uint256,address,bytes)[],(address,address[],uint8))":"544d5860","initNexusNoRegistry((address,bytes)[],(address,bytes)[],(address,bytes),(address,bytes)[],(uint256,address,bytes)[])":"86437876","initNexusScoped((address,bytes)[],(address,bytes),(address,address[],uint8))":"8cc8ff1d","initNexusScopedNoRegistry((address,bytes)[],(address,bytes))":"54ed06d5","initNexusWithDefaultValidator(bytes)":"31025984","initNexusWithDefaultValidatorAndOtherModules(bytes,(address,bytes)[],(address,bytes)[],(address,bytes),(address,bytes)[],(uint256,address,bytes)[],(address,address[],uint8))":"77182ae6","initNexusWithDefaultValidatorAndOtherModulesNoRegistry(bytes,(address,bytes)[],(address,bytes)[],(address,bytes),(address,bytes)[],(uint256,address,bytes)[])":"41bede03","initNexusWithSingleValidator(address,bytes,(address,address[],uint8))":"9afb7c8d","initNexusWithSingleValidatorNoRegistry(address,bytes)":"10b7fca9","installModule(uint256,address,bytes)":"9517e29f","isModuleInstalled(uint256,address,bytes)":"112d3a7d","uninstallModule(uint256,address,bytes)":"a71763a8"},"id":18}