{"abi":[{"type":"constructor","inputs":[{"name":"defaultValidator","type":"address","internalType":"address"},{"name":"initData","type":"bytes","internalType":"bytes"}],"stateMutability":"nonpayable"},{"type":"fallback","stateMutability":"payable"},{"type":"receive","stateMutability":"payable"},{"type":"function","name":"eip712Domain","inputs":[],"outputs":[{"name":"fields","type":"bytes1","internalType":"bytes1"},{"name":"name","type":"string","internalType":"string"},{"name":"version","type":"string","internalType":"string"},{"name":"chainId","type":"uint256","internalType":"uint256"},{"name":"verifyingContract","type":"address","internalType":"address"},{"name":"salt","type":"bytes32","internalType":"bytes32"},{"name":"extensions","type":"uint256[]","internalType":"uint256[]"}],"stateMutability":"view"},{"type":"function","name":"getActiveHook","inputs":[],"outputs":[{"name":"hook","type":"address","internalType":"address"}],"stateMutability":"view"},{"type":"function","name":"getExecutorsPaginated","inputs":[{"name":"cursor","type":"address","internalType":"address"},{"name":"size","type":"uint256","internalType":"uint256"}],"outputs":[{"name":"array","type":"address[]","internalType":"address[]"},{"name":"next","type":"address","internalType":"address"}],"stateMutability":"view"},{"type":"function","name":"getFallbackHandlerBySelector","inputs":[{"name":"selector","type":"bytes4","internalType":"bytes4"}],"outputs":[{"name":"","type":"bytes1","internalType":"CallType"},{"name":"","type":"address","internalType":"address"}],"stateMutability":"view"},{"type":"function","name":"getRegistry","inputs":[],"outputs":[{"name":"","type":"address","internalType":"contract IERC7484"}],"stateMutability":"view"},{"type":"function","name":"getValidatorsPaginated","inputs":[{"name":"cursor","type":"address","internalType":"address"},{"name":"size","type":"uint256","internalType":"uint256"}],"outputs":[{"name":"array","type":"address[]","internalType":"address[]"},{"name":"next","type":"address","internalType":"address"}],"stateMutability":"view"},{"type":"function","name":"initNexus","inputs":[{"name":"validators","type":"tuple[]","internalType":"struct BootstrapConfig[]","components":[{"name":"module","type":"address","internalType":"address"},{"name":"data","type":"bytes","internalType":"bytes"}]},{"name":"executors","type":"tuple[]","internalType":"struct BootstrapConfig[]","components":[{"name":"module","type":"address","internalType":"address"},{"name":"data","type":"bytes","internalType":"bytes"}]},{"name":"hook","type":"tuple","internalType":"struct BootstrapConfig","components":[{"name":"module","type":"address","internalType":"address"},{"name":"data","type":"bytes","internalType":"bytes"}]},{"name":"fallbacks","type":"tuple[]","internalType":"struct BootstrapConfig[]","components":[{"name":"module","type":"address","internalType":"address"},{"name":"data","type":"bytes","internalType":"bytes"}]},{"name":"preValidationHooks","type":"tuple[]","internalType":"struct BootstrapPreValidationHookConfig[]","components":[{"name":"hookType","type":"uint256","internalType":"uint256"},{"name":"module","type":"address","internalType":"address"},{"name":"data","type":"bytes","internalType":"bytes"}]},{"name":"registryConfig","type":"tuple","internalType":"struct RegistryConfig","components":[{"name":"registry","type":"address","internalType":"contract IERC7484"},{"name":"attesters","type":"address[]","internalType":"address[]"},{"name":"threshold","type":"uint8","internalType":"uint8"}]}],"outputs":[],"stateMutability":"payable"},{"type":"function","name":"initNexusNoRegistry","inputs":[{"name":"validators","type":"tuple[]","internalType":"struct BootstrapConfig[]","components":[{"name":"module","type":"address","internalType":"address"},{"name":"data","type":"bytes","internalType":"bytes"}]},{"name":"executors","type":"tuple[]","internalType":"struct BootstrapConfig[]","components":[{"name":"module","type":"address","internalType":"address"},{"name":"data","type":"bytes","internalType":"bytes"}]},{"name":"hook","type":"tuple","internalType":"struct BootstrapConfig","components":[{"name":"module","type":"address","internalType":"address"},{"name":"data","type":"bytes","internalType":"bytes"}]},{"name":"fallbacks","type":"tuple[]","internalType":"struct BootstrapConfig[]","components":[{"name":"module","type":"address","internalType":"address"},{"name":"data","type":"bytes","internalType":"bytes"}]},{"name":"preValidationHooks","type":"tuple[]","internalType":"struct BootstrapPreValidationHookConfig[]","components":[{"name":"hookType","type":"uint256","internalType":"uint256"},{"name":"module","type":"address","internalType":"address"},{"name":"data","type":"bytes","internalType":"bytes"}]}],"outputs":[],"stateMutability":"payable"},{"type":"function","name":"initNexusScoped","inputs":[{"name":"validators","type":"tuple[]","internalType":"struct BootstrapConfig[]","components":[{"name":"module","type":"address","internalType":"address"},{"name":"data","type":"bytes","internalType":"bytes"}]},{"name":"hook","type":"tuple","internalType":"struct BootstrapConfig","components":[{"name":"module","type":"address","internalType":"address"},{"name":"data","type":"bytes","internalType":"bytes"}]},{"name":"registryConfig","type":"tuple","internalType":"struct RegistryConfig","components":[{"name":"registry","type":"address","internalType":"contract IERC7484"},{"name":"attesters","type":"address[]","internalType":"address[]"},{"name":"threshold","type":"uint8","internalType":"uint8"}]}],"outputs":[],"stateMutability":"payable"},{"type":"function","name":"initNexusScopedNoRegistry","inputs":[{"name":"validators","type":"tuple[]","internalType":"struct BootstrapConfig[]","components":[{"name":"module","type":"address","internalType":"address"},{"name":"data","type":"bytes","internalType":"bytes"}]},{"name":"hook","type":"tuple","internalType":"struct BootstrapConfig","components":[{"name":"module","type":"address","internalType":"address"},{"name":"data","type":"bytes","internalType":"bytes"}]}],"outputs":[],"stateMutability":"payable"},{"type":"function","name":"initNexusWithDefaultValidator","inputs":[{"name":"data","type":"bytes","internalType":"bytes"}],"outputs":[],"stateMutability":"payable"},{"type":"function","name":"initNexusWithDefaultValidatorAndOtherModules","inputs":[{"name":"defaultValidatorInitData","type":"bytes","internalType":"bytes"},{"name":"validators","type":"tuple[]","internalType":"struct BootstrapConfig[]","components":[{"name":"module","type":"address","internalType":"address"},{"name":"data","type":"bytes","internalType":"bytes"}]},{"name":"executors","type":"tuple[]","internalType":"struct BootstrapConfig[]","components":[{"name":"module","type":"address","internalType":"address"},{"name":"data","type":"bytes","internalType":"bytes"}]},{"name":"hook","type":"tuple","internalType":"struct BootstrapConfig","components":[{"name":"module","type":"address","internalType":"address"},{"name":"data","type":"bytes","internalType":"bytes"}]},{"name":"fallbacks","type":"tuple[]","internalType":"struct BootstrapConfig[]","components":[{"name":"module","type":"address","internalType":"address"},{"name":"data","type":"bytes","internalType":"bytes"}]},{"name":"preValidationHooks","type":"tuple[]","internalType":"struct BootstrapPreValidationHookConfig[]","components":[{"name":"hookType","type":"uint256","internalType":"uint256"},{"name":"module","type":"address","internalType":"address"},{"name":"data","type":"bytes","internalType":"bytes"}]},{"name":"registryConfig","type":"tuple","internalType":"struct RegistryConfig","components":[{"name":"registry","type":"address","internalType":"contract IERC7484"},{"name":"attesters","type":"address[]","internalType":"address[]"},{"name":"threshold","type":"uint8","internalType":"uint8"}]}],"outputs":[],"stateMutability":"payable"},{"type":"function","name":"initNexusWithDefaultValidatorAndOtherModulesNoRegistry","inputs":[{"name":"defaultValidatorInitData","type":"bytes","internalType":"bytes"},{"name":"validators","type":"tuple[]","internalType":"struct BootstrapConfig[]","components":[{"name":"module","type":"address","internalType":"address"},{"name":"data","type":"bytes","internalType":"bytes"}]},{"name":"executors","type":"tuple[]","internalType":"struct BootstrapConfig[]","components":[{"name":"module","type":"address","internalType":"address"},{"name":"data","type":"bytes","internalType":"bytes"}]},{"name":"hook","type":"tuple","internalType":"struct BootstrapConfig","components":[{"name":"module","type":"address","internalType":"address"},{"name":"data","type":"bytes","internalType":"bytes"}]},{"name":"fallbacks","type":"tuple[]","internalType":"struct BootstrapConfig[]","components":[{"name":"module","type":"address","internalType":"address"},{"name":"data","type":"bytes","internalType":"bytes"}]},{"name":"preValidationHooks","type":"tuple[]","internalType":"struct BootstrapPreValidationHookConfig[]","components":[{"name":"hookType","type":"uint256","internalType":"uint256"},{"name":"module","type":"address","internalType":"address"},{"name":"data","type":"bytes","internalType":"bytes"}]}],"outputs":[],"stateMutability":"payable"},{"type":"function","name":"initNexusWithSingleValidator","inputs":[{"name":"validator","type":"address","internalType":"address"},{"name":"data","type":"bytes","internalType":"bytes"},{"name":"registryConfig","type":"tuple","internalType":"struct RegistryConfig","components":[{"name":"registry","type":"address","internalType":"contract IERC7484"},{"name":"attesters","type":"address[]","internalType":"address[]"},{"name":"threshold","type":"uint8","internalType":"uint8"}]}],"outputs":[],"stateMutability":"payable"},{"type":"function","name":"initNexusWithSingleValidatorNoRegistry","inputs":[{"name":"validator","type":"address","internalType":"address"},{"name":"data","type":"bytes","internalType":"bytes"}],"outputs":[],"stateMutability":"payable"},{"type":"function","name":"installModule","inputs":[{"name":"moduleTypeId","type":"uint256","internalType":"uint256"},{"name":"module","type":"address","internalType":"address"},{"name":"initData","type":"bytes","internalType":"bytes"}],"outputs":[],"stateMutability":"payable"},{"type":"function","name":"isModuleInstalled","inputs":[{"name":"moduleTypeId","type":"uint256","internalType":"uint256"},{"name":"module","type":"address","internalType":"address"},{"name":"additionalContext","type":"bytes","internalType":"bytes"}],"outputs":[{"name":"installed","type":"bool","internalType":"bool"}],"stateMutability":"view"},{"type":"function","name":"uninstallModule","inputs":[{"name":"moduleTypeId","type":"uint256","internalType":"uint256"},{"name":"module","type":"address","internalType":"address"},{"name":"deInitData","type":"bytes","internalType":"bytes"}],"outputs":[],"stateMutability":"payable"},{"type":"event","name":"ERC7484RegistryConfigured","inputs":[{"name":"registry","type":"address","indexed":true,"internalType":"contract IERC7484"}],"anonymous":false},{"type":"event","name":"ModuleInstalled","inputs":[{"name":"moduleTypeId","type":"uint256","indexed":false,"internalType":"uint256"},{"name":"module","type":"address","indexed":false,"internalType":"address"}],"anonymous":false},{"type":"event","name":"ModuleUninstalled","inputs":[{"name":"moduleTypeId","type":"uint256","indexed":false,"internalType":"uint256"},{"name":"module","type":"address","indexed":false,"internalType":"address"}],"anonymous":false},{"type":"error","name":"CanNotRemoveLastValidator","inputs":[]},{"type":"error","name":"DefaultValidatorAlreadyInstalled","inputs":[]},{"type":"error","name":"EmergencyUninstallSigError","inputs":[]},{"type":"error","name":"EnableModeSigError","inputs":[]},{"type":"error","name":"FallbackAlreadyInstalledForSelector","inputs":[{"name":"selector","type":"bytes4","internalType":"bytes4"}]},{"type":"error","name":"FallbackCallTypeInvalid","inputs":[]},{"type":"error","name":"FallbackHandlerUninstallFailed","inputs":[]},{"type":"error","name":"FallbackNotInstalledForSelector","inputs":[{"name":"selector","type":"bytes4","internalType":"bytes4"}]},{"type":"error","name":"FallbackSelectorForbidden","inputs":[]},{"type":"error","name":"HookAlreadyInstalled","inputs":[{"name":"currentHook","type":"address","internalType":"address"}]},{"type":"error","name":"HookPostCheckFailed","inputs":[]},{"type":"error","name":"InvalidInput","inputs":[]},{"type":"error","name":"InvalidModule","inputs":[{"name":"module","type":"address","internalType":"address"}]},{"type":"error","name":"InvalidModuleTypeId","inputs":[{"name":"moduleTypeId","type":"uint256","internalType":"uint256"}]},{"type":"error","name":"InvalidNonce","inputs":[]},{"type":"error","name":"LinkedList_AlreadyInitialized","inputs":[]},{"type":"error","name":"LinkedList_EntryAlreadyInList","inputs":[{"name":"entry","type":"address","internalType":"address"}]},{"type":"error","name":"LinkedList_InvalidEntry","inputs":[{"name":"entry","type":"address","internalType":"address"}]},{"type":"error","name":"LinkedList_InvalidPage","inputs":[]},{"type":"error","name":"MismatchModuleTypeId","inputs":[]},{"type":"error","name":"MissingFallbackHandler","inputs":[{"name":"selector","type":"bytes4","internalType":"bytes4"}]},{"type":"error","name":"ModuleAddressCanNotBeZero","inputs":[]},{"type":"error","name":"ModuleAlreadyInstalled","inputs":[{"name":"moduleTypeId","type":"uint256","internalType":"uint256"},{"name":"module","type":"address","internalType":"address"}]},{"type":"error","name":"ModuleNotInstalled","inputs":[{"name":"moduleTypeId","type":"uint256","internalType":"uint256"},{"name":"module","type":"address","internalType":"address"}]},{"type":"error","name":"NoValidatorInstalled","inputs":[]},{"type":"error","name":"PrevalidationHookAlreadyInstalled","inputs":[{"name":"currentPreValidationHook","type":"address","internalType":"address"}]},{"type":"error","name":"UnauthorizedOperation","inputs":[{"name":"operator","type":"address","internalType":"address"}]},{"type":"error","name":"UnsupportedCallType","inputs":[{"name":"callType","type":"bytes1","internalType":"CallType"}]},{"type":"error","name":"ValidatorNotInstalled","inputs":[{"name":"module","type":"address","internalType":"address"}]}],"bytecode":{"object":"0x610140806040523461023e57613161803803809161001d82856102aa565b833981019060408183031261023e578051906001600160a01b0382169081830361023e576020810151906001600160401b03821161023e570183601f8201121561023e5780516001600160401b0381116102965760405191610089601f8301601f1916602001846102aa565b81835260208301956020838301011161023e57815f926020809301885e83010152306080524660a05260409360a085516100c387826102aa565b600e815260208101906d04e65787573426f6f7473747261760941b82528751916100ed89846102aa565b60058352602083019164312e322e3160d81b8352519020915190208160c0528060e0528751917f8b73c3c69bb8fe3d512ecc4cf759cc79239f7b179b0ffacaa9a75d522b39400f83526020830152878201524660608201523060808201522061010052845163ecd0596160e01b815260016004820152602081602481875afa90811561028c575f91610251575b501561024257823b1561023e576044925f928387519586809581946306d61fe760e41b8352602060048401525180918160248501528484015e8181018301849052601f01601f191681010301925af1801561023457610224575b506101205251612e9390816102ce823960805181505060a05181505060c05181505060e051815050610100518150506101205181818161040a015281816111dc0152818161194801526120540152f35b5f61022e916102aa565b5f6101d4565b83513d5f823e3d90fd5b5f80fd5b631c4f83bb60e31b5f5260045ffd5b90506020813d602011610284575b8161026c602093836102aa565b8101031261023e5751801515810361023e575f61017a565b3d915061025f565b86513d5f823e3d90fd5b634e487b7160e01b5f52604160045260245ffd5b601f909101601f19168101906001600160401b038211908210176102965760405256fe60806040526004361015610015575b366116ff57005b5f3560e01c80630a664dba1461012f57806310b7fca91461012a578063112d3a7d14610125578063310259841461012057806341bede031461011b578063481ddd2314610116578063544d58601461011157806354ed06d51461010c5780635ab1bd53146101075780635faac46b1461010257806377182ae6146100fd57806384b0196e146100f857806386437876146100f35780638cc8ff1d146100ee5780639517e29f146100e45780639afb7c8d146100e9578063a71763a8146100e45763ea5f61d00361000e57611019565b610fac565b610fb5565b610ed6565b610e17565b610d2f565b610c0c565b610a62565b6109c6565b610871565b610795565b61059d565b6104bb565b6103d3565b6103b7565b6101bc565b610142565b5f91031261013e57565b5f80fd5b3461013e575f36600319011261013e5760206001600160a01b035f516020612e475f395f51905f5254166001600160a01b0360405191168152f35b6001600160a01b0381160361013e57565b9181601f8401121561013e5782359167ffffffffffffffff831161013e576020838186019501011161013e57565b604036600319011261013e576004356101d48161017d565b60243567ffffffffffffffff811161013e576101f490369060040161018e565b5f6040610202949394611115565b81519061020e82610665565b8382526020820152015261022061293f565b6102286129c1565b6001600160a01b0361024e6001600160a01b035f516020612e475f395f51905f52541690565b1680610298575090610272610293925f516020612e075f395f51905f52948361200c565b60408051600181526001600160a01b03909216602083015290918291820190565b0390a1005b906040519363d68f602560e01b85525f85806102b936343360048501611ea9565b038183875af1948515610348575f9561034d575b50906102d9918461200c565b803b1561013e57604051630b9dfbed60e11b8152925f9184918290849082906103059060048301611efe565b03925af1908115610348575f516020612e075f395f51905f52926102939261032e575b50610272565b8061033c5f61034293610681565b80610134565b5f610328565b611196565b6102d99291955061036f903d805f833e6103678183610681565b810190611e46565b9490916102cd565b606060031982011261013e57600435916024356103938161017d565b916044359067ffffffffffffffff821161013e576103b39160040161018e565b9091565b3461013e576103c536610377565b5050505060206040515f8152f35b5f602036600319011261013e5760043567ffffffffffffffff811161013e5761040090369060040161018e565b6001600160a01b037f00000000000000000000000000000000000000000000000000000000000000001691823b1561013e5761045c925f92836040518096819582946306d61fe760e41b84526020600485018181520191611162565b03925af180156103485761046e575080f35b61047a91505f90610681565b005b9181601f8401121561013e5782359167ffffffffffffffff831161013e576020808501948460051b01011161013e57565b9081604091031261013e5790565b60c036600319011261013e5760043567ffffffffffffffff811161013e576104e790369060040161018e565b60243567ffffffffffffffff811161013e5761050790369060040161047c565b60449391933567ffffffffffffffff811161013e5761052a90369060040161047c565b60649291923567ffffffffffffffff811161013e5761054d9036906004016104ad565b9060843567ffffffffffffffff811161013e5761056e90369060040161047c565b94909360a4359867ffffffffffffffff8a1161013e5761059561047a9a369060040161047c565b9990986111a1565b3461013e57602036600319011261013e576004356001600160e01b03198116810361013e576001600160e01b0319165f9081527f0bb70095b32b9671358306b0339b4c06e7cbd8cb82505941fba30d1eb5b82f026020526040902060405190604082019082821067ffffffffffffffff831117610651576040918252546001600160a01b03811680845260589190911b6001600160f81b0319166020938401819052825190815292830152819081015b0390f35b634e487b7160e01b5f52604160045260245ffd5b6060810190811067ffffffffffffffff82111761065157604052565b90601f8019910116810190811067ffffffffffffffff82111761065157604052565b604051906106b2604083610681565b565b67ffffffffffffffff81116106515760051b60200190565b359060ff8216820361013e57565b91909160608184031261013e57604051906106f482610665565b819381356107018161017d565b8352602082013567ffffffffffffffff811161013e5782019080601f8301121561013e578135610730816106b4565b9261073e6040519485610681565b81845260208085019260051b82010192831161013e57602001905b82821061077b5750505060408092610776926020860152016106cc565b910152565b60208091833561078a8161017d565b815201910190610759565b60c036600319011261013e5760043567ffffffffffffffff811161013e576107c190369060040161047c565b9060243567ffffffffffffffff811161013e576107e290369060040161047c565b9060443567ffffffffffffffff811161013e576108039036906004016104ad565b60643567ffffffffffffffff811161013e5761082390369060040161047c565b9160843567ffffffffffffffff811161013e5761084490369060040161047c565b95909460a4359867ffffffffffffffff8a1161013e5761086b61047a9a36906004016106da565b98611c40565b604036600319011261013e5760043567ffffffffffffffff811161013e5761089d90369060040161047c565b9060243567ffffffffffffffff811161013e576108be9036906004016104ad565b915f60406108ca611115565b8151906108d682610665565b838252602082015201526108e861293f565b6108f06129c1565b5f5b81811061096c57836001600160a01b0361090b82611be1565b1661091257005b61029361094b826109466109335f516020612e075f395f51905f5295611be1565b6109406020840184611beb565b916121fa565b611be1565b60408051600481526001600160a01b03909216602083015290918291820190565b8061099e6109806109466001948688611bba565b61099861098e848789611bba565b6020810190611beb565b91611f0f565b5f516020612e075f395f51905f526109bd610272610946848789611bba565b0390a1016108f2565b3461013e575f36600319011261013e5760206001600160a01b037f0bb70095b32b9671358306b0339b4c06e7cbd8cb82505941fba30d1eb5b82f085416604051908152f35b90929192604082016040835281518091526020606084019201905f5b818110610a43575050506001600160a01b036020919416910152565b82516001600160a01b0316845260209384019390920191600101610a27565b3461013e57604036600319011261013e57600435610a7f8161017d565b6024359060016001600160a01b038216141580610bf6575b610bdb578115610bcc5790610aab81611130565b610ae3610ad65f946001600160a01b03165f525f516020612e275f395f51905f5260205260405f2090565b546001600160a01b031690565b6001600160a01b0381168015159081610bc0575b5080610bb7575b15610b5857610b4c610ad682610b29610b5294610b1b89886128c9565b906001600160a01b03169052565b6001600160a01b03165f525f516020612e275f395f51905f5260205260405f2090565b936128f1565b92610ae3565b908360016001600160a01b038416141580610bae575b610b84575b815261064d60405192839283610a0b565b9150610ba8610b9b610b9584612904565b836128c9565b516001600160a01b031690565b91610b73565b50801515610b6e565b50828410610afe565b6001915014155f610af7565b63f725081760e01b5f5260045ffd5b637c84ecfb60e01b5f526001600160a01b031660045260245ffd5b50610c07610c0382612d86565b1590565b610a97565b60e036600319011261013e5760043567ffffffffffffffff811161013e57610c3890369060040161018e565b9060243567ffffffffffffffff811161013e57610c5990369060040161047c565b9060443567ffffffffffffffff811161013e57610c7a90369060040161047c565b9060643567ffffffffffffffff811161013e57610c9b9036906004016104ad565b60843567ffffffffffffffff811161013e57610cbb90369060040161047c565b93909260a43567ffffffffffffffff811161013e57610cde90369060040161047c565b97909660c4359a67ffffffffffffffff8c1161013e57610d0561047a9c36906004016106da565b9a611922565b805180835260209291819084018484015e5f828201840152601f01601f1916010190565b3461013e575f36600319011261013e57610db96040610dc6815191610d548184610681565b600e83527f4e65787573426f6f74737472617000000000000000000000000000000000000060208401528051610d8a8282610681565b6005815264312e322e3160d81b60208201528151948594600f60f81b865260e0602087015260e0860190610d0b565b9184830390850152610d0b565b4660608301523060808301525f60a083015281810360c083015260206060519182815201906080905f5b818110610dfe575050500390f35b8251845285945060209384019390920191600101610df0565b60a036600319011261013e5760043567ffffffffffffffff811161013e57610e4390369060040161047c565b60243567ffffffffffffffff811161013e57610e6390369060040161047c565b60449391933567ffffffffffffffff811161013e57610e869036906004016104ad565b9060643567ffffffffffffffff811161013e57610ea790369060040161047c565b9290916084359667ffffffffffffffff881161013e57610ece61047a98369060040161047c565b9790966114f6565b606036600319011261013e5760043567ffffffffffffffff811161013e57610f0290369060040161047c565b9060243567ffffffffffffffff811161013e57610f239036906004016104ad565b9160443567ffffffffffffffff811161013e57610f449036906004016106da565b50610f4d61293f565b610f556129c1565b5f5b818110610f7057836001600160a01b0361090b82611be1565b80610f846109806109466001948688611bba565b5f516020612e075f395f51905f52610fa3610272610946848789611bba565b0390a101610f57565b61047a36610377565b606036600319011261013e57600435610fcd8161017d565b60243567ffffffffffffffff811161013e57610fed90369060040161018e565b60449291923567ffffffffffffffff811161013e576110109036906004016106da565b5061022061293f565b3461013e57604036600319011261013e576004356110368161017d565b6024359060016001600160a01b038216141580611103575b610bdb578115610bcc579061106281611130565b61108d610ad65f946001600160a01b03165f525f516020612e675f395f51905f5260205260405f2090565b6001600160a01b03811680151590816110f7575b50806110ee575b15610b5857610b4c610ad6826110c56110e894610b1b89886128c9565b6001600160a01b03165f525f516020612e675f395f51905f5260205260405f2090565b9261108d565b508284106110a8565b6001915014155f6110a1565b50611110610c0382612dc6565b61104e565b60405190611124602083610681565b5f808352366020840137565b9061113a826106b4565b6111476040519182610681565b8281528092611158601f19916106b4565b0190602036910137565b908060209392818452848401375f828201840152601f01601f1916010190565b916020611193938181520191611162565b90565b6040513d5f823e3d90fd5b5f60406111ac611115565b8151906111b882610665565b838252602082015201526111ca61293f565b6111d26129c1565b6001600160a01b037f00000000000000000000000000000000000000000000000000000000000000001691823b1561013e57611227925f92836040518096819582946306d61fe760e41b845260048401611182565b03925af18015610348576114e2575b505f5b82811061147c575050505f5b8281106113ef5750505061126761125b82611be1565b6001600160a01b031690565b6113c5575b505f5b828110611338575050505f5b82811061128757505050565b806112a361125b602061129d6001958888611c1e565b01611be1565b15611333576112e86112b6828686611c1e565b356112c7602061129d858989611c1e565b906112e06112d6858989611c1e565b6040810190611beb565b929091612786565b5f516020612e075f395f51905f52611301828686611c1e565b35611312602061129d858989611c1e565b604080519283526001600160a01b0391909116602083015290a15b0161127b565b61132d565b8061134c61125b6109466001948787611bba565b156113c057611376611362610946838787611bba565b61137061098e848888611bba565b9161237d565b5f516020612e075f395f51905f526113b6611395610946848888611bba565b60408051600381526001600160a01b03909216602083015290918291820190565b0390a15b0161126f565b6113ba565b6113e661094b826109466109335f516020612e075f395f51905f5295611be1565b0390a15f61126c565b8061140361125b6109466001948787611bba565b156114775761142d611419610946838787611bba565b61142761098e848888611bba565b916120fa565b5f516020612e075f395f51905f5261146d61144c610946848888611bba565b60408051600281526001600160a01b03909216602083015290918291820190565b0390a15b01611245565b611471565b8061149061125b6109466001948787611bba565b156114dd576114b46114a6610946838787611bba565b61099861098e848888611bba565b5f516020612e075f395f51905f526114d3610272610946848888611bba565b0390a15b01611239565b6114d7565b8061033c5f6114f093610681565b5f611236565b90959493955f6040611506611115565b81519061151282610665565b8382526020820152015261152461293f565b61152c6129c1565b5f5b8181106116c3575050505f5b82811061166b575050505f5b8281106116135750505061155c61125b82611be1565b6115e9575b505f5b82811061157057505050565b8061158661125b602061129d6001958888611c1e565b156115e4576115996112b6828686611c1e565b5f516020612e075f395f51905f526115b2828686611c1e565b356115c3602061129d858989611c1e565b604080519283526001600160a01b0391909116602083015290a15b01611564565b6115de565b61160a61094b826109466109335f516020612e075f395f51905f5295611be1565b0390a15f611561565b8061162761125b6109466001948787611bba565b156116665761163d611362610946838787611bba565b5f516020612e075f395f51905f5261165c611395610946848888611bba565b0390a15b01611546565b611660565b8061167f61125b6109466001948787611bba565b156116be57611695611419610946838787611bba565b5f516020612e075f395f51905f526116b461144c610946848888611bba565b0390a15b0161153a565b6116b8565b806116d76109806109466001948688611bba565b5f516020612e075f395f51905f526116f6610272610946848789611bba565b0390a10161152e565b5f80356001600160e01b031981168083527f0bb70095b32b9671358306b0339b4c06e7cbd8cb82505941fba30d1eb5b82f026020526040909220546117586001600160a01b0382169160581b6001600160f81b03191690565b906001600160a01b0381166117ae57505060e01c9063bc197c81821463f23a6e6183141763150b7a028314176117a4576308c63e2760e01b5f526001600160e01b03191660045260245ffd5b506020526020603cf35b5f516020612e475f395f51905f52546001600160a01b03168015159260609290846118cb575b6001600160f81b03198116607f60f91b0361187957505f80916117f5612912565b90602082519201905afa92611808611ecf565b935b156118715761181c575b825160208401f35b803b1561013e57604051630b9dfbed60e11b8152915f9183918290849082906118489060048301611efe565b03925af180156103485761185d575b80611814565b8061033c5f61186b93610681565b81611857565b835160208501fd5b6001600160f81b031981166118af57505f8091611894612912565b906020825192019034905af1926118a9611ecf565b9361180a565b632e5bf3f960e21b5f526001600160f81b03191660045260245ffd5b60405163d68f602560e01b81529093505f81806118ed36343360048501611ea9565b038183875af1908115610348575f91611908575b50926117d4565b61191c91503d805f833e6103678183610681565b85611901565b909192939495969798999a5061193661293f565b61193e6129c1565b6001600160a01b037f00000000000000000000000000000000000000000000000000000000000000001691823b1561013e57611993925f92836040518096819582946306d61fe760e41b845260048401611182565b03925af1801561034857611b92575b505f5b828110611b3a575050505f5b828110611ae2575050506119c761125b82611be1565b611ab8575b505f5b828110611a60575050505f5b8281106119e757505050565b806119fd61125b602061129d6001958888611c1e565b15611a5b57611a106112b6828686611c1e565b5f516020612e075f395f51905f52611a29828686611c1e565b35611a3a602061129d858989611c1e565b604080519283526001600160a01b0391909116602083015290a15b016119db565b611a55565b80611a7461125b6109466001948787611bba565b15611ab357611a8a611362610946838787611bba565b5f516020612e075f395f51905f52611aa9611395610946848888611bba565b0390a15b016119cf565b611aad565b611ad961094b826109466109335f516020612e075f395f51905f5295611be1565b0390a15f6119cc565b80611af661125b6109466001948787611bba565b15611b3557611b0c611419610946838787611bba565b5f516020612e075f395f51905f52611b2b61144c610946848888611bba565b0390a15b016119b1565b611b2f565b80611b4e61125b6109466001948787611bba565b15611b8d57611b646114a6610946838787611bba565b5f516020612e075f395f51905f52611b83610272610946848888611bba565b0390a15b016119a5565b611b87565b8061033c5f611ba093610681565b5f6119a2565b634e487b7160e01b5f52603260045260245ffd5b9190811015611bdc5760051b81013590603e198136030182121561013e570190565b611ba6565b356111938161017d565b903590601e198136030182121561013e570180359067ffffffffffffffff821161013e5760200191813603831361013e57565b9190811015611bdc5760051b81013590605e198136030182121561013e570190565b91929396979850611c4f61293f565b611c576129c1565b5f5b818110611dee575050505f5b828110611d96575050505f5b828110611d3e57505050611c8761125b82611be1565b611d14575b505f5b828110611c9b57505050565b80611cb161125b602061129d6001958888611c1e565b15611d0f57611cc46112b6828686611c1e565b5f516020612e075f395f51905f52611cdd828686611c1e565b35611cee602061129d858989611c1e565b604080519283526001600160a01b0391909116602083015290a15b01611c8f565b611d09565b611d3561094b826109466109335f516020612e075f395f51905f5295611be1565b0390a15f611c8c565b80611d5261125b6109466001948787611bba565b15611d9157611d68611362610946838787611bba565b5f516020612e075f395f51905f52611d87611395610946848888611bba565b0390a15b01611c71565b611d8b565b80611daa61125b6109466001948787611bba565b15611de957611dc0611419610946838787611bba565b5f516020612e075f395f51905f52611ddf61144c610946848888611bba565b0390a15b01611c65565b611de3565b80611e026109806109466001948688611bba565b5f516020612e075f395f51905f52611e21610272610946848789611bba565b0390a101611c59565b67ffffffffffffffff811161065157601f01601f191660200190565b60208183031261013e5780519067ffffffffffffffff821161013e570181601f8201121561013e57805190611e7a82611e2a565b92611e886040519485610681565b8284526020838301011161013e57815f9260208093018386015e8301015290565b61119393926001600160a01b03606093168252602082015281604082015201905f611162565b3d15611ef9573d90611ee082611e2a565b91611eee6040519384610681565b82523d5f602084013e565b606090565b906020611193928181520190610d0b565b91906001600160a01b03611f376001600160a01b035f516020612e475f395f51905f52541690565b1680611f4757506106b29261200c565b60405163d68f602560e01b81529290915f8480611f6936343360048501611ea9565b038183875af1938415610348575f94611fd4575b50611f8992939461200c565b803b1561013e57604051630b9dfbed60e11b8152915f918391829084908290611fb59060048301611efe565b03925af1801561034857611fc65750565b8061033c5f6106b293610681565b611f89939450611fed903d805f833e6103678183610681565b9392611f7d565b9081602091031261013e5751801515810361013e5790565b60405163ecd0596160e01b8152600160048201526001600160a01b038216939190602081602481885afa908115610348575f916120cb575b50156120bc576001600160a01b037f00000000000000000000000000000000000000000000000000000000000000001684146120ad5761208390612a34565b823b1561013e57611fb5925f92836040518096819582946306d61fe760e41b845260048401611182565b63abc3af7960e01b5f5260045ffd5b631c4f83bb60e31b5f5260045ffd5b6120ed915060203d6020116120f3575b6120e58183610681565b810190611ff4565b5f612044565b503d6120db565b91906001600160a01b036121226001600160a01b035f516020612e475f395f51905f52541690565b168061213257506106b292612194565b60405163d68f602560e01b81529290915f848061215436343360048501611ea9565b038183875af1938415610348575f94612174575b50611f89929394612194565b611f8993945061218d903d805f833e6103678183610681565b9392612168565b60405163ecd0596160e01b8152600260048201526001600160a01b038216939190602081602481885afa908115610348575f916121db575b50156120bc5761208390612b6c565b6121f4915060203d6020116120f3576120e58183610681565b5f6121cc565b91906001600160a01b036122226001600160a01b035f516020612e475f395f51905f52541690565b168061223257506106b2926122b8565b60405163d68f602560e01b81529290915f848061225436343360048501611ea9565b038183875af1938415610348575f94612274575b50611f899293946122b8565b611f8993945061228d903d805f833e6103678183610681565b9392612268565b1561229c5750565b6001600160a01b039063741cbe0360e01b5f521660045260245ffd5b60405163ecd0596160e01b81526004808201526001600160a01b038216939190602081602481885afa908115610348575f9161235e575b50156120bc576120839061232a61231a6001600160a01b035f516020612e475f395f51905f52541690565b6001600160a01b03811615612294565b6001600160a01b03166001600160a01b03195f516020612e475f395f51905f525416175f516020612e475f395f51905f5255565b612377915060203d6020116120f3576120e58183610681565b5f6122ef565b91906001600160a01b036123a56001600160a01b035f516020612e475f395f51905f52541690565b16806123b557506106b29261250c565b60405163d68f602560e01b81529290915f84806123d736343360048501611ea9565b038183875af1938415610348575f946123f7575b50611f8992939461250c565b611f89939450612410903d805f833e6103678183610681565b93926123eb565b9060041161013e5790600490565b909291928360051161013e57831161013e57600501916004190190565b356001600160e01b031981169291906004821061245d575050565b6001600160e01b031960049290920360031b82901b16169150565b9060041015611bdc5760040190565b1561248e57565b63867a1dcf60e01b5f5260045ffd5b9291926124a982611e2a565b916124b76040519384610681565b82948184528183011161013e578281602093845f960137010152565b156124da57565b63c001660b60e01b5f5260045ffd5b156124f15750565b63a56a04dd60e01b5f5263ffffffff60e01b1660045260245ffd5b60405163ecd0596160e01b81526003600482015291926001600160a01b03821692909190602081602481875afa908115610348575f91612767575b50156120bc576126ab846126756125c66125bf868061259d6125906125828361257c61257661270a9e8c612417565b90612442565b99612478565b356001600160f81b03191690565b6001600160f81b03191690565b9a6001600160f81b03198c16158015612750575b6125ba90612487565b612425565b369161249d565b966125f56001600160e01b031984166306d61fe760e41b811490811561273f575b8115612736575b50156124d3565b61264a83612645610c03826001600160e01b0319165f9081527f0bb70095b32b9671358306b0339b4c06e7cbd8cb82505941fba30d1eb5b82f0260205260409020546001600160a01b0316151590565b6124e9565b6126646126556106a3565b6001600160a01b039096168652565b6001600160f81b0319166020850152565b63ffffffff60e01b165f527f0bb70095b32b9671358306b0339b4c06e7cbd8cb82505941fba30d1eb5b82f0260205260405f2090565b8151815460209093015174ff000000000000000000000000000000000000000060589190911c167fffffffffffffffffffffff0000000000000000000000000000000000000000009093166001600160a01b0390911617919091179055565b803b1561013e576040516306d61fe760e41b8152915f918391829084908290611fb59060048301611efe565b9050155f6125ee565b638a91b0e360e01b811491506125e7565b50607f60f91b6001600160f81b03198d16146125b1565b612780915060203d6020116120f3576120e58183610681565b5f612547565b9291906001600160a01b036127af6001600160a01b035f516020612e475f395f51905f52541690565b16806127bf57506106b293612847565b60405163d68f602560e01b815293909290915f85806127e336343360048501611ea9565b038183885af1948515610348575f95612803575b50611f89939495612847565b611f8994955061281c903d805f833e6103678183610681565b94936127f7565b1561282b5750565b6001600160a01b039063c689cd9760e01b5f521660045260245ffd5b60405163ecd0596160e01b8152600481018290526001600160a01b038316949290602081602481895afa908115610348575f916128aa575b50156120bc57816128a561289561208394612c5c565b6001600160a01b03811615612823565b612cbf565b6128c3915060203d6020116120f3576120e58183610681565b5f61287f565b8051821015611bdc5760209160051b010190565b634e487b7160e01b5f52601160045260245ffd5b5f1981146128ff5760010190565b6128dd565b5f198101919082116128ff57565b60405190602036830101604052816014360181525f602036920137604051601481016040523360601b9052565b60015f525f516020612e675f395f51905f526020527fbdfeb076d903611fa58576955630d640569633049bcf40ad9c22db9251b54a13546001600160a01b03166129b25760015f525f516020612e675f395f51905f526020526106b260405f2060016001600160a01b0319825416179055565b6329e42f3360e11b5f5260045ffd5b60015f525f516020612e275f395f51905f526020527ffe44ceacbf4f03c6ac19f86826dd265fa9ec25125e8b1766c207f24cd3bc73c7546001600160a01b03166129b25760015f525f516020612e275f395f51905f526020526106b260405f2060016001600160a01b0319825416179055565b6001600160a01b03811680158015612b62575b612b50575f9081525f516020612e275f395f51905f5260205260409020546001600160a01b0316612b355760015f525f516020612e275f395f51905f526020526106b290612afa612ab77ffe44ceacbf4f03c6ac19f86826dd265fa9ec25125e8b1766c207f24cd3bc73c7610ad6565b612adf835f516020612e275f395f51905f52906001600160a01b03165f5260205260405f2090565b906001600160a01b03166001600160a01b0319825416179055565b60015f525f516020612e275f395f51905f526020527ffe44ceacbf4f03c6ac19f86826dd265fa9ec25125e8b1766c207f24cd3bc73c7612adf565b631034f46960e21b5f526001600160a01b031660045260245ffd5b637c84ecfb60e01b5f5260045260245ffd5b5060018114612a47565b6001600160a01b03811680158015612c52575b612b50575f9081525f516020612e675f395f51905f5260205260409020546001600160a01b0316612b355760015f525f516020612e675f395f51905f526020526106b290612c17612bef7fbdfeb076d903611fa58576955630d640569633049bcf40ad9c22db9251b54a13610ad6565b612adf835f516020612e675f395f51905f52906001600160a01b03165f5260205260405f2090565b60015f525f516020612e675f395f51905f526020527fbdfeb076d903611fa58576955630d640569633049bcf40ad9c22db9251b54a13612adf565b5060018114612b7f565b600803612c91576001600160a01b037f0bb70095b32b9671358306b0339b4c06e7cbd8cb82505941fba30d1eb5b82f06541690565b6001600160a01b037f0bb70095b32b9671358306b0339b4c06e7cbd8cb82505941fba30d1eb5b82f05541690565b60088103612d2257506001600160a01b03166001600160a01b03197f0bb70095b32b9671358306b0339b4c06e7cbd8cb82505941fba30d1eb5b82f065416177f0bb70095b32b9671358306b0339b4c06e7cbd8cb82505941fba30d1eb5b82f0655565b600914612d2c5750565b6001600160a01b03166001600160a01b03197f0bb70095b32b9671358306b0339b4c06e7cbd8cb82505941fba30d1eb5b82f055416177f0bb70095b32b9671358306b0339b4c06e7cbd8cb82505941fba30d1eb5b82f0555565b6001600160a01b031680600114159081612d9e575090565b90505f525f516020612e275f395f51905f526020526001600160a01b0360405f205416151590565b6001600160a01b031680600114159081612dde575090565b90505f525f516020612e675f395f51905f526020526001600160a01b0360405f20541615159056fed21d0b289f126c4b473ea641963e766833c2f13866e4ff480abd787c100ef1230bb70095b32b9671358306b0339b4c06e7cbd8cb82505941fba30d1eb5b82f000bb70095b32b9671358306b0339b4c06e7cbd8cb82505941fba30d1eb5b82f030bb70095b32b9671358306b0339b4c06e7cbd8cb82505941fba30d1eb5b82f01a164736f6c634300081b000a","linkReferences":{}},"methodIdentifiers":{"eip712Domain()":"84b0196e","getActiveHook()":"0a664dba","getExecutorsPaginated(address,uint256)":"ea5f61d0","getFallbackHandlerBySelector(bytes4)":"481ddd23","getRegistry()":"5ab1bd53","getValidatorsPaginated(address,uint256)":"5faac46b","initNexus((address,bytes)[],(address,bytes)[],(address,bytes),(address,bytes)[],(uint256,address,bytes)[],(address,address[],uint8))":"544d5860","initNexusNoRegistry((address,bytes)[],(address,bytes)[],(address,bytes),(address,bytes)[],(uint256,address,bytes)[])":"86437876","initNexusScoped((address,bytes)[],(address,bytes),(address,address[],uint8))":"8cc8ff1d","initNexusScopedNoRegistry((address,bytes)[],(address,bytes))":"54ed06d5","initNexusWithDefaultValidator(bytes)":"31025984","initNexusWithDefaultValidatorAndOtherModules(bytes,(address,bytes)[],(address,bytes)[],(address,bytes),(address,bytes)[],(uint256,address,bytes)[],(address,address[],uint8))":"77182ae6","initNexusWithDefaultValidatorAndOtherModulesNoRegistry(bytes,(address,bytes)[],(address,bytes)[],(address,bytes),(address,bytes)[],(uint256,address,bytes)[])":"41bede03","initNexusWithSingleValidator(address,bytes,(address,address[],uint8))":"9afb7c8d","initNexusWithSingleValidatorNoRegistry(address,bytes)":"10b7fca9","installModule(uint256,address,bytes)":"9517e29f","isModuleInstalled(uint256,address,bytes)":"112d3a7d","uninstallModule(uint256,address,bytes)":"a71763a8"},"id":18}